{
  "address": "0x1F913fb3F2963e7572708B3e9F7Db8bFAd8955cb",
  "abi": [
    {
      "inputs": [
        {
          "internalType": "contract IJBOperatorStore",
          "name": "_operatorStore",
          "type": "address"
        },
        {
          "internalType": "contract IJBProjects",
          "name": "_projects",
          "type": "address"
        },
        {
          "internalType": "contract IJBDirectory",
          "name": "_directory",
          "type": "address"
        },
        {
          "internalType": "contract IJBFundingCycleStore",
          "name": "_fundingCycleStore",
          "type": "address"
        },
        {
          "internalType": "contract IJBTokenStore",
          "name": "_tokenStore",
          "type": "address"
        },
        {
          "internalType": "contract IJBSplitsStore",
          "name": "_splitsStore",
          "type": "address"
        }
      ],
      "stateMutability": "nonpayable",
      "type": "constructor"
    },
    {
      "inputs": [],
      "name": "BAD_DISTRIBUTION_LIMIT",
      "type": "error"
    },
    {
      "inputs": [],
      "name": "BAD_DISTRIBUTION_LIMIT_CURRENCY",
      "type": "error"
    },
    {
      "inputs": [],
      "name": "BAD_OVERFLOW_ALLOWANCE",
      "type": "error"
    },
    {
      "inputs": [],
      "name": "BAD_OVERFLOW_ALLOWANCE_CURRENCY",
      "type": "error"
    },
    {
      "inputs": [],
      "name": "BURN_PAUSED_AND_SENDER_NOT_VALID_TERMINAL_DELEGATE",
      "type": "error"
    },
    {
      "inputs": [],
      "name": "CALLER_NOT_CURRENT_CONTROLLER",
      "type": "error"
    },
    {
      "inputs": [],
      "name": "CANT_MIGRATE_TO_CURRENT_CONTROLLER",
      "type": "error"
    },
    {
      "inputs": [],
      "name": "CHANGE_TOKEN_NOT_ALLOWED",
      "type": "error"
    },
    {
      "inputs": [],
      "name": "FUNDING_CYCLE_ALREADY_LAUNCHED",
      "type": "error"
    },
    {
      "inputs": [],
      "name": "INVALID_BALLOT_REDEMPTION_RATE",
      "type": "error"
    },
    {
      "inputs": [],
      "name": "INVALID_REDEMPTION_RATE",
      "type": "error"
    },
    {
      "inputs": [],
      "name": "INVALID_RESERVED_RATE",
      "type": "error"
    },
    {
      "inputs": [],
      "name": "MIGRATION_NOT_ALLOWED",
      "type": "error"
    },
    {
      "inputs": [],
      "name": "MINT_PAUSED_AND_NOT_TERMINAL_DELEGATE",
      "type": "error"
    },
    {
      "inputs": [],
      "name": "NO_BURNABLE_TOKENS",
      "type": "error"
    },
    {
      "inputs": [
        {
          "internalType": "uint256",
          "name": "prod1",
          "type": "uint256"
        },
        {
          "internalType": "uint256",
          "name": "denominator",
          "type": "uint256"
        }
      ],
      "name": "PRBMath__MulDivOverflow",
      "type": "error"
    },
    {
      "inputs": [],
      "name": "UNAUTHORIZED",
      "type": "error"
    },
    {
      "inputs": [],
      "name": "ZERO_TOKENS_TO_MINT",
      "type": "error"
    },
    {
      "anonymous": false,
      "inputs": [
        {
          "indexed": true,
          "internalType": "address",
          "name": "holder",
          "type": "address"
        },
        {
          "indexed": true,
          "internalType": "uint256",
          "name": "projectId",
          "type": "uint256"
        },
        {
          "indexed": false,
          "internalType": "uint256",
          "name": "count",
          "type": "uint256"
        },
        {
          "indexed": false,
          "internalType": "string",
          "name": "memo",
          "type": "string"
        },
        {
          "indexed": false,
          "internalType": "address",
          "name": "caller",
          "type": "address"
        }
      ],
      "name": "BurnTokens",
      "type": "event"
    },
    {
      "anonymous": false,
      "inputs": [
        {
          "indexed": true,
          "internalType": "uint256",
          "name": "fundingCycleConfiguration",
          "type": "uint256"
        },
        {
          "indexed": true,
          "internalType": "uint256",
          "name": "fundingCycleNumber",
          "type": "uint256"
        },
        {
          "indexed": true,
          "internalType": "uint256",
          "name": "projectId",
          "type": "uint256"
        },
        {
          "indexed": false,
          "internalType": "address",
          "name": "beneficiary",
          "type": "address"
        },
        {
          "indexed": false,
          "internalType": "uint256",
          "name": "count",
          "type": "uint256"
        },
        {
          "indexed": false,
          "internalType": "uint256",
          "name": "beneficiaryTokenCount",
          "type": "uint256"
        },
        {
          "indexed": false,
          "internalType": "string",
          "name": "memo",
          "type": "string"
        },
        {
          "indexed": false,
          "internalType": "address",
          "name": "caller",
          "type": "address"
        }
      ],
      "name": "DistributeReservedTokens",
      "type": "event"
    },
    {
      "anonymous": false,
      "inputs": [
        {
          "indexed": true,
          "internalType": "uint256",
          "name": "fundingCycleConfiguration",
          "type": "uint256"
        },
        {
          "indexed": true,
          "internalType": "uint256",
          "name": "fundingCycleNumber",
          "type": "uint256"
        },
        {
          "indexed": true,
          "internalType": "uint256",
          "name": "projectId",
          "type": "uint256"
        },
        {
          "components": [
            {
              "internalType": "bool",
              "name": "preferClaimed",
              "type": "bool"
            },
            {
              "internalType": "uint256",
              "name": "percent",
              "type": "uint256"
            },
            {
              "internalType": "uint256",
              "name": "projectId",
              "type": "uint256"
            },
            {
              "internalType": "address payable",
              "name": "beneficiary",
              "type": "address"
            },
            {
              "internalType": "uint256",
              "name": "lockedUntil",
              "type": "uint256"
            },
            {
              "internalType": "contract IJBSplitAllocator",
              "name": "allocator",
              "type": "address"
            }
          ],
          "indexed": false,
          "internalType": "struct JBSplit",
          "name": "split",
          "type": "tuple"
        },
        {
          "indexed": false,
          "internalType": "uint256",
          "name": "count",
          "type": "uint256"
        },
        {
          "indexed": false,
          "internalType": "address",
          "name": "caller",
          "type": "address"
        }
      ],
      "name": "DistributeToReservedTokenSplit",
      "type": "event"
    },
    {
      "anonymous": false,
      "inputs": [
        {
          "indexed": true,
          "internalType": "uint256",
          "name": "projectId",
          "type": "uint256"
        },
        {
          "indexed": false,
          "internalType": "contract IJBController",
          "name": "to",
          "type": "address"
        },
        {
          "indexed": false,
          "internalType": "address",
          "name": "caller",
          "type": "address"
        }
      ],
      "name": "Migrate",
      "type": "event"
    },
    {
      "anonymous": false,
      "inputs": [
        {
          "indexed": true,
          "internalType": "address",
          "name": "beneficiary",
          "type": "address"
        },
        {
          "indexed": true,
          "internalType": "uint256",
          "name": "projectId",
          "type": "uint256"
        },
        {
          "indexed": true,
          "internalType": "uint256",
          "name": "count",
          "type": "uint256"
        },
        {
          "indexed": false,
          "internalType": "string",
          "name": "memo",
          "type": "string"
        },
        {
          "indexed": false,
          "internalType": "uint256",
          "name": "reservedRate",
          "type": "uint256"
        },
        {
          "indexed": false,
          "internalType": "address",
          "name": "caller",
          "type": "address"
        }
      ],
      "name": "MintTokens",
      "type": "event"
    },
    {
      "anonymous": false,
      "inputs": [
        {
          "indexed": true,
          "internalType": "uint256",
          "name": "fundingCycleConfiguration",
          "type": "uint256"
        },
        {
          "indexed": true,
          "internalType": "uint256",
          "name": "fundingCycleNumber",
          "type": "uint256"
        },
        {
          "indexed": true,
          "internalType": "uint256",
          "name": "projectId",
          "type": "uint256"
        },
        {
          "components": [
            {
              "internalType": "contract IJBPaymentTerminal",
              "name": "terminal",
              "type": "address"
            },
            {
              "internalType": "uint256",
              "name": "distributionLimit",
              "type": "uint256"
            },
            {
              "internalType": "uint256",
              "name": "distributionLimitCurrency",
              "type": "uint256"
            },
            {
              "internalType": "uint256",
              "name": "overflowAllowance",
              "type": "uint256"
            },
            {
              "internalType": "uint256",
              "name": "overflowAllowanceCurrency",
              "type": "uint256"
            }
          ],
          "indexed": false,
          "internalType": "struct JBFundAccessConstraints",
          "name": "constraints",
          "type": "tuple"
        },
        {
          "indexed": false,
          "internalType": "address",
          "name": "caller",
          "type": "address"
        }
      ],
      "name": "SetFundAccessConstraints",
      "type": "event"
    },
    {
      "inputs": [
        {
          "internalType": "address",
          "name": "_holder",
          "type": "address"
        },
        {
          "internalType": "uint256",
          "name": "_projectId",
          "type": "uint256"
        },
        {
          "internalType": "uint256",
          "name": "_tokenCount",
          "type": "uint256"
        },
        {
          "internalType": "string",
          "name": "_memo",
          "type": "string"
        },
        {
          "internalType": "bool",
          "name": "_preferClaimedTokens",
          "type": "bool"
        }
      ],
      "name": "burnTokensOf",
      "outputs": [],
      "stateMutability": "nonpayable",
      "type": "function"
    },
    {
      "inputs": [
        {
          "internalType": "uint256",
          "name": "_projectId",
          "type": "uint256"
        },
        {
          "internalType": "contract IJBToken",
          "name": "_token",
          "type": "address"
        },
        {
          "internalType": "address",
          "name": "_newOwner",
          "type": "address"
        }
      ],
      "name": "changeTokenOf",
      "outputs": [],
      "stateMutability": "nonpayable",
      "type": "function"
    },
    {
      "inputs": [],
      "name": "directory",
      "outputs": [
        {
          "internalType": "contract IJBDirectory",
          "name": "",
          "type": "address"
        }
      ],
      "stateMutability": "view",
      "type": "function"
    },
    {
      "inputs": [
        {
          "internalType": "uint256",
          "name": "_projectId",
          "type": "uint256"
        },
        {
          "internalType": "string",
          "name": "_memo",
          "type": "string"
        }
      ],
      "name": "distributeReservedTokensOf",
      "outputs": [
        {
          "internalType": "uint256",
          "name": "",
          "type": "uint256"
        }
      ],
      "stateMutability": "nonpayable",
      "type": "function"
    },
    {
      "inputs": [
        {
          "internalType": "uint256",
          "name": "_projectId",
          "type": "uint256"
        },
        {
          "internalType": "uint256",
          "name": "_configuration",
          "type": "uint256"
        },
        {
          "internalType": "contract IJBPaymentTerminal",
          "name": "_terminal",
          "type": "address"
        }
      ],
      "name": "distributionLimitCurrencyOf",
      "outputs": [
        {
          "internalType": "uint256",
          "name": "",
          "type": "uint256"
        }
      ],
      "stateMutability": "view",
      "type": "function"
    },
    {
      "inputs": [
        {
          "internalType": "uint256",
          "name": "_projectId",
          "type": "uint256"
        },
        {
          "internalType": "uint256",
          "name": "_configuration",
          "type": "uint256"
        },
        {
          "internalType": "contract IJBPaymentTerminal",
          "name": "_terminal",
          "type": "address"
        }
      ],
      "name": "distributionLimitOf",
      "outputs": [
        {
          "internalType": "uint256",
          "name": "",
          "type": "uint256"
        }
      ],
      "stateMutability": "view",
      "type": "function"
    },
    {
      "inputs": [],
      "name": "fundingCycleStore",
      "outputs": [
        {
          "internalType": "contract IJBFundingCycleStore",
          "name": "",
          "type": "address"
        }
      ],
      "stateMutability": "view",
      "type": "function"
    },
    {
      "inputs": [
        {
          "internalType": "uint256",
          "name": "_projectId",
          "type": "uint256"
        },
        {
          "internalType": "string",
          "name": "_name",
          "type": "string"
        },
        {
          "internalType": "string",
          "name": "_symbol",
          "type": "string"
        }
      ],
      "name": "issueTokenFor",
      "outputs": [
        {
          "internalType": "contract IJBToken",
          "name": "token",
          "type": "address"
        }
      ],
      "stateMutability": "nonpayable",
      "type": "function"
    },
    {
      "inputs": [
        {
          "internalType": "uint256",
          "name": "_projectId",
          "type": "uint256"
        },
        {
          "components": [
            {
              "internalType": "uint256",
              "name": "duration",
              "type": "uint256"
            },
            {
              "internalType": "uint256",
              "name": "weight",
              "type": "uint256"
            },
            {
              "internalType": "uint256",
              "name": "discountRate",
              "type": "uint256"
            },
            {
              "internalType": "contract IJBFundingCycleBallot",
              "name": "ballot",
              "type": "address"
            }
          ],
          "internalType": "struct JBFundingCycleData",
          "name": "_data",
          "type": "tuple"
        },
        {
          "components": [
            {
              "internalType": "uint256",
              "name": "reservedRate",
              "type": "uint256"
            },
            {
              "internalType": "uint256",
              "name": "redemptionRate",
              "type": "uint256"
            },
            {
              "internalType": "uint256",
              "name": "ballotRedemptionRate",
              "type": "uint256"
            },
            {
              "internalType": "bool",
              "name": "pausePay",
              "type": "bool"
            },
            {
              "internalType": "bool",
              "name": "pauseDistributions",
              "type": "bool"
            },
            {
              "internalType": "bool",
              "name": "pauseRedeem",
              "type": "bool"
            },
            {
              "internalType": "bool",
              "name": "pauseMint",
              "type": "bool"
            },
            {
              "internalType": "bool",
              "name": "pauseBurn",
              "type": "bool"
            },
            {
              "internalType": "bool",
              "name": "allowChangeToken",
              "type": "bool"
            },
            {
              "internalType": "bool",
              "name": "allowTerminalMigration",
              "type": "bool"
            },
            {
              "internalType": "bool",
              "name": "allowControllerMigration",
              "type": "bool"
            },
            {
              "internalType": "bool",
              "name": "holdFees",
              "type": "bool"
            },
            {
              "internalType": "bool",
              "name": "useLocalBalanceForRedemptions",
              "type": "bool"
            },
            {
              "internalType": "bool",
              "name": "useDataSourceForPay",
              "type": "bool"
            },
            {
              "internalType": "bool",
              "name": "useDataSourceForRedeem",
              "type": "bool"
            },
            {
              "internalType": "contract IJBFundingCycleDataSource",
              "name": "dataSource",
              "type": "address"
            }
          ],
          "internalType": "struct JBFundingCycleMetadata",
          "name": "_metadata",
          "type": "tuple"
        },
        {
          "internalType": "uint256",
          "name": "_mustStartAtOrAfter",
          "type": "uint256"
        },
        {
          "components": [
            {
              "internalType": "uint256",
              "name": "group",
              "type": "uint256"
            },
            {
              "components": [
                {
                  "internalType": "bool",
                  "name": "preferClaimed",
                  "type": "bool"
                },
                {
                  "internalType": "uint256",
                  "name": "percent",
                  "type": "uint256"
                },
                {
                  "internalType": "uint256",
                  "name": "projectId",
                  "type": "uint256"
                },
                {
                  "internalType": "address payable",
                  "name": "beneficiary",
                  "type": "address"
                },
                {
                  "internalType": "uint256",
                  "name": "lockedUntil",
                  "type": "uint256"
                },
                {
                  "internalType": "contract IJBSplitAllocator",
                  "name": "allocator",
                  "type": "address"
                }
              ],
              "internalType": "struct JBSplit[]",
              "name": "splits",
              "type": "tuple[]"
            }
          ],
          "internalType": "struct JBGroupedSplits[]",
          "name": "_groupedSplits",
          "type": "tuple[]"
        },
        {
          "components": [
            {
              "internalType": "contract IJBPaymentTerminal",
              "name": "terminal",
              "type": "address"
            },
            {
              "internalType": "uint256",
              "name": "distributionLimit",
              "type": "uint256"
            },
            {
              "internalType": "uint256",
              "name": "distributionLimitCurrency",
              "type": "uint256"
            },
            {
              "internalType": "uint256",
              "name": "overflowAllowance",
              "type": "uint256"
            },
            {
              "internalType": "uint256",
              "name": "overflowAllowanceCurrency",
              "type": "uint256"
            }
          ],
          "internalType": "struct JBFundAccessConstraints[]",
          "name": "_fundAccessConstraints",
          "type": "tuple[]"
        },
        {
          "internalType": "contract IJBPaymentTerminal[]",
          "name": "_terminals",
          "type": "address[]"
        }
      ],
      "name": "launchFundingCycleFor",
      "outputs": [
        {
          "internalType": "uint256",
          "name": "configuration",
          "type": "uint256"
        }
      ],
      "stateMutability": "nonpayable",
      "type": "function"
    },
    {
      "inputs": [
        {
          "internalType": "address",
          "name": "_owner",
          "type": "address"
        },
        {
          "components": [
            {
              "internalType": "string",
              "name": "content",
              "type": "string"
            },
            {
              "internalType": "uint256",
              "name": "domain",
              "type": "uint256"
            }
          ],
          "internalType": "struct JBProjectMetadata",
          "name": "_projectMetadata",
          "type": "tuple"
        },
        {
          "components": [
            {
              "internalType": "uint256",
              "name": "duration",
              "type": "uint256"
            },
            {
              "internalType": "uint256",
              "name": "weight",
              "type": "uint256"
            },
            {
              "internalType": "uint256",
              "name": "discountRate",
              "type": "uint256"
            },
            {
              "internalType": "contract IJBFundingCycleBallot",
              "name": "ballot",
              "type": "address"
            }
          ],
          "internalType": "struct JBFundingCycleData",
          "name": "_data",
          "type": "tuple"
        },
        {
          "components": [
            {
              "internalType": "uint256",
              "name": "reservedRate",
              "type": "uint256"
            },
            {
              "internalType": "uint256",
              "name": "redemptionRate",
              "type": "uint256"
            },
            {
              "internalType": "uint256",
              "name": "ballotRedemptionRate",
              "type": "uint256"
            },
            {
              "internalType": "bool",
              "name": "pausePay",
              "type": "bool"
            },
            {
              "internalType": "bool",
              "name": "pauseDistributions",
              "type": "bool"
            },
            {
              "internalType": "bool",
              "name": "pauseRedeem",
              "type": "bool"
            },
            {
              "internalType": "bool",
              "name": "pauseMint",
              "type": "bool"
            },
            {
              "internalType": "bool",
              "name": "pauseBurn",
              "type": "bool"
            },
            {
              "internalType": "bool",
              "name": "allowChangeToken",
              "type": "bool"
            },
            {
              "internalType": "bool",
              "name": "allowTerminalMigration",
              "type": "bool"
            },
            {
              "internalType": "bool",
              "name": "allowControllerMigration",
              "type": "bool"
            },
            {
              "internalType": "bool",
              "name": "holdFees",
              "type": "bool"
            },
            {
              "internalType": "bool",
              "name": "useLocalBalanceForRedemptions",
              "type": "bool"
            },
            {
              "internalType": "bool",
              "name": "useDataSourceForPay",
              "type": "bool"
            },
            {
              "internalType": "bool",
              "name": "useDataSourceForRedeem",
              "type": "bool"
            },
            {
              "internalType": "contract IJBFundingCycleDataSource",
              "name": "dataSource",
              "type": "address"
            }
          ],
          "internalType": "struct JBFundingCycleMetadata",
          "name": "_metadata",
          "type": "tuple"
        },
        {
          "internalType": "uint256",
          "name": "_mustStartAtOrAfter",
          "type": "uint256"
        },
        {
          "components": [
            {
              "internalType": "uint256",
              "name": "group",
              "type": "uint256"
            },
            {
              "components": [
                {
                  "internalType": "bool",
                  "name": "preferClaimed",
                  "type": "bool"
                },
                {
                  "internalType": "uint256",
                  "name": "percent",
                  "type": "uint256"
                },
                {
                  "internalType": "uint256",
                  "name": "projectId",
                  "type": "uint256"
                },
                {
                  "internalType": "address payable",
                  "name": "beneficiary",
                  "type": "address"
                },
                {
                  "internalType": "uint256",
                  "name": "lockedUntil",
                  "type": "uint256"
                },
                {
                  "internalType": "contract IJBSplitAllocator",
                  "name": "allocator",
                  "type": "address"
                }
              ],
              "internalType": "struct JBSplit[]",
              "name": "splits",
              "type": "tuple[]"
            }
          ],
          "internalType": "struct JBGroupedSplits[]",
          "name": "_groupedSplits",
          "type": "tuple[]"
        },
        {
          "components": [
            {
              "internalType": "contract IJBPaymentTerminal",
              "name": "terminal",
              "type": "address"
            },
            {
              "internalType": "uint256",
              "name": "distributionLimit",
              "type": "uint256"
            },
            {
              "internalType": "uint256",
              "name": "distributionLimitCurrency",
              "type": "uint256"
            },
            {
              "internalType": "uint256",
              "name": "overflowAllowance",
              "type": "uint256"
            },
            {
              "internalType": "uint256",
              "name": "overflowAllowanceCurrency",
              "type": "uint256"
            }
          ],
          "internalType": "struct JBFundAccessConstraints[]",
          "name": "_fundAccessConstraints",
          "type": "tuple[]"
        },
        {
          "internalType": "contract IJBPaymentTerminal[]",
          "name": "_terminals",
          "type": "address[]"
        }
      ],
      "name": "launchProjectFor",
      "outputs": [
        {
          "internalType": "uint256",
          "name": "projectId",
          "type": "uint256"
        }
      ],
      "stateMutability": "nonpayable",
      "type": "function"
    },
    {
      "inputs": [
        {
          "internalType": "uint256",
          "name": "_projectId",
          "type": "uint256"
        },
        {
          "internalType": "contract IJBController",
          "name": "_to",
          "type": "address"
        }
      ],
      "name": "migrate",
      "outputs": [],
      "stateMutability": "nonpayable",
      "type": "function"
    },
    {
      "inputs": [
        {
          "internalType": "uint256",
          "name": "_projectId",
          "type": "uint256"
        },
        {
          "internalType": "uint256",
          "name": "_tokenCount",
          "type": "uint256"
        },
        {
          "internalType": "address",
          "name": "_beneficiary",
          "type": "address"
        },
        {
          "internalType": "string",
          "name": "_memo",
          "type": "string"
        },
        {
          "internalType": "bool",
          "name": "_preferClaimedTokens",
          "type": "bool"
        },
        {
          "internalType": "bool",
          "name": "_useReservedRate",
          "type": "bool"
        }
      ],
      "name": "mintTokensOf",
      "outputs": [
        {
          "internalType": "uint256",
          "name": "beneficiaryTokenCount",
          "type": "uint256"
        }
      ],
      "stateMutability": "nonpayable",
      "type": "function"
    },
    {
      "inputs": [],
      "name": "operatorStore",
      "outputs": [
        {
          "internalType": "contract IJBOperatorStore",
          "name": "",
          "type": "address"
        }
      ],
      "stateMutability": "view",
      "type": "function"
    },
    {
      "inputs": [
        {
          "internalType": "uint256",
          "name": "_projectId",
          "type": "uint256"
        },
        {
          "internalType": "uint256",
          "name": "_configuration",
          "type": "uint256"
        },
        {
          "internalType": "contract IJBPaymentTerminal",
          "name": "_terminal",
          "type": "address"
        }
      ],
      "name": "overflowAllowanceCurrencyOf",
      "outputs": [
        {
          "internalType": "uint256",
          "name": "",
          "type": "uint256"
        }
      ],
      "stateMutability": "view",
      "type": "function"
    },
    {
      "inputs": [
        {
          "internalType": "uint256",
          "name": "_projectId",
          "type": "uint256"
        },
        {
          "internalType": "uint256",
          "name": "_configuration",
          "type": "uint256"
        },
        {
          "internalType": "contract IJBPaymentTerminal",
          "name": "_terminal",
          "type": "address"
        }
      ],
      "name": "overflowAllowanceOf",
      "outputs": [
        {
          "internalType": "uint256",
          "name": "",
          "type": "uint256"
        }
      ],
      "stateMutability": "view",
      "type": "function"
    },
    {
      "inputs": [
        {
          "internalType": "uint256",
          "name": "_projectId",
          "type": "uint256"
        },
        {
          "internalType": "contract IJBController",
          "name": "",
          "type": "address"
        }
      ],
      "name": "prepForMigrationOf",
      "outputs": [],
      "stateMutability": "nonpayable",
      "type": "function"
    },
    {
      "inputs": [],
      "name": "projects",
      "outputs": [
        {
          "internalType": "contract IJBProjects",
          "name": "",
          "type": "address"
        }
      ],
      "stateMutability": "view",
      "type": "function"
    },
    {
      "inputs": [
        {
          "internalType": "uint256",
          "name": "_projectId",
          "type": "uint256"
        },
        {
          "components": [
            {
              "internalType": "uint256",
              "name": "duration",
              "type": "uint256"
            },
            {
              "internalType": "uint256",
              "name": "weight",
              "type": "uint256"
            },
            {
              "internalType": "uint256",
              "name": "discountRate",
              "type": "uint256"
            },
            {
              "internalType": "contract IJBFundingCycleBallot",
              "name": "ballot",
              "type": "address"
            }
          ],
          "internalType": "struct JBFundingCycleData",
          "name": "_data",
          "type": "tuple"
        },
        {
          "components": [
            {
              "internalType": "uint256",
              "name": "reservedRate",
              "type": "uint256"
            },
            {
              "internalType": "uint256",
              "name": "redemptionRate",
              "type": "uint256"
            },
            {
              "internalType": "uint256",
              "name": "ballotRedemptionRate",
              "type": "uint256"
            },
            {
              "internalType": "bool",
              "name": "pausePay",
              "type": "bool"
            },
            {
              "internalType": "bool",
              "name": "pauseDistributions",
              "type": "bool"
            },
            {
              "internalType": "bool",
              "name": "pauseRedeem",
              "type": "bool"
            },
            {
              "internalType": "bool",
              "name": "pauseMint",
              "type": "bool"
            },
            {
              "internalType": "bool",
              "name": "pauseBurn",
              "type": "bool"
            },
            {
              "internalType": "bool",
              "name": "allowChangeToken",
              "type": "bool"
            },
            {
              "internalType": "bool",
              "name": "allowTerminalMigration",
              "type": "bool"
            },
            {
              "internalType": "bool",
              "name": "allowControllerMigration",
              "type": "bool"
            },
            {
              "internalType": "bool",
              "name": "holdFees",
              "type": "bool"
            },
            {
              "internalType": "bool",
              "name": "useLocalBalanceForRedemptions",
              "type": "bool"
            },
            {
              "internalType": "bool",
              "name": "useDataSourceForPay",
              "type": "bool"
            },
            {
              "internalType": "bool",
              "name": "useDataSourceForRedeem",
              "type": "bool"
            },
            {
              "internalType": "contract IJBFundingCycleDataSource",
              "name": "dataSource",
              "type": "address"
            }
          ],
          "internalType": "struct JBFundingCycleMetadata",
          "name": "_metadata",
          "type": "tuple"
        },
        {
          "internalType": "uint256",
          "name": "_mustStartAtOrAfter",
          "type": "uint256"
        },
        {
          "components": [
            {
              "internalType": "uint256",
              "name": "group",
              "type": "uint256"
            },
            {
              "components": [
                {
                  "internalType": "bool",
                  "name": "preferClaimed",
                  "type": "bool"
                },
                {
                  "internalType": "uint256",
                  "name": "percent",
                  "type": "uint256"
                },
                {
                  "internalType": "uint256",
                  "name": "projectId",
                  "type": "uint256"
                },
                {
                  "internalType": "address payable",
                  "name": "beneficiary",
                  "type": "address"
                },
                {
                  "internalType": "uint256",
                  "name": "lockedUntil",
                  "type": "uint256"
                },
                {
                  "internalType": "contract IJBSplitAllocator",
                  "name": "allocator",
                  "type": "address"
                }
              ],
              "internalType": "struct JBSplit[]",
              "name": "splits",
              "type": "tuple[]"
            }
          ],
          "internalType": "struct JBGroupedSplits[]",
          "name": "_groupedSplits",
          "type": "tuple[]"
        },
        {
          "components": [
            {
              "internalType": "contract IJBPaymentTerminal",
              "name": "terminal",
              "type": "address"
            },
            {
              "internalType": "uint256",
              "name": "distributionLimit",
              "type": "uint256"
            },
            {
              "internalType": "uint256",
              "name": "distributionLimitCurrency",
              "type": "uint256"
            },
            {
              "internalType": "uint256",
              "name": "overflowAllowance",
              "type": "uint256"
            },
            {
              "internalType": "uint256",
              "name": "overflowAllowanceCurrency",
              "type": "uint256"
            }
          ],
          "internalType": "struct JBFundAccessConstraints[]",
          "name": "_fundAccessConstraints",
          "type": "tuple[]"
        }
      ],
      "name": "reconfigureFundingCyclesOf",
      "outputs": [
        {
          "internalType": "uint256",
          "name": "",
          "type": "uint256"
        }
      ],
      "stateMutability": "nonpayable",
      "type": "function"
    },
    {
      "inputs": [
        {
          "internalType": "uint256",
          "name": "_projectId",
          "type": "uint256"
        },
        {
          "internalType": "uint256",
          "name": "_reservedRate",
          "type": "uint256"
        }
      ],
      "name": "reservedTokenBalanceOf",
      "outputs": [
        {
          "internalType": "uint256",
          "name": "",
          "type": "uint256"
        }
      ],
      "stateMutability": "view",
      "type": "function"
    },
    {
      "inputs": [],
      "name": "splitsStore",
      "outputs": [
        {
          "internalType": "contract IJBSplitsStore",
          "name": "",
          "type": "address"
        }
      ],
      "stateMutability": "view",
      "type": "function"
    },
    {
      "inputs": [],
      "name": "tokenStore",
      "outputs": [
        {
          "internalType": "contract IJBTokenStore",
          "name": "",
          "type": "address"
        }
      ],
      "stateMutability": "view",
      "type": "function"
    }
  ],
  "transactionHash": "0xe7076c86d8a1a25affbf5bd7f37961cf42da4537dd4d9639a2c10f8afa8e835c",
  "args": [
    "0x523D4f4EE2Dd194e5C3aEA3bd82c267b50379521",
    "0x9f6B993D2b05088317d123E6B56Dd4444E7F016A",
    "0xf8beb62B8ae1cE8053D5A3B6d66C4f1a8ef36F4a",
    "0xBe1828896f862113DA7A699473967aa72a177F0F",
    "0x77a6a0E3bDD9B34A13d4827d7CCA9F304b7B0819",
    "0xC41BCD246c889A642eA27CF1F47F3948b6E5C9dB"
  ],
  "numDeployments": 1,
  "solcInputHash": "0136ddce72e9b07c45f37ebabcbc8b52",
  "bytecode": "0x6101406040523480156200001257600080fd5b50604051620059723803806200597283398101604081905262000035916200007b565b6001600160601b0319606096871b8116608052600160005594861b851660a05292851b84166101205290841b831660c052831b821660e05290911b166101005262000128565b60008060008060008060c087890312156200009557600080fd5b8651620000a2816200010f565b6020880151909650620000b5816200010f565b6040880151909550620000c8816200010f565b6060880151909450620000db816200010f565b6080880151909350620000ee816200010f565b60a088015190925062000101816200010f565b809150509295509295509295565b6001600160a01b03811681146200012557600080fd5b50565b60805160601c60a05160601c60c05160601c60e05160601c6101005160601c6101205160601c615675620002fd6000396000818161044c0152818161059d015281816109860152818161110301528181611621015281816119af01528181611b6b01528181611c2f015281816123850152818161244b015281816126440152612a2f0152600081816101cf015281816137370152613c9c01526000818161039e01528181610ad501528181611032015281816111fa0152818161182101528181612b5301528181612fbb01528181613126015281816132c8015281816134c60152613db2015260008181610377015281816108a801528181610f060152818161171a0152818161228a0152818161295101528181613203015261364f0152600081816103fe01528181610c39015281816112ce01528181611aaa01528181611cd701528181611fc00152818161256601528181612ce3015281816133b80152613e4c015260008181610425015281816106b00152818161078c01528181610d4501528181610e21015281816113da015281816114b601528181611de301528181611ebf015281816120cc015281816121a8015281816127420152818161281e01528181612def0152612ecb01526156756000f3fe608060405234801561001057600080fd5b50600436106101775760003560e01c8063557e7155116100d85780638b79543c1161008c578063d101307311610066578063d10130731461046e578063e867c59c14610481578063f033b3b41461049457600080fd5b80638b79543c146103f9578063ad007d6314610420578063c41c2f241461044757600080fd5b8063628d9288116100bd578063628d9288146103c05780636e5c8614146103d35780638ae9c07b146103e657600080fd5b8063557e715514610372578063619306301461039957600080fd5b8063405b84fa1161012f578063507dac0111610114578063507dac01146102895780635172a2bf1461029c5780635578dfd71461030757600080fd5b8063405b84fa146102295780634e9d00d21461023c57600080fd5b8063229bb82411610160578063229bb824146101b75780632bdfe004146101ca5780633e8c615b1461021657600080fd5b8063073d499c1461017c5780631665bc0f146101a2575b600080fd5b61018f61018a366004614da0565b6104a7565b6040519081526020015b60405180910390f35b6101b56101b0366004614697565b6104ea565b005b6101b56101c5366004614a14565b610b98565b6101f17f000000000000000000000000000000000000000000000000000000000000000081565b60405173ffffffffffffffffffffffffffffffffffffffff9091168152602001610199565b6101b56102243660046149e4565b6110bd565b6101b56102373660046149e4565b61129f565b61018f61024a366004614da0565b600092835260026020908152604080852093855292815282842073ffffffffffffffffffffffffffffffffffffffff9290921684525290205460f81c90565b61018f6102973660046145a8565b611a6a565b61018f6102aa366004614da0565b600092835260036020908152604080852093855292815282842073ffffffffffffffffffffffffffffffffffffffff929092168452529020547effffffffffffffffffffffffffffffffffffffffffffffffffffffffffffff1690565b61018f610315366004614da0565b600092835260026020908152604080852093855292815282842073ffffffffffffffffffffffffffffffffffffffff929092168452529020547effffffffffffffffffffffffffffffffffffffffffffffffffffffffffffff1690565b6101f17f000000000000000000000000000000000000000000000000000000000000000081565b6101f17f000000000000000000000000000000000000000000000000000000000000000081565b61018f6103ce366004614b8d565b611ca5565b61018f6103e1366004614c2a565b611f8e565b61018f6103f4366004614d10565b6124c3565b6101f17f000000000000000000000000000000000000000000000000000000000000000081565b6101f17f000000000000000000000000000000000000000000000000000000000000000081565b6101f17f000000000000000000000000000000000000000000000000000000000000000081565b6101f161047c366004614a56565b612cb1565b61018f61048f366004614ad0565b613057565b61018f6104a2366004614cee565b6130e1565b6000838152600360209081526040808320858452825280832073ffffffffffffffffffffffffffffffffffffffff8516845290915290205460f81c5b9392505050565b6002600054141561055c576040517f08c379a000000000000000000000000000000000000000000000000000000000815260206004820152601f60248201527f5265656e7472616e637947756172643a207265656e7472616e742063616c6c0060448201526064015b60405180910390fd5b60026000556040517f6e49181f0000000000000000000000000000000000000000000000000000000081526004810186905233602482015286908690600a907f000000000000000000000000000000000000000000000000000000000000000073ffffffffffffffffffffffffffffffffffffffff1690636e49181f9060440160206040518083038186803b1580156105f457600080fd5b505afa158015610608573d6000803e3d6000fd5b505050506040513d601f19601f8201168201806040525081019061062c919061480f565b8015801561065057503373ffffffffffffffffffffffffffffffffffffffff851614155b801561072c57506040517fc161c93f00000000000000000000000000000000000000000000000000000000815233600482015273ffffffffffffffffffffffffffffffffffffffff858116602483015260448201859052606482018490527f0000000000000000000000000000000000000000000000000000000000000000169063c161c93f9060840160206040518083038186803b1580156106f257600080fd5b505afa158015610706573d6000803e3d6000fd5b505050506040513d601f19601f8201168201806040525081019061072a919061480f565b155b801561080857506040517fc161c93f00000000000000000000000000000000000000000000000000000000815233600482015273ffffffffffffffffffffffffffffffffffffffff858116602483015260006044830152606482018490527f0000000000000000000000000000000000000000000000000000000000000000169063c161c93f9060840160206040518083038186803b1580156107ce57600080fd5b505afa1580156107e2573d6000803e3d6000fd5b505050506040513d601f19601f82011682018060405250810190610806919061480f565b155b1561083f576040517f075fd2b100000000000000000000000000000000000000000000000000000000815260040160405180910390fd5b87610876576040517f7b38547b00000000000000000000000000000000000000000000000000000000815260040160405180910390fd5b6040517f43a266c2000000000000000000000000000000000000000000000000000000008152600481018a90526000907f000000000000000000000000000000000000000000000000000000000000000073ffffffffffffffffffffffffffffffffffffffff16906343a266c2906024016101206040518083038186803b15801561090057600080fd5b505afa158015610914573d6000803e3d6000fd5b505050506040513d601f19601f82011682018060405250810190610938919061494b565b610100810151909150603c1c6001908116148015610a1757506040517f6e49181f000000000000000000000000000000000000000000000000000000008152600481018b90523360248201527f000000000000000000000000000000000000000000000000000000000000000073ffffffffffffffffffffffffffffffffffffffff1690636e49181f9060440160206040518083038186803b1580156109dd57600080fd5b505afa1580156109f1573d6000803e3d6000fd5b505050506040513d601f19601f82011682018060405250810190610a15919061480f565b155b15610a4e576040517f78a4871800000000000000000000000000000000000000000000000000000000815260040160405180910390fd5b60008a815260016020526040902054610a68908a90615453565b60008b8152600160205260409081902091909155517f906ebd0f00000000000000000000000000000000000000000000000000000000815273ffffffffffffffffffffffffffffffffffffffff8c81166004830152602482018c9052604482018b905287151560648301527f0000000000000000000000000000000000000000000000000000000000000000169063906ebd0f90608401600060405180830381600087803b158015610b1957600080fd5b505af1158015610b2d573d6000803e3d6000fd5b50505050898b73ffffffffffffffffffffffffffffffffffffffff167fdf04e13ee4fcd48a81ab2fd114757093740a3efa9b6475d86e05878b4c59d0798b8b8b33604051610b7e949392919061509f565b60405180910390a350506001600055505050505050505050565b60026000541415610c05576040517f08c379a000000000000000000000000000000000000000000000000000000000815260206004820152601f60248201527f5265656e7472616e637947756172643a207265656e7472616e742063616c6c006044820152606401610553565b60026000556040517f6352211e000000000000000000000000000000000000000000000000000000008152600481018490527f000000000000000000000000000000000000000000000000000000000000000073ffffffffffffffffffffffffffffffffffffffff1690636352211e9060240160206040518083038186803b158015610c9057600080fd5b505afa158015610ca4573d6000803e3d6000fd5b505050506040513d601f19601f82011682018060405250810190610cc8919061458b565b8360083373ffffffffffffffffffffffffffffffffffffffff841614801590610dc157506040517fc161c93f00000000000000000000000000000000000000000000000000000000815233600482015273ffffffffffffffffffffffffffffffffffffffff848116602483015260448201849052606482018390527f0000000000000000000000000000000000000000000000000000000000000000169063c161c93f9060840160206040518083038186803b158015610d8757600080fd5b505afa158015610d9b573d6000803e3d6000fd5b505050506040513d601f19601f82011682018060405250810190610dbf919061480f565b155b8015610e9d57506040517fc161c93f00000000000000000000000000000000000000000000000000000000815233600482015273ffffffffffffffffffffffffffffffffffffffff848116602483015260006044830152606482018390527f0000000000000000000000000000000000000000000000000000000000000000169063c161c93f9060840160206040518083038186803b158015610e6357600080fd5b505afa158015610e77573d6000803e3d6000fd5b505050506040513d601f19601f82011682018060405250810190610e9b919061480f565b155b15610ed4576040517f075fd2b100000000000000000000000000000000000000000000000000000000815260040160405180910390fd5b6040517f43a266c2000000000000000000000000000000000000000000000000000000008152600481018790526000907f000000000000000000000000000000000000000000000000000000000000000073ffffffffffffffffffffffffffffffffffffffff16906343a266c2906024016101206040518083038186803b158015610f5e57600080fd5b505afa158015610f72573d6000803e3d6000fd5b505050506040513d601f19601f82011682018060405250810190610f96919061494b565b610100810151909150603d1c600190811614610fde576040517f2ebc601300000000000000000000000000000000000000000000000000000000815260040160405180910390fd5b6040517f57e4c7780000000000000000000000000000000000000000000000000000000081526004810188905273ffffffffffffffffffffffffffffffffffffffff878116602483015286811660448301527f000000000000000000000000000000000000000000000000000000000000000016906357e4c77890606401602060405180830381600087803b15801561107657600080fd5b505af115801561108a573d6000803e3d6000fd5b505050506040513d601f19601f820116820180604052508101906110ae919061458b565b50506001600055505050505050565b6040517f5dd8f6aa00000000000000000000000000000000000000000000000000000000815260048101839052309073ffffffffffffffffffffffffffffffffffffffff7f00000000000000000000000000000000000000000000000000000000000000001690635dd8f6aa9060240160206040518083038186803b15801561114557600080fd5b505afa158015611159573d6000803e3d6000fd5b505050506040513d601f19601f8201168201806040525081019061117d919061458b565b73ffffffffffffffffffffffffffffffffffffffff1614156111cb576040517ffc2ce25a00000000000000000000000000000000000000000000000000000000815260040160405180910390fd5b6040517f75b0d9cd000000000000000000000000000000000000000000000000000000008152600481018390527f000000000000000000000000000000000000000000000000000000000000000073ffffffffffffffffffffffffffffffffffffffff16906375b0d9cd9060240160206040518083038186803b15801561125157600080fd5b505afa158015611265573d6000803e3d6000fd5b505050506040513d601f19601f8201168201806040525081019061128991906149cb565b6000928352600160205260409092209190915550565b6040517f6352211e000000000000000000000000000000000000000000000000000000008152600481018390527f000000000000000000000000000000000000000000000000000000000000000073ffffffffffffffffffffffffffffffffffffffff1690636352211e9060240160206040518083038186803b15801561132557600080fd5b505afa158015611339573d6000803e3d6000fd5b505050506040513d601f19601f8201168201806040525081019061135d919061458b565b8260033373ffffffffffffffffffffffffffffffffffffffff84161480159061145657506040517fc161c93f00000000000000000000000000000000000000000000000000000000815233600482015273ffffffffffffffffffffffffffffffffffffffff848116602483015260448201849052606482018390527f0000000000000000000000000000000000000000000000000000000000000000169063c161c93f9060840160206040518083038186803b15801561141c57600080fd5b505afa158015611430573d6000803e3d6000fd5b505050506040513d601f19601f82011682018060405250810190611454919061480f565b155b801561153257506040517fc161c93f00000000000000000000000000000000000000000000000000000000815233600482015273ffffffffffffffffffffffffffffffffffffffff848116602483015260006044830152606482018390527f0000000000000000000000000000000000000000000000000000000000000000169063c161c93f9060840160206040518083038186803b1580156114f857600080fd5b505afa15801561150c573d6000803e3d6000fd5b505050506040513d601f19601f82011682018060405250810190611530919061480f565b155b15611569576040517f075fd2b100000000000000000000000000000000000000000000000000000000815260040160405180910390fd5b600260005414156115d6576040517f08c379a000000000000000000000000000000000000000000000000000000000815260206004820152601f60248201527f5265656e7472616e637947756172643a207265656e7472616e742063616c6c006044820152606401610553565b60026000556040517f5dd8f6aa00000000000000000000000000000000000000000000000000000000815260048101869052309073ffffffffffffffffffffffffffffffffffffffff7f00000000000000000000000000000000000000000000000000000000000000001690635dd8f6aa9060240160206040518083038186803b15801561166357600080fd5b505afa158015611677573d6000803e3d6000fd5b505050506040513d601f19601f8201168201806040525081019061169b919061458b565b73ffffffffffffffffffffffffffffffffffffffff16146116e8576040517f14a80ba900000000000000000000000000000000000000000000000000000000815260040160405180910390fd5b6040517f43a266c2000000000000000000000000000000000000000000000000000000008152600481018690526000907f000000000000000000000000000000000000000000000000000000000000000073ffffffffffffffffffffffffffffffffffffffff16906343a266c2906024016101206040518083038186803b15801561177257600080fd5b505afa158015611786573d6000803e3d6000fd5b505050506040513d601f19601f820116820180604052508101906117aa919061494b565b610100810151909150603f1c6001908116146117f2576040517f46ace3f900000000000000000000000000000000000000000000000000000000815260040160405180910390fd5b6040517f75b0d9cd000000000000000000000000000000000000000000000000000000008152600481018790527f000000000000000000000000000000000000000000000000000000000000000073ffffffffffffffffffffffffffffffffffffffff16906375b0d9cd9060240160206040518083038186803b15801561187857600080fd5b505afa15801561188c573d6000803e3d6000fd5b505050506040513d601f19601f820116820180604052508101906118b091906149cb565b600087815260016020526040902054146118df576118dd86604051806020016040528060008152506131ba565b505b6040517f3e8c615b0000000000000000000000000000000000000000000000000000000081526004810187905230602482015273ffffffffffffffffffffffffffffffffffffffff861690633e8c615b90604401600060405180830381600087803b15801561194d57600080fd5b505af1158015611961573d6000803e3d6000fd5b50506040517f714e7f320000000000000000000000000000000000000000000000000000000081526004810189905273ffffffffffffffffffffffffffffffffffffffff88811660248301527f000000000000000000000000000000000000000000000000000000000000000016925063714e7f329150604401600060405180830381600087803b1580156119f557600080fd5b505af1158015611a09573d6000803e3d6000fd5b50506040805173ffffffffffffffffffffffffffffffffffffffff891681523360208201528993507f01f954abace731a88ab86e71186040cc2be49fe517ea06bc0d24f25b82b8345692500160405180910390a25050600160005550505050565b6040517f666d87a000000000000000000000000000000000000000000000000000000000815260009073ffffffffffffffffffffffffffffffffffffffff7f0000000000000000000000000000000000000000000000000000000000000000169063666d87a090611ae1908c908c90600401614e17565b602060405180830381600087803b158015611afb57600080fd5b505af1158015611b0f573d6000803e3d6000fd5b505050506040513d601f19601f82011682018060405250810190611b3391906149cb565b6040517f714e7f32000000000000000000000000000000000000000000000000000000008152600481018290523060248201529091507f000000000000000000000000000000000000000000000000000000000000000073ffffffffffffffffffffffffffffffffffffffff169063714e7f3290604401600060405180830381600087803b158015611bc457600080fd5b505af1158015611bd8573d6000803e3d6000fd5b50505050611bea818888888888613577565b50815115611c99576040517f1cda3bfe00000000000000000000000000000000000000000000000000000000815273ffffffffffffffffffffffffffffffffffffffff7f00000000000000000000000000000000000000000000000000000000000000001690631cda3bfe90611c669084908690600401615048565b600060405180830381600087803b158015611c8057600080fd5b505af1158015611c94573d6000803e3d6000fd5b505050505b98975050505050505050565b6040517f6352211e000000000000000000000000000000000000000000000000000000008152600481018790526000907f000000000000000000000000000000000000000000000000000000000000000073ffffffffffffffffffffffffffffffffffffffff1690636352211e9060240160206040518083038186803b158015611d2e57600080fd5b505afa158015611d42573d6000803e3d6000fd5b505050506040513d601f19601f82011682018060405250810190611d66919061458b565b8760013373ffffffffffffffffffffffffffffffffffffffff841614801590611e5f57506040517fc161c93f00000000000000000000000000000000000000000000000000000000815233600482015273ffffffffffffffffffffffffffffffffffffffff848116602483015260448201849052606482018390527f0000000000000000000000000000000000000000000000000000000000000000169063c161c93f9060840160206040518083038186803b158015611e2557600080fd5b505afa158015611e39573d6000803e3d6000fd5b505050506040513d601f19601f82011682018060405250810190611e5d919061480f565b155b8015611f3b57506040517fc161c93f00000000000000000000000000000000000000000000000000000000815233600482015273ffffffffffffffffffffffffffffffffffffffff848116602483015260006044830152606482018390527f0000000000000000000000000000000000000000000000000000000000000000169063c161c93f9060840160206040518083038186803b158015611f0157600080fd5b505afa158015611f15573d6000803e3d6000fd5b505050506040513d601f19601f82011682018060405250810190611f39919061480f565b155b15611f72576040517f075fd2b100000000000000000000000000000000000000000000000000000000815260040160405180910390fd5b611f808a8a8a8a8a8a613577565b9a9950505050505050505050565b6040517f6352211e000000000000000000000000000000000000000000000000000000008152600481018890526000907f000000000000000000000000000000000000000000000000000000000000000073ffffffffffffffffffffffffffffffffffffffff1690636352211e9060240160206040518083038186803b15801561201757600080fd5b505afa15801561202b573d6000803e3d6000fd5b505050506040513d601f19601f8201168201806040525081019061204f919061458b565b8860013373ffffffffffffffffffffffffffffffffffffffff84161480159061214857506040517fc161c93f00000000000000000000000000000000000000000000000000000000815233600482015273ffffffffffffffffffffffffffffffffffffffff848116602483015260448201849052606482018390527f0000000000000000000000000000000000000000000000000000000000000000169063c161c93f9060840160206040518083038186803b15801561210e57600080fd5b505afa158015612122573d6000803e3d6000fd5b505050506040513d601f19601f82011682018060405250810190612146919061480f565b155b801561222457506040517fc161c93f00000000000000000000000000000000000000000000000000000000815233600482015273ffffffffffffffffffffffffffffffffffffffff848116602483015260006044830152606482018390527f0000000000000000000000000000000000000000000000000000000000000000169063c161c93f9060840160206040518083038186803b1580156121ea57600080fd5b505afa1580156121fe573d6000803e3d6000fd5b505050506040513d601f19601f82011682018060405250810190612222919061480f565b155b1561225b576040517f075fd2b100000000000000000000000000000000000000000000000000000000815260040160405180910390fd5b6040517f2cee6deb000000000000000000000000000000000000000000000000000000008152600481018c90527f000000000000000000000000000000000000000000000000000000000000000073ffffffffffffffffffffffffffffffffffffffff1690632cee6deb9060240160206040518083038186803b1580156122e157600080fd5b505afa1580156122f5573d6000803e3d6000fd5b505050506040513d601f19601f8201168201806040525081019061231991906149cb565b15612350576040517fffd0bc1200000000000000000000000000000000000000000000000000000000815260040160405180910390fd5b6040517f714e7f32000000000000000000000000000000000000000000000000000000008152600481018c90523060248201527f000000000000000000000000000000000000000000000000000000000000000073ffffffffffffffffffffffffffffffffffffffff169063714e7f3290604401600060405180830381600087803b1580156123de57600080fd5b505af11580156123f2573d6000803e3d6000fd5b505050506124048b8b8b8b8b8b613577565b8551909450156124b5576040517f1cda3bfe00000000000000000000000000000000000000000000000000000000815273ffffffffffffffffffffffffffffffffffffffff7f00000000000000000000000000000000000000000000000000000000000000001690631cda3bfe90612482908e908990600401615048565b600060405180830381600087803b15801561249c57600080fd5b505af11580156124b0573d6000803e3d6000fd5b505050505b505050979650505050505050565b600060026000541415612532576040517f08c379a000000000000000000000000000000000000000000000000000000000815260206004820152601f60248201527f5265656e7472616e637947756172643a207265656e7472616e742063616c6c006044820152606401610553565b60026000556040517f6352211e000000000000000000000000000000000000000000000000000000008152600481018990527f000000000000000000000000000000000000000000000000000000000000000073ffffffffffffffffffffffffffffffffffffffff1690636352211e9060240160206040518083038186803b1580156125bd57600080fd5b505afa1580156125d1573d6000803e3d6000fd5b505050506040513d601f19601f820116820180604052508101906125f5919061458b565b6040517f6e49181f000000000000000000000000000000000000000000000000000000008152600481018a9052336024820152899060099073ffffffffffffffffffffffffffffffffffffffff7f00000000000000000000000000000000000000000000000000000000000000001690636e49181f9060440160206040518083038186803b15801561268657600080fd5b505afa15801561269a573d6000803e3d6000fd5b505050506040513d601f19601f820116820180604052508101906126be919061480f565b801580156126e257503373ffffffffffffffffffffffffffffffffffffffff851614155b80156127be57506040517fc161c93f00000000000000000000000000000000000000000000000000000000815233600482015273ffffffffffffffffffffffffffffffffffffffff858116602483015260448201859052606482018490527f0000000000000000000000000000000000000000000000000000000000000000169063c161c93f9060840160206040518083038186803b15801561278457600080fd5b505afa158015612798573d6000803e3d6000fd5b505050506040513d601f19601f820116820180604052508101906127bc919061480f565b155b801561289a57506040517fc161c93f00000000000000000000000000000000000000000000000000000000815233600482015273ffffffffffffffffffffffffffffffffffffffff858116602483015260006044830152606482018490527f0000000000000000000000000000000000000000000000000000000000000000169063c161c93f9060840160206040518083038186803b15801561286057600080fd5b505afa158015612874573d6000803e3d6000fd5b505050506040513d601f19601f82011682018060405250810190612898919061480f565b155b156128d1576040517f075fd2b100000000000000000000000000000000000000000000000000000000815260040160405180910390fd5b8a612908576040517f9fd13e5400000000000000000000000000000000000000000000000000000000815260040160405180910390fd5b6040517f43a266c2000000000000000000000000000000000000000000000000000000008152600481018d9052600090819073ffffffffffffffffffffffffffffffffffffffff7f000000000000000000000000000000000000000000000000000000000000000016906343a266c2906024016101206040518083038186803b15801561299457600080fd5b505afa1580156129a8573d6000803e3d6000fd5b505050506040513d601f19601f820116820180604052508101906129cc919061494b565b610100810151909150603b1c6001908116148015612aab57506040517f6e49181f000000000000000000000000000000000000000000000000000000008152600481018f905233602482015273ffffffffffffffffffffffffffffffffffffffff7f00000000000000000000000000000000000000000000000000000000000000001690636e49181f9060440160206040518083038186803b158015612a7157600080fd5b505afa158015612a85573d6000803e3d6000fd5b505050506040513d601f19601f82011682018060405250810190612aa9919061480f565b155b15612ae2576040517f8c5fb46100000000000000000000000000000000000000000000000000000000815260040160405180910390fd5b87612aee576000612afc565b61010081015160081c61ffff165b915050612710811415612b375760008d815260016020526040902054612b23908d90615453565b60008e815260016020526040902055612c45565b612b4f8c612b47836127106154c7565b612710613ad5565b95507f000000000000000000000000000000000000000000000000000000000000000073ffffffffffffffffffffffffffffffffffffffff1663ceddd3e48c8f898c6040518563ffffffff1660e01b8152600401612be0949392919073ffffffffffffffffffffffffffffffffffffffff949094168452602084019290925260408301521515606082015260800190565b600060405180830381600087803b158015612bfa57600080fd5b505af1158015612c0e573d6000803e3d6000fd5b505050508060001415612c455760008d815260016020526040902054612c359087906153c7565b60008e8152600160205260409020555b8b8d8c73ffffffffffffffffffffffffffffffffffffffff167f795e99b6853d7eafe7c0ccc6fb02e87770a8284e2be638ef327b6347587bde2c8d8d8633604051612c939493929190614f7b565b60405180910390a45050600160005550919998505050505050505050565b6040517f6352211e000000000000000000000000000000000000000000000000000000008152600481018690526000907f000000000000000000000000000000000000000000000000000000000000000073ffffffffffffffffffffffffffffffffffffffff1690636352211e9060240160206040518083038186803b158015612d3a57600080fd5b505afa158015612d4e573d6000803e3d6000fd5b505050506040513d601f19601f82011682018060405250810190612d72919061458b565b8660073373ffffffffffffffffffffffffffffffffffffffff841614801590612e6b57506040517fc161c93f00000000000000000000000000000000000000000000000000000000815233600482015273ffffffffffffffffffffffffffffffffffffffff848116602483015260448201849052606482018390527f0000000000000000000000000000000000000000000000000000000000000000169063c161c93f9060840160206040518083038186803b158015612e3157600080fd5b505afa158015612e45573d6000803e3d6000fd5b505050506040513d601f19601f82011682018060405250810190612e69919061480f565b155b8015612f4757506040517fc161c93f00000000000000000000000000000000000000000000000000000000815233600482015273ffffffffffffffffffffffffffffffffffffffff848116602483015260006044830152606482018390527f0000000000000000000000000000000000000000000000000000000000000000169063c161c93f9060840160206040518083038186803b158015612f0d57600080fd5b505afa158015612f21573d6000803e3d6000fd5b505050506040513d601f19601f82011682018060405250810190612f45919061480f565b155b15612f7e576040517f075fd2b100000000000000000000000000000000000000000000000000000000815260040160405180910390fd5b6040517fa7f2a70b00000000000000000000000000000000000000000000000000000000815273ffffffffffffffffffffffffffffffffffffffff7f0000000000000000000000000000000000000000000000000000000000000000169063a7f2a70b90612ff8908c908c908c908c908c906004016150e0565b602060405180830381600087803b15801561301257600080fd5b505af1158015613026573d6000803e3d6000fd5b505050506040513d601f19601f8201168201806040525081019061304a919061458b565b9998505050505050505050565b6000600260005414156130c6576040517f08c379a000000000000000000000000000000000000000000000000000000000815260206004820152601f60248201527f5265656e7472616e637947756172643a207265656e7472616e742063616c6c006044820152606401610553565b60026000556130d583836131ba565b60016000559392505050565b6000828152600160205260408082205490517f75b0d9cd000000000000000000000000000000000000000000000000000000008152600481018590526104e3919084907f000000000000000000000000000000000000000000000000000000000000000073ffffffffffffffffffffffffffffffffffffffff16906375b0d9cd9060240160206040518083038186803b15801561317d57600080fd5b505afa158015613191573d6000803e3d6000fd5b505050506040513d601f19601f820116820180604052508101906131b591906149cb565b613bda565b6040517f43a266c200000000000000000000000000000000000000000000000000000000815260048101839052600090819073ffffffffffffffffffffffffffffffffffffffff7f000000000000000000000000000000000000000000000000000000000000000016906343a266c2906024016101206040518083038186803b15801561324657600080fd5b505afa15801561325a573d6000803e3d6000fd5b505050506040513d601f19601f8201168201806040525081019061327e919061494b565b6040517f75b0d9cd0000000000000000000000000000000000000000000000000000000081526004810186905290915060009073ffffffffffffffffffffffffffffffffffffffff7f000000000000000000000000000000000000000000000000000000000000000016906375b0d9cd9060240160206040518083038186803b15801561330a57600080fd5b505afa15801561331e573d6000803e3d6000fd5b505050506040513d601f19601f8201168201806040525081019061334291906149cb565b60008681526001602052604090205461010084015191925061336b9160081c61ffff1683613bda565b9250613377838261543b565b6000868152600160205260408082209290925590517f6352211e000000000000000000000000000000000000000000000000000000008152600481018790527f000000000000000000000000000000000000000000000000000000000000000073ffffffffffffffffffffffffffffffffffffffff1690636352211e9060240160206040518083038186803b15801561340f57600080fd5b505afa158015613423573d6000803e3d6000fd5b505050506040513d601f19601f82011682018060405250810190613447919061458b565b9050600084156134615761345c878587613c54565b613464565b60005b90508015613523576040517fceddd3e400000000000000000000000000000000000000000000000000000000815273ffffffffffffffffffffffffffffffffffffffff83811660048301526024820189905260448201839052600060648301527f0000000000000000000000000000000000000000000000000000000000000000169063ceddd3e490608401600060405180830381600087803b15801561350a57600080fd5b505af115801561351e573d6000803e3d6000fd5b505050505b86846000015185602001517fb12d7a78048433f69fe6d30145bf08aad8e82985b96e4db6d5c6a7e94d57086e8589868c33604051613565959493929190614ec2565b60405180910390a45050505092915050565b6000612710853511156135b6576040517f5623289500000000000000000000000000000000000000000000000000000000815260040160405180910390fd5b612710856020013511156135f6576040517f9db9ee9300000000000000000000000000000000000000000000000000000000815260040160405180910390fd5b61271085604001351115613636576040517fddbf1bc600000000000000000000000000000000000000000000000000000000815260040160405180910390fd5b600073ffffffffffffffffffffffffffffffffffffffff7f00000000000000000000000000000000000000000000000000000000000000001663a249d425898961368d613688368c90038c018c61482c565b614083565b896040518563ffffffff1660e01b81526004016136ad949392919061510d565b61012060405180830381600087803b1580156136c857600080fd5b505af11580156136dc573d6000803e3d6000fd5b505050506040513d601f19601f82011682018060405250810190613700919061494b565b905060005b8451811015613817576000858281518110613722576137226155ae565b602002602001015160200151511115613805577f000000000000000000000000000000000000000000000000000000000000000073ffffffffffffffffffffffffffffffffffffffff16639acff5ac8a8460200151888581518110613789576137896155ae565b6020026020010151600001518986815181106137a7576137a76155ae565b6020026020010151602001516040518563ffffffff1660e01b81526004016137d2949392919061516e565b600060405180830381600087803b1580156137ec57600080fd5b505af1158015613800573d6000803e3d6000fd5b505050505b8061380f816154de565b915050613705565b5060005b8351811015613ac3576000848281518110613838576138386155ae565b602002602001015190507effffffffffffffffffffffffffffffffffffffffffffffffffffffffffffff8016816020015111156138a1576040517f95c96c6a00000000000000000000000000000000000000000000000000000000815260040160405180910390fd5b604081015160ff10156138e0576040517ff90c7b4b00000000000000000000000000000000000000000000000000000000815260040160405180910390fd5b60608101517effffffffffffffffffffffffffffffffffffffffffffffffffffffffffffff101561393d576040517fb5f8759400000000000000000000000000000000000000000000000000000000815260040160405180910390fd5b608081015160ff101561397c576040517f90af4da600000000000000000000000000000000000000000000000000000000815260040160405180910390fd5b6020810151156139d55760408181015160208084015160008e8152600283528481208884015182528352848120865173ffffffffffffffffffffffffffffffffffffffff16825290925292902060f89190911b90911790555b606081015115613a2e576080810151606082015160008c81526003602090815260408083208883015184528252808320865173ffffffffffffffffffffffffffffffffffffffff168452909152902060f89290921b1790555b825160208085015160408051855173ffffffffffffffffffffffffffffffffffffffff1681528584015193810193909352808501519083015260608085015190830152608080850151908301523360a08301528c92917e506dbcdf2e70275bf246b8f39ca18ebea55b7253498928a3de5c5bae26bd849060c00160405180910390a45080613abb816154de565b91505061381b565b506020015190505b9695505050505050565b600080807fffffffffffffffffffffffffffffffffffffffffffffffffffffffffffffffff8587098587029250828110838203039150508060001415613b2e57838281613b2457613b2461557f565b04925050506104e3565b838110613b71576040517f773cc18c0000000000000000000000000000000000000000000000000000000081526004810182905260248101859052604401610553565b60008486880960026001871981018816978890046003810283188082028403028082028403028082028403028082028403028082028403029081029092039091026000889003889004909101858311909403939093029303949094049190911702949350505050565b6000806000851215613bfe57613bef85615517565b613bf9908461543b565b613c08565b613c0885846154c7565b905080613c195760009150506104e3565b612710841415613c2a5790506104e3565b80613c4181612710613c3c88826154c7565b613ad5565b613c4b91906154c7565b95945050505050565b60208201516040517f69e11cc50000000000000000000000000000000000000000000000000000000081526004810185905260248101919091526002604482015281906000907f000000000000000000000000000000000000000000000000000000000000000073ffffffffffffffffffffffffffffffffffffffff16906369e11cc59060640160006040518083038186803b158015613cf357600080fd5b505afa158015613d07573d6000803e3d6000fd5b505050506040513d6000823e601f3d9081017fffffffffffffffffffffffffffffffffffffffffffffffffffffffffffffffe0168201604052613d4d9190810190614713565b905060005b815181101561407a576000828281518110613d6f57613d6f6155ae565b602002602001015190506000613d8e868360200151633b9aca00613ad5565b9050801561401f5760a082015173ffffffffffffffffffffffffffffffffffffffff7f000000000000000000000000000000000000000000000000000000000000000081169163ceddd3e49116613ee0576040840151613e1757606084015173ffffffffffffffffffffffffffffffffffffffff16613e0d5733613ee6565b8360600151613ee6565b60408481015190517f6352211e00000000000000000000000000000000000000000000000000000000815260048101919091527f000000000000000000000000000000000000000000000000000000000000000073ffffffffffffffffffffffffffffffffffffffff1690636352211e9060240160206040518083038186803b158015613ea357600080fd5b505afa158015613eb7573d6000803e3d6000fd5b505050506040513d601f19601f82011682018060405250810190613edb919061458b565b613ee6565b8360a001515b845160405160e084901b7fffffffff0000000000000000000000000000000000000000000000000000000016815273ffffffffffffffffffffffffffffffffffffffff9092166004830152602482018c90526044820185905215156064820152608401600060405180830381600087803b158015613f6357600080fd5b505af1158015613f77573d6000803e3d6000fd5b5050505060a082015173ffffffffffffffffffffffffffffffffffffffff1615614012578160a0015173ffffffffffffffffffffffffffffffffffffffff1663550b0432828a6002866040518563ffffffff1660e01b8152600401613fdf9493929190615227565b600060405180830381600087803b158015613ff957600080fd5b505af115801561400d573d6000803e3d6000fd5b505050505b61401c81866154c7565b94505b87876000015188602001517f08b272f627530027641b54430e5e88cf4de5feb60e3df46d714a426e3cabb99f85853360405161405d93929190614fbc565b60405180910390a450508080614072906154de565b915050613d52565b50509392505050565b8051602082015160089190911b600117906018906140a3906127106154c7565b901b81179050602882604001516127106140bd91906154c7565b901b811790508160600151156140d857670100000000000000175b8160800151156140ed57670200000000000000175b8160a001511561410257670400000000000000175b8160c001511561411757670800000000000000175b8160e001511561412c57671000000000000000175b8161010001511561414257672000000000000000175b8161012001511561415857674000000000000000175b8161014001511561416e57678000000000000000175b816101600151156141855768010000000000000000175b8161018001511561419c5768020000000000000000175b816101a00151156141b35768040000000000000000175b816101c00151156141ca5768080000000000000000175b6101e0919091015160441b7c0ffffffffffffffffffffffffffffffffffffffff00000000000000000161790565b80356142038161560c565b919050565b600082601f83011261421957600080fd5b8135602061422e614229836153a3565b615354565b80838252828201915082860187848660051b890101111561424e57600080fd5b60005b858110156142765781356142648161560c565b84529284019290840190600101614251565b5090979650505050505050565b600082601f83011261429457600080fd5b813560206142a4614229836153a3565b8281528181019085830160a0808602880185018910156142c357600080fd5b6000805b8781101561432a5782848c0312156142dd578182fd5b6142e561529d565b84356142f08161560c565b81528488013588820152604080860135908201526060808601359082015260808086013590820152865294860194928201926001016142c7565b50929998505050505050505050565b600082601f83011261434a57600080fd5b602061435961422984356153a3565b808435825282820191508285018684873560051b880101111561437b57600080fd5b60005b86358110156144e35767ffffffffffffffff808335111561439e57600080fd5b8235880160407fffffffffffffffffffffffffffffffffffffffffffffffffffffffffffffffe0828c030112156143d457600080fd5b6143dc6152c6565b87820135815282604083013511156143f357600080fd5b6040820135820192508a603f84011261440b57600080fd5b87830135915061441d614229836153a3565b808382528982019150604085018d604060c08702880101111561443f57600080fd5b600095505b848610156144c95760c0818f03121561445c57600080fd5b6144646152e9565b61446e8235615631565b813581528b8201358c8201526040820135604082015260608201356144928161560c565b60608201526080828101359082015260a08201356144af8161560c565b60a0820152835260019590950194918a019160c001614444565b50828a01525086525050928401929084019060010161437e565b50909695505050505050565b803561420381615631565b80516142038161560c565b60008083601f84011261451757600080fd5b50813567ffffffffffffffff81111561452f57600080fd5b60208301915083602082850101111561454757600080fd5b9250929050565b60006080828403121561456057600080fd5b50919050565b6000610200828403121561456057600080fd5b60006040828403121561456057600080fd5b60006020828403121561459d57600080fd5b81516104e38161560c565b600080600080600080600080610340898b0312156145c557600080fd5b6145ce896141f8565b9750602089013567ffffffffffffffff808211156145eb57600080fd5b6145f78c838d01614579565b98506146068c60408d0161454e565b97506146158c60c08d01614566565b96506102c08b013595506102e08b013591508082111561463457600080fd5b6146408c838d01614339565b94506103008b013591508082111561465757600080fd5b6146638c838d01614283565b93506103208b013591508082111561467a57600080fd5b506146878b828c01614208565b9150509295985092959890939650565b60008060008060008060a087890312156146b057600080fd5b86356146bb8161560c565b95506020870135945060408701359350606087013567ffffffffffffffff8111156146e557600080fd5b6146f189828a01614505565b909450925050608087013561470581615631565b809150509295509295509295565b6000602080838503121561472657600080fd5b825167ffffffffffffffff81111561473d57600080fd5b8301601f8101851361474e57600080fd5b805161475c614229826153a3565b8181528381019083850160c0808502860187018a101561477b57600080fd5b60009550855b858110156148005781838c031215614797578687fd5b61479f6152e9565b83516147aa81615631565b81528389015189820152604080850151908201526060808501516147cd8161560c565b908201526080848101519082015260a0808501516147ea8161560c565b9082015285529387019391810191600101614781565b50919998505050505050505050565b60006020828403121561482157600080fd5b81516104e381615631565b6000610200828403121561483f57600080fd5b61484761530c565b82358152602083013560208201526040830135604082015261486b606084016144ef565b606082015261487c608084016144ef565b608082015261488d60a084016144ef565b60a082015261489e60c084016144ef565b60c08201526148af60e084016144ef565b60e08201526101006148c28185016144ef565b908201526101206148d48482016144ef565b908201526101406148e68482016144ef565b908201526101606148f88482016144ef565b9082015261018061490a8482016144ef565b908201526101a061491c8482016144ef565b908201526101c061492e8482016144ef565b908201526101e06149408482016141f8565b908201529392505050565b6000610120828403121561495e57600080fd5b614966615330565b825181526020830151602082015260408301516040820152606083015160608201526080830151608082015260a083015160a082015260c083015160c08201526149b260e084016144fa565b60e0820152610100928301519281019290925250919050565b6000602082840312156149dd57600080fd5b5051919050565b600080604083850312156149f757600080fd5b823591506020830135614a098161560c565b809150509250929050565b600080600060608486031215614a2957600080fd5b833592506020840135614a3b8161560c565b91506040840135614a4b8161560c565b809150509250925092565b600080600080600060608688031215614a6e57600080fd5b85359450602086013567ffffffffffffffff80821115614a8d57600080fd5b614a9989838a01614505565b90965094506040880135915080821115614ab257600080fd5b50614abf88828901614505565b969995985093965092949392505050565b60008060408385031215614ae357600080fd5b8235915060208084013567ffffffffffffffff80821115614b0357600080fd5b818601915086601f830112614b1757600080fd5b813581811115614b2957614b296155dd565b614b59847fffffffffffffffffffffffffffffffffffffffffffffffffffffffffffffffe0601f84011601615354565b91508082528784828501011115614b6f57600080fd5b80848401858401376000848284010152508093505050509250929050565b6000806000806000806103008789031215614ba757600080fd5b86359550614bb8886020890161454e565b9450614bc78860a08901614566565b93506102a087013592506102c087013567ffffffffffffffff80821115614bed57600080fd5b614bf98a838b01614339565b93506102e0890135915080821115614c1057600080fd5b50614c1d89828a01614283565b9150509295509295509295565b6000806000806000806000610320888a031215614c4657600080fd5b87359650614c578960208a0161454e565b9550614c668960a08a01614566565b94506102a088013593506102c088013567ffffffffffffffff80821115614c8c57600080fd5b614c988b838c01614339565b94506102e08a0135915080821115614caf57600080fd5b614cbb8b838c01614283565b93506103008a0135915080821115614cd257600080fd5b50614cdf8a828b01614208565b91505092959891949750929550565b60008060408385031215614d0157600080fd5b50508035926020909101359150565b600080600080600080600060c0888a031215614d2b57600080fd5b87359650602088013595506040880135614d448161560c565b9450606088013567ffffffffffffffff811115614d6057600080fd5b614d6c8a828b01614505565b9095509350506080880135614d8081615631565b915060a0880135614d9081615631565b8091505092959891949750929550565b600080600060608486031215614db557600080fd5b83359250602084013591506040840135614a4b8161560c565b8183528181602085013750600060208284010152600060207fffffffffffffffffffffffffffffffffffffffffffffffffffffffffffffffe0601f840116840101905092915050565b73ffffffffffffffffffffffffffffffffffffffff8316815260406020820152600082357fffffffffffffffffffffffffffffffffffffffffffffffffffffffffffffffe1843603018112614e6b57600080fd5b8301803567ffffffffffffffff811115614e8457600080fd5b803603851315614e9357600080fd5b604080850152614eaa608085018260208501614dce565b91505060208401356060840152809150509392505050565b73ffffffffffffffffffffffffffffffffffffffff8616815260006020868184015285604084015260a0606084015284518060a085015260005b81811015614f185786810183015185820160c001528201614efc565b81811115614f2a57600060c083870101525b50601f017fffffffffffffffffffffffffffffffffffffffffffffffffffffffffffffffe016830160c0019150613acb9050608083018473ffffffffffffffffffffffffffffffffffffffff169052565b606081526000614f8f606083018688614dce565b905083602083015273ffffffffffffffffffffffffffffffffffffffff8316604083015295945050505050565b610100810161501e82868051151582526020810151602083015260408101516040830152606081015173ffffffffffffffffffffffffffffffffffffffff8082166060850152608083015160808501528060a08401511660a085015250505050565b8360c083015273ffffffffffffffffffffffffffffffffffffffff831660e0830152949350505050565b6000604082018483526020604081850152818551808452606086019150828701935060005b8181101561427657845173ffffffffffffffffffffffffffffffffffffffff168352938301939183019160010161506d565b8481526060602082015260006150b9606083018587614dce565b905073ffffffffffffffffffffffffffffffffffffffff8316604083015295945050505050565b8581526060602082015260006150fa606083018688614dce565b8281036040840152611c99818587614dce565b600060e08201905085825284356020830152602085013560408301526040850135606083015260608501356151418161560c565b73ffffffffffffffffffffffffffffffffffffffff16608083015260a082019390935260c0015292915050565b600060808201868352602086818501528560408501526080606085015281855180845260a086019150828701935060005b81811015615218576152058386518051151582526020810151602083015260408101516040830152606081015173ffffffffffffffffffffffffffffffffffffffff8082166060850152608083015160808501528060a08401511660a085015250505050565b9383019360c0929092019160010161519f565b50909998505050505050505050565b84815260208101849052604081018390526101208101613c4b60608301848051151582526020810151602083015260408101516040830152606081015173ffffffffffffffffffffffffffffffffffffffff8082166060850152608083015160808501528060a08401511660a085015250505050565b60405160a0810167ffffffffffffffff811182821017156152c0576152c06155dd565b60405290565b6040805190810167ffffffffffffffff811182821017156152c0576152c06155dd565b60405160c0810167ffffffffffffffff811182821017156152c0576152c06155dd565b604051610200810167ffffffffffffffff811182821017156152c0576152c06155dd565b604051610120810167ffffffffffffffff811182821017156152c0576152c06155dd565b604051601f82017fffffffffffffffffffffffffffffffffffffffffffffffffffffffffffffffe016810167ffffffffffffffff8111828210171561539b5761539b6155dd565b604052919050565b600067ffffffffffffffff8211156153bd576153bd6155dd565b5060051b60200190565b6000808212827f7fffffffffffffffffffffffffffffffffffffffffffffffffffffffffffffff0384138115161561540157615401615550565b827f800000000000000000000000000000000000000000000000000000000000000003841281161561543557615435615550565b50500190565b6000821982111561544e5761544e615550565b500190565b6000808312837f80000000000000000000000000000000000000000000000000000000000000000183128115161561548d5761548d615550565b837f7fffffffffffffffffffffffffffffffffffffffffffffffffffffffffffffff0183138116156154c1576154c1615550565b50500390565b6000828210156154d9576154d9615550565b500390565b60007fffffffffffffffffffffffffffffffffffffffffffffffffffffffffffffffff82141561551057615510615550565b5060010190565b60007f800000000000000000000000000000000000000000000000000000000000000082141561554957615549615550565b5060000390565b7f4e487b7100000000000000000000000000000000000000000000000000000000600052601160045260246000fd5b7f4e487b7100000000000000000000000000000000000000000000000000000000600052601260045260246000fd5b7f4e487b7100000000000000000000000000000000000000000000000000000000600052603260045260246000fd5b7f4e487b7100000000000000000000000000000000000000000000000000000000600052604160045260246000fd5b73ffffffffffffffffffffffffffffffffffffffff8116811461562e57600080fd5b50565b801515811461562e57600080fdfea26469706673582212204b0957b9342bd62f39fc29707ea6b7c169c170199965a170b4e58c5500bec2ed64736f6c63430008060033",
  "devdoc": {
    "details": "A project can transfer control from this contract to another allowed controller contract at any time. Inherits from: IJBController - general interface for the generic controller methods in this contract that interacts with funding cycles and tokens according to the Juicebox protocol's rules. JBOperatable - several functions in this contract can only be accessed by a project owner, or an address that has been preconfifigured to be an operator of the project. ReentrencyGuard - several function in this contract shouldn't be accessible recursively.",
    "kind": "dev",
    "methods": {
      "burnTokensOf(address,uint256,uint256,string,bool)": {
        "details": "Only a token's holder, a designated operator, or a project's terminal's delegate can burn it.",
        "params": {
          "_holder": "The account that is having its tokens burned.",
          "_memo": "A memo to pass along to the emitted event.",
          "_preferClaimedTokens": "A flag indicating whether ERC20's should be burned first if they have been issued.",
          "_projectId": "The ID of the project to which the tokens being burned belong.",
          "_tokenCount": "The number of tokens to burn."
        }
      },
      "changeTokenOf(uint256,address,address)": {
        "details": "Only a project owner or operator can change its token.",
        "params": {
          "_newOwner": "An address to transfer the current token's ownership to. This is optional, but it cannot be done later.",
          "_projectId": "The ID of the project to which the changed token belongs.",
          "_token": "The new token."
        }
      },
      "constructor": {
        "params": {
          "_directory": "A contract storing directories of terminals and controllers for each project.",
          "_fundingCycleStore": "A contract storing all funding cycle configurations.",
          "_operatorStore": "A contract storing operator assignments.",
          "_projects": "A contract which mints ERC-721's that represent project ownership and transfers.",
          "_splitsStore": "A contract that stores splits for each project.",
          "_tokenStore": "A contract that manages token minting and burning."
        }
      },
      "distributeReservedTokensOf(uint256,string)": {
        "params": {
          "_memo": "A memo to pass along to the emitted event.",
          "_projectId": "The ID of the project to which the reserved tokens belong."
        },
        "returns": {
          "_0": "The amount of minted reserved tokens."
        }
      },
      "distributionLimitCurrencyOf(uint256,uint256,address)": {
        "params": {
          "_configuration": "The configuration during which the distribution limit currency applies.",
          "_projectId": "The ID of the project to get the distribution limit currency of.",
          "_terminal": "The terminal from which distributions are being limited."
        }
      },
      "distributionLimitOf(uint256,uint256,address)": {
        "params": {
          "_configuration": "The configuration during which the distribution limit applies.",
          "_projectId": "The ID of the project to get the distribution limit of.",
          "_terminal": "The terminal from which distributions are being limited."
        }
      },
      "issueTokenFor(uint256,string,string)": {
        "details": "Deploys a project's ERC-20 token contract.Only a project owner or operator can issue its token.",
        "params": {
          "_name": "The ERC-20's name.",
          "_projectId": "The ID of the project being issued tokens.",
          "_symbol": "The ERC-20's symbol."
        }
      },
      "launchFundingCycleFor(uint256,(uint256,uint256,uint256,address),(uint256,uint256,uint256,bool,bool,bool,bool,bool,bool,bool,bool,bool,bool,bool,bool,address),uint256,(uint256,(bool,uint256,uint256,address,uint256,address)[])[],(address,uint256,uint256,uint256,uint256)[],address[])": {
        "details": "Only a project owner or operator can launch its funding cycles.",
        "params": {
          "_data": "A JBFundingCycleData data structure that defines the project's first funding cycle. These properties will remain fixed for the duration of the funding cycle.",
          "_fundAccessConstraints": "An array containing amounts, in wei (18 decimals), that a project can use from its own overflow on-demand for each payment terminal.",
          "_groupedSplits": "An array of splits to set for any number of group. The core protocol makes use of groups defined in `JBSplitsGroups`.",
          "_metadata": "A JBFundingCycleMetadata data structure specifying the controller specific params that a funding cycle can have. These properties will remain fixed for the duration of the funding cycle.",
          "_mustStartAtOrAfter": "The time before which the configured funding cycle can't start.",
          "_projectId": "The ID of the project to launch funding cycles for.",
          "_terminals": "Payment terminals to add for the project."
        },
        "returns": {
          "configuration": "The configuration of the funding cycle that was successfully created."
        }
      },
      "launchProjectFor(address,(string,uint256),(uint256,uint256,uint256,address),(uint256,uint256,uint256,bool,bool,bool,bool,bool,bool,bool,bool,bool,bool,bool,bool,address),uint256,(uint256,(bool,uint256,uint256,address,uint256,address)[])[],(address,uint256,uint256,uint256,uint256)[],address[])": {
        "details": "Each operation within this transaction can be done in sequence separately.Anyone can deploy a project on an owner's behalf.",
        "params": {
          "_data": "A JBFundingCycleData data structure that defines the project's first funding cycle. These properties will remain fixed for the duration of the funding cycle.",
          "_fundAccessConstraints": "An array containing amounts, in wei (18 decimals), that a project can use from its own overflow on-demand for each payment terminal.",
          "_groupedSplits": "An array of splits to set for any number of group. The core protocol makes use of groups defined in `JBSplitsGroups`.",
          "_metadata": "A JBFundingCycleMetadata data structure specifying the controller specific params that a funding cycle can have. These properties will remain fixed for the duration of the funding cycle.",
          "_mustStartAtOrAfter": "The time before which the configured funding cycle can't start.",
          "_owner": "The address to set as the owner of the project. The project ERC-721 will be owned by this address.",
          "_projectMetadata": "A link to associate with the project within a particular domain. This can be updated any time by the owner of the project.",
          "_terminals": "Payment terminals to add for the project."
        },
        "returns": {
          "projectId": "The ID of the project."
        }
      },
      "migrate(uint256,address)": {
        "details": "Only a project's owner or a designated operator can migrate it.",
        "params": {
          "_projectId": "The ID of the project that will be migrated from this controller.",
          "_to": "The controller to which the project is migrating."
        }
      },
      "mintTokensOf(uint256,uint256,address,string,bool,bool)": {
        "details": "Only a project's owner, a designated operator, or one of its terminal's delegate can mint its tokens.",
        "params": {
          "_beneficiary": "The account that the tokens are being minted for.",
          "_memo": "A memo to pass along to the emitted event.",
          "_preferClaimedTokens": "A flag indicating whether ERC20's should be minted if they have been issued.",
          "_projectId": "The ID of the project to which the tokens being minted belong.",
          "_tokenCount": "The amount of tokens to mint.",
          "_useReservedRate": "Whether to use the current funding cycle's reserved rate in the mint calculation."
        },
        "returns": {
          "beneficiaryTokenCount": "The amount of tokens minted for the beneficiary."
        }
      },
      "overflowAllowanceCurrencyOf(uint256,uint256,address)": {
        "params": {
          "_configuration": "The configuration of the during which the allowance currency applies.",
          "_projectId": "The ID of the project to get the overflow allowance currency of.",
          "_terminal": "The terminal managing the overflow."
        }
      },
      "overflowAllowanceOf(uint256,uint256,address)": {
        "params": {
          "_configuration": "The configuration of the during which the allowance applies.",
          "_projectId": "The ID of the project to get the overflow allowance of.",
          "_terminal": "The terminal managing the overflow."
        }
      },
      "prepForMigrationOf(uint256,address)": {
        "params": {
          "_projectId": "The ID of the project that will be migrated to this controller."
        }
      },
      "reconfigureFundingCyclesOf(uint256,(uint256,uint256,uint256,address),(uint256,uint256,uint256,bool,bool,bool,bool,bool,bool,bool,bool,bool,bool,bool,bool,address),uint256,(uint256,(bool,uint256,uint256,address,uint256,address)[])[],(address,uint256,uint256,uint256,uint256)[])": {
        "details": "Only a project's owner or a designated operator can configure its funding cycles.",
        "params": {
          "_data": "A JBFundingCycleData data structure that defines the project's funding cycle that will be queued. These properties will remain fixed for the duration of the funding cycle.",
          "_fundAccessConstraints": "An array containing amounts, in wei (18 decimals), that a project can use from its own overflow on-demand for each payment terminal.",
          "_groupedSplits": "An array of splits to set for any number of group. The core protocol makes use of groups defined in `JBSplitsGroups`.",
          "_metadata": "A JBFundingCycleMetadata data structure specifying the controller specific params that a funding cycle can have. These properties will remain fixed for the duration of the funding cycle.",
          "_mustStartAtOrAfter": "The time before which the configured funding cycle can't start.",
          "_projectId": "The ID of the project whose funding cycles are being reconfigured."
        },
        "returns": {
          "_0": "The configuration of the funding cycle that was successfully reconfigured."
        }
      },
      "reservedTokenBalanceOf(uint256,uint256)": {
        "params": {
          "_projectId": "The ID of the project to get a reserved token balance of.",
          "_reservedRate": "The reserved rate to use when making the calculation."
        },
        "returns": {
          "_0": "The current amount of reserved tokens."
        }
      }
    },
    "stateVariables": {
      "_packedDistributionLimitDataOf": {
        "details": "bits 0-247: The amount of token that a project can withdraw per funding cycle.bits 248-255: The currency of amount that a project can withdraw. _projectId The ID of the project to get the packed distribution limit data of. _configuration The configuration during which the packed distribution limit data applies. _terminal The terminal from which distributions are being limited."
      },
      "_packedOverflowAllowanceDataOf": {
        "details": "bits 0-247: The amount of overflow that a project is allowed to tap into on-demand throughout configuration.bits 248-255: The currency of the amount of overflow that a project is allowed to tap. _projectId The ID of the project to get the packed overflow allowance data of. _configuration The configuration during which the packed overflow allowance data applies. _terminal The terminal managing the overflow."
      }
    },
    "version": 1
  },
  "userdoc": {
    "errors": {
      "PRBMath__MulDivOverflow(uint256,uint256)": [
        {
          "notice": "Emitted when the result overflows uint256."
        }
      ]
    },
    "kind": "user",
    "methods": {
      "burnTokensOf(address,uint256,uint256,string,bool)": {
        "notice": "Burns a token holder's supply."
      },
      "changeTokenOf(uint256,address,address)": {
        "notice": "Swap the current project's token that is minted and burned for another, and transfer ownership of the current token to another address if needed."
      },
      "directory()": {
        "notice": "The directory of terminals and controllers for projects."
      },
      "distributeReservedTokensOf(uint256,string)": {
        "notice": "Distributes all outstanding reserved tokens for a project."
      },
      "distributionLimitCurrencyOf(uint256,uint256,address)": {
        "notice": "The currency of the amount of that a project can withdraw per funding cycle."
      },
      "distributionLimitOf(uint256,uint256,address)": {
        "notice": "The amount of token that a project can withdraw per funding cycle."
      },
      "fundingCycleStore()": {
        "notice": "The contract storing all funding cycle configurations."
      },
      "issueTokenFor(uint256,string,string)": {
        "notice": "Issues an owner's ERC-20 Tokens that'll be used when claiming tokens."
      },
      "launchFundingCycleFor(uint256,(uint256,uint256,uint256,address),(uint256,uint256,uint256,bool,bool,bool,bool,bool,bool,bool,bool,bool,bool,bool,bool,address),uint256,(uint256,(bool,uint256,uint256,address,uint256,address)[])[],(address,uint256,uint256,uint256,uint256)[],address[])": {
        "notice": "Creates a funding cycle for an already existing project ERC-721."
      },
      "launchProjectFor(address,(string,uint256),(uint256,uint256,uint256,address),(uint256,uint256,uint256,bool,bool,bool,bool,bool,bool,bool,bool,bool,bool,bool,bool,address),uint256,(uint256,(bool,uint256,uint256,address,uint256,address)[])[],(address,uint256,uint256,uint256,uint256)[],address[])": {
        "notice": "Creates a project. This will mint an ERC-721 into the specified owner's account, configure a first funding cycle, and set up any splits."
      },
      "migrate(uint256,address)": {
        "notice": "Allows a project to migrate from this controller to another."
      },
      "mintTokensOf(uint256,uint256,address,string,bool,bool)": {
        "notice": "Mint new token supply into an account."
      },
      "operatorStore()": {
        "notice": " A contract storing operator assignments."
      },
      "overflowAllowanceCurrencyOf(uint256,uint256,address)": {
        "notice": "The currency of the amount of overflow that a project is allowed to tap into."
      },
      "overflowAllowanceOf(uint256,uint256,address)": {
        "notice": "The amount of overflow that a project is allowed to tap into on-demand throughout configuration."
      },
      "prepForMigrationOf(uint256,address)": {
        "notice": "Allows other controllers to signal to this one that a migration is expected for the specified project."
      },
      "projects()": {
        "notice": "The Projects contract which mints ERC-721's that represent project ownership."
      },
      "reconfigureFundingCyclesOf(uint256,(uint256,uint256,uint256,address),(uint256,uint256,uint256,bool,bool,bool,bool,bool,bool,bool,bool,bool,bool,bool,bool,address),uint256,(uint256,(bool,uint256,uint256,address,uint256,address)[])[],(address,uint256,uint256,uint256,uint256)[])": {
        "notice": "Configures the properties of the current funding cycle if the project hasn't distributed tokens yet, or sets the properties of the proposed funding cycle that will take effect once the current one expires if it is approved by the current funding cycle's ballot."
      },
      "reservedTokenBalanceOf(uint256,uint256)": {
        "notice": "Gets the amount of reserved tokens that a project has available to distribute."
      },
      "splitsStore()": {
        "notice": "The contract that stores splits for each project."
      },
      "tokenStore()": {
        "notice": "The contract that manages token minting and burning."
      }
    },
    "notice": "Stitches together funding cycles and community tokens, making sure all activity is accounted for and correct.",
    "version": 1
  },
  "storageLayout": {
    "storage": [
      {
        "astId": 693,
        "contract": "contracts/JBController.sol:JBController",
        "label": "_status",
        "offset": 0,
        "slot": "0",
        "type": "t_uint256"
      },
      {
        "astId": 4691,
        "contract": "contracts/JBController.sol:JBController",
        "label": "_processedTokenTrackerOf",
        "offset": 0,
        "slot": "1",
        "type": "t_mapping(t_uint256,t_int256)"
      },
      {
        "astId": 4701,
        "contract": "contracts/JBController.sol:JBController",
        "label": "_packedDistributionLimitDataOf",
        "offset": 0,
        "slot": "2",
        "type": "t_mapping(t_uint256,t_mapping(t_uint256,t_mapping(t_contract(IJBPaymentTerminal)14672,t_uint256)))"
      },
      {
        "astId": 4711,
        "contract": "contracts/JBController.sol:JBController",
        "label": "_packedOverflowAllowanceDataOf",
        "offset": 0,
        "slot": "3",
        "type": "t_mapping(t_uint256,t_mapping(t_uint256,t_mapping(t_contract(IJBPaymentTerminal)14672,t_uint256)))"
      }
    ],
    "types": {
      "t_contract(IJBPaymentTerminal)14672": {
        "encoding": "inplace",
        "label": "contract IJBPaymentTerminal",
        "numberOfBytes": "20"
      },
      "t_int256": {
        "encoding": "inplace",
        "label": "int256",
        "numberOfBytes": "32"
      },
      "t_mapping(t_contract(IJBPaymentTerminal)14672,t_uint256)": {
        "encoding": "mapping",
        "key": "t_contract(IJBPaymentTerminal)14672",
        "label": "mapping(contract IJBPaymentTerminal => uint256)",
        "numberOfBytes": "32",
        "value": "t_uint256"
      },
      "t_mapping(t_uint256,t_int256)": {
        "encoding": "mapping",
        "key": "t_uint256",
        "label": "mapping(uint256 => int256)",
        "numberOfBytes": "32",
        "value": "t_int256"
      },
      "t_mapping(t_uint256,t_mapping(t_contract(IJBPaymentTerminal)14672,t_uint256))": {
        "encoding": "mapping",
        "key": "t_uint256",
        "label": "mapping(uint256 => mapping(contract IJBPaymentTerminal => uint256))",
        "numberOfBytes": "32",
        "value": "t_mapping(t_contract(IJBPaymentTerminal)14672,t_uint256)"
      },
      "t_mapping(t_uint256,t_mapping(t_uint256,t_mapping(t_contract(IJBPaymentTerminal)14672,t_uint256)))": {
        "encoding": "mapping",
        "key": "t_uint256",
        "label": "mapping(uint256 => mapping(uint256 => mapping(contract IJBPaymentTerminal => uint256)))",
        "numberOfBytes": "32",
        "value": "t_mapping(t_uint256,t_mapping(t_contract(IJBPaymentTerminal)14672,t_uint256))"
      },
      "t_uint256": {
        "encoding": "inplace",
        "label": "uint256",
        "numberOfBytes": "32"
      }
    }
  }
}