{
  "address": "0x34a87E22a82aaC8bd479E7D7D422a3Bd0CA69F9b",
  "abi": [
    {
      "inputs": [
        {
          "internalType": "uint256",
          "name": "_baseWeightCurrency",
          "type": "uint256"
        },
        {
          "internalType": "contract IJBOperatorStore",
          "name": "_operatorStore",
          "type": "address"
        },
        {
          "internalType": "contract IJBProjects",
          "name": "_projects",
          "type": "address"
        },
        {
          "internalType": "contract IJBDirectory",
          "name": "_directory",
          "type": "address"
        },
        {
          "internalType": "contract IJBSplitsStore",
          "name": "_splitsStore",
          "type": "address"
        },
        {
          "internalType": "contract IJBPrices",
          "name": "_prices",
          "type": "address"
        },
        {
          "internalType": "contract JBPaymentTerminalStore",
          "name": "_store",
          "type": "address"
        },
        {
          "internalType": "address",
          "name": "_owner",
          "type": "address"
        }
      ],
      "stateMutability": "nonpayable",
      "type": "constructor"
    },
    {
      "inputs": [],
      "name": "FEE_TOO_HIGH",
      "type": "error"
    },
    {
      "inputs": [],
      "name": "INADEQUATE_DISTRIBUTION_AMOUNT",
      "type": "error"
    },
    {
      "inputs": [],
      "name": "INADEQUATE_RECLAIM_AMOUNT",
      "type": "error"
    },
    {
      "inputs": [],
      "name": "INADEQUATE_TOKEN_COUNT",
      "type": "error"
    },
    {
      "inputs": [],
      "name": "NO_MSG_VALUE_ALLOWED",
      "type": "error"
    },
    {
      "inputs": [],
      "name": "PAY_TO_ZERO_ADDRESS",
      "type": "error"
    },
    {
      "inputs": [
        {
          "internalType": "uint256",
          "name": "prod1",
          "type": "uint256"
        },
        {
          "internalType": "uint256",
          "name": "denominator",
          "type": "uint256"
        }
      ],
      "name": "PRBMath__MulDivOverflow",
      "type": "error"
    },
    {
      "inputs": [],
      "name": "PROJECT_TERMINAL_MISMATCH",
      "type": "error"
    },
    {
      "inputs": [],
      "name": "REDEEM_TO_ZERO_ADDRESS",
      "type": "error"
    },
    {
      "inputs": [],
      "name": "TERMINAL_IN_SPLIT_ZERO_ADDRESS",
      "type": "error"
    },
    {
      "inputs": [],
      "name": "TERMINAL_TOKENS_INCOMPATIBLE",
      "type": "error"
    },
    {
      "inputs": [],
      "name": "UNAUTHORIZED",
      "type": "error"
    },
    {
      "anonymous": false,
      "inputs": [
        {
          "indexed": true,
          "internalType": "uint256",
          "name": "projectId",
          "type": "uint256"
        },
        {
          "indexed": false,
          "internalType": "uint256",
          "name": "amount",
          "type": "uint256"
        },
        {
          "indexed": false,
          "internalType": "string",
          "name": "memo",
          "type": "string"
        },
        {
          "indexed": false,
          "internalType": "address",
          "name": "caller",
          "type": "address"
        }
      ],
      "name": "AddToBalance",
      "type": "event"
    },
    {
      "anonymous": false,
      "inputs": [
        {
          "indexed": true,
          "internalType": "contract IJBPayDelegate",
          "name": "delegate",
          "type": "address"
        },
        {
          "components": [
            {
              "internalType": "address",
              "name": "payer",
              "type": "address"
            },
            {
              "internalType": "uint256",
              "name": "projectId",
              "type": "uint256"
            },
            {
              "components": [
                {
                  "internalType": "address",
                  "name": "token",
                  "type": "address"
                },
                {
                  "internalType": "uint256",
                  "name": "value",
                  "type": "uint256"
                },
                {
                  "internalType": "uint256",
                  "name": "decimals",
                  "type": "uint256"
                },
                {
                  "internalType": "uint256",
                  "name": "currency",
                  "type": "uint256"
                }
              ],
              "internalType": "struct JBTokenAmount",
              "name": "amount",
              "type": "tuple"
            },
            {
              "internalType": "uint256",
              "name": "projectTokenCount",
              "type": "uint256"
            },
            {
              "internalType": "address",
              "name": "beneficiary",
              "type": "address"
            },
            {
              "internalType": "string",
              "name": "memo",
              "type": "string"
            },
            {
              "internalType": "bytes",
              "name": "metadata",
              "type": "bytes"
            }
          ],
          "indexed": false,
          "internalType": "struct JBDidPayData",
          "name": "data",
          "type": "tuple"
        },
        {
          "indexed": false,
          "internalType": "address",
          "name": "caller",
          "type": "address"
        }
      ],
      "name": "DelegateDidPay",
      "type": "event"
    },
    {
      "anonymous": false,
      "inputs": [
        {
          "indexed": true,
          "internalType": "contract IJBRedemptionDelegate",
          "name": "delegate",
          "type": "address"
        },
        {
          "components": [
            {
              "internalType": "address",
              "name": "holder",
              "type": "address"
            },
            {
              "internalType": "uint256",
              "name": "projectId",
              "type": "uint256"
            },
            {
              "internalType": "uint256",
              "name": "projectTokenCount",
              "type": "uint256"
            },
            {
              "components": [
                {
                  "internalType": "address",
                  "name": "token",
                  "type": "address"
                },
                {
                  "internalType": "uint256",
                  "name": "value",
                  "type": "uint256"
                },
                {
                  "internalType": "uint256",
                  "name": "decimals",
                  "type": "uint256"
                },
                {
                  "internalType": "uint256",
                  "name": "currency",
                  "type": "uint256"
                }
              ],
              "internalType": "struct JBTokenAmount",
              "name": "reclaimedAmount",
              "type": "tuple"
            },
            {
              "internalType": "address payable",
              "name": "beneficiary",
              "type": "address"
            },
            {
              "internalType": "string",
              "name": "memo",
              "type": "string"
            },
            {
              "internalType": "bytes",
              "name": "metadata",
              "type": "bytes"
            }
          ],
          "indexed": false,
          "internalType": "struct JBDidRedeemData",
          "name": "data",
          "type": "tuple"
        },
        {
          "indexed": false,
          "internalType": "address",
          "name": "caller",
          "type": "address"
        }
      ],
      "name": "DelegateDidRedeem",
      "type": "event"
    },
    {
      "anonymous": false,
      "inputs": [
        {
          "indexed": true,
          "internalType": "uint256",
          "name": "fundingCycleConfiguration",
          "type": "uint256"
        },
        {
          "indexed": true,
          "internalType": "uint256",
          "name": "fundingCycleNumber",
          "type": "uint256"
        },
        {
          "indexed": true,
          "internalType": "uint256",
          "name": "projectId",
          "type": "uint256"
        },
        {
          "indexed": false,
          "internalType": "address",
          "name": "beneficiary",
          "type": "address"
        },
        {
          "indexed": false,
          "internalType": "uint256",
          "name": "amount",
          "type": "uint256"
        },
        {
          "indexed": false,
          "internalType": "uint256",
          "name": "distributedAmount",
          "type": "uint256"
        },
        {
          "indexed": false,
          "internalType": "uint256",
          "name": "feeAmount",
          "type": "uint256"
        },
        {
          "indexed": false,
          "internalType": "uint256",
          "name": "beneficiaryDistributionAmount",
          "type": "uint256"
        },
        {
          "indexed": false,
          "internalType": "string",
          "name": "memo",
          "type": "string"
        },
        {
          "indexed": false,
          "internalType": "address",
          "name": "caller",
          "type": "address"
        }
      ],
      "name": "DistributePayouts",
      "type": "event"
    },
    {
      "anonymous": false,
      "inputs": [
        {
          "indexed": true,
          "internalType": "uint256",
          "name": "fundingCycleConfiguration",
          "type": "uint256"
        },
        {
          "indexed": true,
          "internalType": "uint256",
          "name": "fundingCycleNumber",
          "type": "uint256"
        },
        {
          "indexed": true,
          "internalType": "uint256",
          "name": "projectId",
          "type": "uint256"
        },
        {
          "components": [
            {
              "internalType": "bool",
              "name": "preferClaimed",
              "type": "bool"
            },
            {
              "internalType": "uint256",
              "name": "percent",
              "type": "uint256"
            },
            {
              "internalType": "uint256",
              "name": "projectId",
              "type": "uint256"
            },
            {
              "internalType": "address payable",
              "name": "beneficiary",
              "type": "address"
            },
            {
              "internalType": "uint256",
              "name": "lockedUntil",
              "type": "uint256"
            },
            {
              "internalType": "contract IJBSplitAllocator",
              "name": "allocator",
              "type": "address"
            }
          ],
          "indexed": false,
          "internalType": "struct JBSplit",
          "name": "split",
          "type": "tuple"
        },
        {
          "indexed": false,
          "internalType": "uint256",
          "name": "amount",
          "type": "uint256"
        },
        {
          "indexed": false,
          "internalType": "address",
          "name": "caller",
          "type": "address"
        }
      ],
      "name": "DistributeToPayoutSplit",
      "type": "event"
    },
    {
      "anonymous": false,
      "inputs": [
        {
          "indexed": true,
          "internalType": "uint256",
          "name": "projectId",
          "type": "uint256"
        },
        {
          "indexed": true,
          "internalType": "contract IJBPaymentTerminal",
          "name": "to",
          "type": "address"
        },
        {
          "indexed": false,
          "internalType": "uint256",
          "name": "amount",
          "type": "uint256"
        },
        {
          "indexed": false,
          "internalType": "address",
          "name": "caller",
          "type": "address"
        }
      ],
      "name": "Migrate",
      "type": "event"
    },
    {
      "anonymous": false,
      "inputs": [
        {
          "indexed": true,
          "internalType": "address",
          "name": "previousOwner",
          "type": "address"
        },
        {
          "indexed": true,
          "internalType": "address",
          "name": "newOwner",
          "type": "address"
        }
      ],
      "name": "OwnershipTransferred",
      "type": "event"
    },
    {
      "anonymous": false,
      "inputs": [
        {
          "indexed": true,
          "internalType": "uint256",
          "name": "fundingCycleConfiguration",
          "type": "uint256"
        },
        {
          "indexed": true,
          "internalType": "uint256",
          "name": "fundingCycleNumber",
          "type": "uint256"
        },
        {
          "indexed": true,
          "internalType": "uint256",
          "name": "projectId",
          "type": "uint256"
        },
        {
          "indexed": false,
          "internalType": "address",
          "name": "beneficiary",
          "type": "address"
        },
        {
          "indexed": false,
          "internalType": "uint256",
          "name": "amount",
          "type": "uint256"
        },
        {
          "indexed": false,
          "internalType": "uint256",
          "name": "beneficiaryTokenCount",
          "type": "uint256"
        },
        {
          "indexed": false,
          "internalType": "string",
          "name": "memo",
          "type": "string"
        },
        {
          "indexed": false,
          "internalType": "address",
          "name": "caller",
          "type": "address"
        }
      ],
      "name": "Pay",
      "type": "event"
    },
    {
      "anonymous": false,
      "inputs": [
        {
          "indexed": true,
          "internalType": "uint256",
          "name": "projectId",
          "type": "uint256"
        },
        {
          "components": [
            {
              "internalType": "uint256",
              "name": "amount",
              "type": "uint256"
            },
            {
              "internalType": "uint32",
              "name": "fee",
              "type": "uint32"
            },
            {
              "internalType": "address",
              "name": "beneficiary",
              "type": "address"
            }
          ],
          "indexed": false,
          "internalType": "struct JBFee[]",
          "name": "fees",
          "type": "tuple[]"
        },
        {
          "indexed": false,
          "internalType": "address",
          "name": "caller",
          "type": "address"
        }
      ],
      "name": "ProcessFees",
      "type": "event"
    },
    {
      "anonymous": false,
      "inputs": [
        {
          "indexed": true,
          "internalType": "uint256",
          "name": "fundingCycleConfiguration",
          "type": "uint256"
        },
        {
          "indexed": true,
          "internalType": "uint256",
          "name": "fundingCycleNumber",
          "type": "uint256"
        },
        {
          "indexed": true,
          "internalType": "uint256",
          "name": "projectId",
          "type": "uint256"
        },
        {
          "indexed": false,
          "internalType": "address",
          "name": "holder",
          "type": "address"
        },
        {
          "indexed": false,
          "internalType": "address",
          "name": "beneficiary",
          "type": "address"
        },
        {
          "indexed": false,
          "internalType": "uint256",
          "name": "tokenCount",
          "type": "uint256"
        },
        {
          "indexed": false,
          "internalType": "uint256",
          "name": "claimedAmount",
          "type": "uint256"
        },
        {
          "indexed": false,
          "internalType": "string",
          "name": "memo",
          "type": "string"
        },
        {
          "indexed": false,
          "internalType": "address",
          "name": "caller",
          "type": "address"
        }
      ],
      "name": "RedeemTokens",
      "type": "event"
    },
    {
      "anonymous": false,
      "inputs": [
        {
          "indexed": false,
          "internalType": "uint256",
          "name": "fee",
          "type": "uint256"
        },
        {
          "indexed": false,
          "internalType": "address",
          "name": "caller",
          "type": "address"
        }
      ],
      "name": "SetFee",
      "type": "event"
    },
    {
      "anonymous": false,
      "inputs": [
        {
          "indexed": false,
          "internalType": "contract IJBFeeGauge",
          "name": "feeGauge",
          "type": "address"
        },
        {
          "indexed": false,
          "internalType": "address",
          "name": "caller",
          "type": "address"
        }
      ],
      "name": "SetFeeGauge",
      "type": "event"
    },
    {
      "anonymous": false,
      "inputs": [
        {
          "indexed": false,
          "internalType": "contract IJBPaymentTerminal",
          "name": "terminal",
          "type": "address"
        },
        {
          "indexed": false,
          "internalType": "address",
          "name": "caller",
          "type": "address"
        }
      ],
      "name": "SetFeelessTerminal",
      "type": "event"
    },
    {
      "anonymous": false,
      "inputs": [
        {
          "indexed": true,
          "internalType": "uint256",
          "name": "fundingCycleConfiguration",
          "type": "uint256"
        },
        {
          "indexed": true,
          "internalType": "uint256",
          "name": "fundingCycleNumber",
          "type": "uint256"
        },
        {
          "indexed": true,
          "internalType": "uint256",
          "name": "projectId",
          "type": "uint256"
        },
        {
          "indexed": false,
          "internalType": "address",
          "name": "beneficiary",
          "type": "address"
        },
        {
          "indexed": false,
          "internalType": "uint256",
          "name": "amount",
          "type": "uint256"
        },
        {
          "indexed": false,
          "internalType": "uint256",
          "name": "distributedAmount",
          "type": "uint256"
        },
        {
          "indexed": false,
          "internalType": "uint256",
          "name": "feeAmount",
          "type": "uint256"
        },
        {
          "indexed": false,
          "internalType": "string",
          "name": "memo",
          "type": "string"
        },
        {
          "indexed": false,
          "internalType": "address",
          "name": "caller",
          "type": "address"
        }
      ],
      "name": "UseAllowance",
      "type": "event"
    },
    {
      "inputs": [
        {
          "internalType": "uint256",
          "name": "_amount",
          "type": "uint256"
        },
        {
          "internalType": "uint256",
          "name": "_projectId",
          "type": "uint256"
        },
        {
          "internalType": "string",
          "name": "_memo",
          "type": "string"
        }
      ],
      "name": "addToBalanceOf",
      "outputs": [],
      "stateMutability": "payable",
      "type": "function"
    },
    {
      "inputs": [],
      "name": "baseWeightCurrency",
      "outputs": [
        {
          "internalType": "uint256",
          "name": "",
          "type": "uint256"
        }
      ],
      "stateMutability": "view",
      "type": "function"
    },
    {
      "inputs": [],
      "name": "currency",
      "outputs": [
        {
          "internalType": "uint256",
          "name": "",
          "type": "uint256"
        }
      ],
      "stateMutability": "view",
      "type": "function"
    },
    {
      "inputs": [
        {
          "internalType": "uint256",
          "name": "_projectId",
          "type": "uint256"
        }
      ],
      "name": "currentEthOverflowOf",
      "outputs": [
        {
          "internalType": "uint256",
          "name": "",
          "type": "uint256"
        }
      ],
      "stateMutability": "view",
      "type": "function"
    },
    {
      "inputs": [],
      "name": "decimals",
      "outputs": [
        {
          "internalType": "uint256",
          "name": "",
          "type": "uint256"
        }
      ],
      "stateMutability": "view",
      "type": "function"
    },
    {
      "inputs": [],
      "name": "directory",
      "outputs": [
        {
          "internalType": "contract IJBDirectory",
          "name": "",
          "type": "address"
        }
      ],
      "stateMutability": "view",
      "type": "function"
    },
    {
      "inputs": [
        {
          "internalType": "uint256",
          "name": "_projectId",
          "type": "uint256"
        },
        {
          "internalType": "uint256",
          "name": "_amount",
          "type": "uint256"
        },
        {
          "internalType": "uint256",
          "name": "_currency",
          "type": "uint256"
        },
        {
          "internalType": "uint256",
          "name": "_minReturnedTokens",
          "type": "uint256"
        },
        {
          "internalType": "string",
          "name": "_memo",
          "type": "string"
        }
      ],
      "name": "distributePayoutsOf",
      "outputs": [],
      "stateMutability": "nonpayable",
      "type": "function"
    },
    {
      "inputs": [],
      "name": "fee",
      "outputs": [
        {
          "internalType": "uint256",
          "name": "",
          "type": "uint256"
        }
      ],
      "stateMutability": "view",
      "type": "function"
    },
    {
      "inputs": [],
      "name": "feeGauge",
      "outputs": [
        {
          "internalType": "contract IJBFeeGauge",
          "name": "",
          "type": "address"
        }
      ],
      "stateMutability": "view",
      "type": "function"
    },
    {
      "inputs": [
        {
          "internalType": "uint256",
          "name": "_projectId",
          "type": "uint256"
        }
      ],
      "name": "heldFeesOf",
      "outputs": [
        {
          "components": [
            {
              "internalType": "uint256",
              "name": "amount",
              "type": "uint256"
            },
            {
              "internalType": "uint32",
              "name": "fee",
              "type": "uint32"
            },
            {
              "internalType": "address",
              "name": "beneficiary",
              "type": "address"
            }
          ],
          "internalType": "struct JBFee[]",
          "name": "",
          "type": "tuple[]"
        }
      ],
      "stateMutability": "view",
      "type": "function"
    },
    {
      "inputs": [
        {
          "internalType": "contract IJBPaymentTerminal",
          "name": "",
          "type": "address"
        }
      ],
      "name": "isFeelessTerminal",
      "outputs": [
        {
          "internalType": "bool",
          "name": "",
          "type": "bool"
        }
      ],
      "stateMutability": "view",
      "type": "function"
    },
    {
      "inputs": [
        {
          "internalType": "uint256",
          "name": "_projectId",
          "type": "uint256"
        },
        {
          "internalType": "contract IJBPaymentTerminal",
          "name": "_to",
          "type": "address"
        }
      ],
      "name": "migrate",
      "outputs": [],
      "stateMutability": "nonpayable",
      "type": "function"
    },
    {
      "inputs": [],
      "name": "operatorStore",
      "outputs": [
        {
          "internalType": "contract IJBOperatorStore",
          "name": "",
          "type": "address"
        }
      ],
      "stateMutability": "view",
      "type": "function"
    },
    {
      "inputs": [],
      "name": "owner",
      "outputs": [
        {
          "internalType": "address",
          "name": "",
          "type": "address"
        }
      ],
      "stateMutability": "view",
      "type": "function"
    },
    {
      "inputs": [
        {
          "internalType": "uint256",
          "name": "_amount",
          "type": "uint256"
        },
        {
          "internalType": "uint256",
          "name": "_projectId",
          "type": "uint256"
        },
        {
          "internalType": "address",
          "name": "_beneficiary",
          "type": "address"
        },
        {
          "internalType": "uint256",
          "name": "_minReturnedTokens",
          "type": "uint256"
        },
        {
          "internalType": "bool",
          "name": "_preferClaimedTokens",
          "type": "bool"
        },
        {
          "internalType": "string",
          "name": "_memo",
          "type": "string"
        },
        {
          "internalType": "bytes",
          "name": "_metadata",
          "type": "bytes"
        }
      ],
      "name": "pay",
      "outputs": [],
      "stateMutability": "payable",
      "type": "function"
    },
    {
      "inputs": [],
      "name": "payoutSplitsGroup",
      "outputs": [
        {
          "internalType": "uint256",
          "name": "",
          "type": "uint256"
        }
      ],
      "stateMutability": "view",
      "type": "function"
    },
    {
      "inputs": [],
      "name": "prices",
      "outputs": [
        {
          "internalType": "contract IJBPrices",
          "name": "",
          "type": "address"
        }
      ],
      "stateMutability": "view",
      "type": "function"
    },
    {
      "inputs": [
        {
          "internalType": "uint256",
          "name": "_projectId",
          "type": "uint256"
        }
      ],
      "name": "processFees",
      "outputs": [],
      "stateMutability": "nonpayable",
      "type": "function"
    },
    {
      "inputs": [],
      "name": "projects",
      "outputs": [
        {
          "internalType": "contract IJBProjects",
          "name": "",
          "type": "address"
        }
      ],
      "stateMutability": "view",
      "type": "function"
    },
    {
      "inputs": [
        {
          "internalType": "address",
          "name": "_holder",
          "type": "address"
        },
        {
          "internalType": "uint256",
          "name": "_projectId",
          "type": "uint256"
        },
        {
          "internalType": "uint256",
          "name": "_tokenCount",
          "type": "uint256"
        },
        {
          "internalType": "uint256",
          "name": "_minReturnedTokens",
          "type": "uint256"
        },
        {
          "internalType": "address payable",
          "name": "_beneficiary",
          "type": "address"
        },
        {
          "internalType": "string",
          "name": "_memo",
          "type": "string"
        },
        {
          "internalType": "bytes",
          "name": "_metadata",
          "type": "bytes"
        }
      ],
      "name": "redeemTokensOf",
      "outputs": [
        {
          "internalType": "uint256",
          "name": "reclaimAmount",
          "type": "uint256"
        }
      ],
      "stateMutability": "nonpayable",
      "type": "function"
    },
    {
      "inputs": [],
      "name": "renounceOwnership",
      "outputs": [],
      "stateMutability": "nonpayable",
      "type": "function"
    },
    {
      "inputs": [
        {
          "internalType": "uint256",
          "name": "_fee",
          "type": "uint256"
        }
      ],
      "name": "setFee",
      "outputs": [],
      "stateMutability": "nonpayable",
      "type": "function"
    },
    {
      "inputs": [
        {
          "internalType": "contract IJBFeeGauge",
          "name": "_feeGauge",
          "type": "address"
        }
      ],
      "name": "setFeeGauge",
      "outputs": [],
      "stateMutability": "nonpayable",
      "type": "function"
    },
    {
      "inputs": [],
      "name": "splitsStore",
      "outputs": [
        {
          "internalType": "contract IJBSplitsStore",
          "name": "",
          "type": "address"
        }
      ],
      "stateMutability": "view",
      "type": "function"
    },
    {
      "inputs": [],
      "name": "store",
      "outputs": [
        {
          "internalType": "contract JBPaymentTerminalStore",
          "name": "",
          "type": "address"
        }
      ],
      "stateMutability": "view",
      "type": "function"
    },
    {
      "inputs": [
        {
          "internalType": "contract IJBPaymentTerminal",
          "name": "_terminal",
          "type": "address"
        }
      ],
      "name": "toggleFeelessTerminal",
      "outputs": [],
      "stateMutability": "nonpayable",
      "type": "function"
    },
    {
      "inputs": [],
      "name": "token",
      "outputs": [
        {
          "internalType": "address",
          "name": "",
          "type": "address"
        }
      ],
      "stateMutability": "view",
      "type": "function"
    },
    {
      "inputs": [
        {
          "internalType": "address",
          "name": "newOwner",
          "type": "address"
        }
      ],
      "name": "transferOwnership",
      "outputs": [],
      "stateMutability": "nonpayable",
      "type": "function"
    },
    {
      "inputs": [
        {
          "internalType": "uint256",
          "name": "_projectId",
          "type": "uint256"
        },
        {
          "internalType": "uint256",
          "name": "_amount",
          "type": "uint256"
        },
        {
          "internalType": "uint256",
          "name": "_currency",
          "type": "uint256"
        },
        {
          "internalType": "uint256",
          "name": "_minReturnedTokens",
          "type": "uint256"
        },
        {
          "internalType": "address payable",
          "name": "_beneficiary",
          "type": "address"
        },
        {
          "internalType": "string",
          "name": "_memo",
          "type": "string"
        }
      ],
      "name": "useAllowanceOf",
      "outputs": [],
      "stateMutability": "nonpayable",
      "type": "function"
    }
  ],
  "transactionHash": "0xea80a74788f9452432ee3ece43910194edb82088c6c14de9fbff6248fa3846c6",
  "args": [
    0,
    "0x523D4f4EE2Dd194e5C3aEA3bd82c267b50379521",
    "0x9f6B993D2b05088317d123E6B56Dd4444E7F016A",
    "0xf8beb62B8ae1cE8053D5A3B6d66C4f1a8ef36F4a",
    "0xC41BCD246c889A642eA27CF1F47F3948b6E5C9dB",
    "0x2d45E2691dD969C2C84E91D8F163a001CC9624E4",
    "0x346ae80CE75BEe1B690F2949D1137F6664D1aCa3",
    "0x5E5C527003B3fE8f5512bC78545e182e0405Ba78"
  ],
  "numDeployments": 1,
  "solcInputHash": "0136ddce72e9b07c45f37ebabcbc8b52",
  "bytecode": "0x6101e060405263017d78406003553480156200001a57600080fd5b506040516200607a3803806200607a8339810160408190526200003d916200020d565b606087901b6001600160601b03191660805261eeee601260018a818b8b8b8b8b8b8b6200006a33620000e8565b600180556001600160601b031960608d811b8216610140526101608d90526101a08b90526101c08a90526101808c905287811b821660a05286811b821660c05285811b821660e05284811b82166101005283901b1661012052620000ce8162000138565b5050505050505050505050505050505050505050620002d8565b600080546001600160a01b038381166001600160a01b0319831681178455604051919092169283917f8be0079c531659141344cd1fd0a4f28419497f9722a3daafe3b4186f6b6457e09190a35050565b6000546001600160a01b03163314620001985760405162461bcd60e51b815260206004820181905260248201527f4f776e61626c653a2063616c6c6572206973206e6f7420746865206f776e657260448201526064015b60405180910390fd5b6001600160a01b038116620001ff5760405162461bcd60e51b815260206004820152602660248201527f4f776e61626c653a206e6577206f776e657220697320746865207a65726f206160448201526564647265737360d01b60648201526084016200018f565b6200020a81620000e8565b50565b600080600080600080600080610100898b0312156200022b57600080fd5b8851975060208901516200023f81620002c2565b60408a01519097506200025281620002c2565b60608a01519096506200026581620002c2565b60808a01519095506200027881620002c2565b60a08a01519094506200028b81620002c2565b60c08a01519093506200029e81620002c2565b60e08a0151909250620002b181620002c2565b809150509295985092959890939650565b6001600160a01b03811681146200020a57600080fd5b60805160601c60a05160601c60c05160601c60e05160601c6101005160601c6101205160601c6101405160601c61016051610180516101a0516101c051615b706200050a6000396000818161032f01528181613e59015261404701526000818161025901526139f80152600081816105dd0152818161116f01528181611fa8015281816120230152818161272f01528181612a5d01528181612c8a015261399201526000818161029b01528181611f4901528181611f7501528181611fd5015281816120500152818161270e01528181612a37015261396c01526000818161067101528181610b7b01528181610cb6015281816117dc01528181612284015281816129f5015281816130af015281816136210152818161371c0152818161392a01528181613fda0152818161413a01526142f001526000818161045701528181610c19015281816111af01528181611ec9015281816126cf01528181612cb5015281816133f401526139b801526000818161054601526120760152600081816101fb0152613e8601526000818161051201528181611715015281816121bd01528181612861015281816130dc0152818161364c01528181613aee015261410d0152600081816103f80152818161084a01528181610e97015281816112b3015281816118a90152612db70152600081816104be0152818161095601528181610a3201528181610fa30152818161107f01528181611a0c01528181611ae80152818161248a01526125660152615b706000f3fe6080604052600436106101c25760003560e01c80638da5cb5b116100f7578063d3419bf311610095578063e5a6b10f11610064578063e5a6b10f146105cb578063e730b26e146105ff578063f2fde38b1461063f578063fc0c546a1461065f57600080fd5b8063d3419bf314610534578063d6dacc5314610568578063d930c60c14610595578063ddca3f43146105b557600080fd5b8063abe151b7116100d1578063abe151b714610499578063ad007d63146104ac578063b6cf978e146104e0578063c41c2f241461050057600080fd5b80638da5cb5b1461041a578063975057e714610445578063a32e1e961461047957600080fd5b806366248b861161016457806384a2aacd1161013e57806384a2aacd1461038657806389701db5146103995780638af56094146103b95780638b79543c146103e657600080fd5b806366248b861461031d57806369fe0e2d14610351578063715018a61461037157600080fd5b8063313ce567116101a0578063313ce56714610289578063405b84fa146102bd5780634ee9c559146102dd578063637913ac146102fd57600080fd5b806317b75e32146101c75780632bdfe004146101e95780632d1a590314610247575b600080fd5b3480156101d357600080fd5b506101e76101e2366004614b58565b610693565b005b3480156101f557600080fd5b5061021d7f000000000000000000000000000000000000000000000000000000000000000081565b60405173ffffffffffffffffffffffffffffffffffffffff90911681526020015b60405180910390f35b34801561025357600080fd5b5061027b7f000000000000000000000000000000000000000000000000000000000000000081565b60405190815260200161023e565b34801561029557600080fd5b5061027b7f000000000000000000000000000000000000000000000000000000000000000081565b3480156102c957600080fd5b506101e76102d8366004614e6a565b6107a9565b3480156102e957600080fd5b506101e76102f8366004614f9e565b610df6565b34801561030957600080fd5b506101e7610318366004614b58565b6113ed565b34801561032957600080fd5b5061027b7f000000000000000000000000000000000000000000000000000000000000000081565b34801561035d57600080fd5b506101e761036c366004614e38565b6114e6565b34801561037d57600080fd5b506101e76115df565b6101e7610394366004614f4e565b61166c565b3480156103a557600080fd5b506101e76103b4366004614e38565b61187a565b3480156103c557600080fd5b506103d96103d4366004614e38565b611dcf565b60405161023e91906154fc565b3480156103f257600080fd5b5061021d7f000000000000000000000000000000000000000000000000000000000000000081565b34801561042657600080fd5b5060005473ffffffffffffffffffffffffffffffffffffffff1661021d565b34801561045157600080fd5b5061021d7f000000000000000000000000000000000000000000000000000000000000000081565b34801561048557600080fd5b5061027b610494366004614e38565b611e7a565b6101e76104a7366004614e9a565b612114565b3480156104b857600080fd5b5061021d7f000000000000000000000000000000000000000000000000000000000000000081565b3480156104ec57600080fd5b5061027b6104fb366004614b92565b612396565b34801561050c57600080fd5b5061021d7f000000000000000000000000000000000000000000000000000000000000000081565b34801561054057600080fd5b5061021d7f000000000000000000000000000000000000000000000000000000000000000081565b34801561057457600080fd5b5060045461021d9073ffffffffffffffffffffffffffffffffffffffff1681565b3480156105a157600080fd5b506101e76105b0366004615013565b612bdb565b3480156105c157600080fd5b5061027b60035481565b3480156105d757600080fd5b5061027b7f000000000000000000000000000000000000000000000000000000000000000081565b34801561060b57600080fd5b5061062f61061a366004614b58565b60056020526000908152604090205460ff1681565b604051901515815260200161023e565b34801561064b57600080fd5b506101e761065a366004614b58565b612f3b565b34801561066b57600080fd5b5061021d7f000000000000000000000000000000000000000000000000000000000000000081565b60005473ffffffffffffffffffffffffffffffffffffffff163314610719576040517f08c379a000000000000000000000000000000000000000000000000000000000815260206004820181905260248201527f4f776e61626c653a2063616c6c6572206973206e6f7420746865206f776e657260448201526064015b60405180910390fd5b73ffffffffffffffffffffffffffffffffffffffff8116600081815260056020908152604091829020805460ff8116157fffffffffffffffffffffffffffffffffffffffffffffffffffffffffffffff00909116179055815192835233908301527f05b017efe9d7a83c590ba54f56097c54c7bbb3aff8d163cff5bbb80f9cf9573d91015b60405180910390a150565b60026001541415610816576040517f08c379a000000000000000000000000000000000000000000000000000000000815260206004820152601f60248201527f5265656e7472616e637947756172643a207265656e7472616e742063616c6c006044820152606401610710565b60026001556040517f6352211e000000000000000000000000000000000000000000000000000000008152600481018390527f000000000000000000000000000000000000000000000000000000000000000073ffffffffffffffffffffffffffffffffffffffff1690636352211e9060240160206040518083038186803b1580156108a157600080fd5b505afa1580156108b5573d6000803e3d6000fd5b505050506040513d601f19601f820116820180604052508101906108d99190614b75565b8260043373ffffffffffffffffffffffffffffffffffffffff8416148015906109d257506040517fc161c93f00000000000000000000000000000000000000000000000000000000815233600482015273ffffffffffffffffffffffffffffffffffffffff848116602483015260448201849052606482018390527f0000000000000000000000000000000000000000000000000000000000000000169063c161c93f9060840160206040518083038186803b15801561099857600080fd5b505afa1580156109ac573d6000803e3d6000fd5b505050506040513d601f19601f820116820180604052508101906109d09190614d5f565b155b8015610aae57506040517fc161c93f00000000000000000000000000000000000000000000000000000000815233600482015273ffffffffffffffffffffffffffffffffffffffff848116602483015260006044830152606482018390527f0000000000000000000000000000000000000000000000000000000000000000169063c161c93f9060840160206040518083038186803b158015610a7457600080fd5b505afa158015610a88573d6000803e3d6000fd5b505050506040513d601f19601f82011682018060405250810190610aac9190614d5f565b155b15610ae5576040517f075fd2b100000000000000000000000000000000000000000000000000000000815260040160405180910390fd5b8373ffffffffffffffffffffffffffffffffffffffff1663fc0c546a6040518163ffffffff1660e01b815260040160206040518083038186803b158015610b2b57600080fd5b505afa158015610b3f573d6000803e3d6000fd5b505050506040513d601f19601f82011682018060405250810190610b639190614b75565b73ffffffffffffffffffffffffffffffffffffffff167f000000000000000000000000000000000000000000000000000000000000000073ffffffffffffffffffffffffffffffffffffffff1614610be7576040517f581010ed00000000000000000000000000000000000000000000000000000000815260040160405180910390fd5b6040517f6bb6a5ad000000000000000000000000000000000000000000000000000000008152600481018690526000907f000000000000000000000000000000000000000000000000000000000000000073ffffffffffffffffffffffffffffffffffffffff1690636bb6a5ad90602401602060405180830381600087803b158015610c7257600080fd5b505af1158015610c86573d6000803e3d6000fd5b505050506040513d601f19601f82011682018060405250810190610caa9190614e51565b90508015610d985760007f000000000000000000000000000000000000000000000000000000000000000073ffffffffffffffffffffffffffffffffffffffff1661eeee14610cfa576000610cfc565b815b6040517f84a2aacd0000000000000000000000000000000000000000000000000000000081526004810184905260248101899052606060448201526000606482015290915073ffffffffffffffffffffffffffffffffffffffff8716906384a2aacd9083906084016000604051808303818588803b158015610d7d57600080fd5b505af1158015610d91573d6000803e3d6000fd5b5050505050505b6040805182815233602082015273ffffffffffffffffffffffffffffffffffffffff87169188917fa7519e5f94697b7f53e97c5eb46a0c730a296ab686ab8fd333835c5f735784eb910160405180910390a350506001805550505050565b60026001541415610e63576040517f08c379a000000000000000000000000000000000000000000000000000000000815260206004820152601f60248201527f5265656e7472616e637947756172643a207265656e7472616e742063616c6c006044820152606401610710565b60026001556040517f6352211e000000000000000000000000000000000000000000000000000000008152600481018790527f000000000000000000000000000000000000000000000000000000000000000073ffffffffffffffffffffffffffffffffffffffff1690636352211e9060240160206040518083038186803b158015610eee57600080fd5b505afa158015610f02573d6000803e3d6000fd5b505050506040513d601f19601f82011682018060405250810190610f269190614b75565b8660113373ffffffffffffffffffffffffffffffffffffffff84161480159061101f57506040517fc161c93f00000000000000000000000000000000000000000000000000000000815233600482015273ffffffffffffffffffffffffffffffffffffffff848116602483015260448201849052606482018390527f0000000000000000000000000000000000000000000000000000000000000000169063c161c93f9060840160206040518083038186803b158015610fe557600080fd5b505afa158015610ff9573d6000803e3d6000fd5b505050506040513d601f19601f8201168201806040525081019061101d9190614d5f565b155b80156110fb57506040517fc161c93f00000000000000000000000000000000000000000000000000000000815233600482015273ffffffffffffffffffffffffffffffffffffffff848116602483015260006044830152606482018390527f0000000000000000000000000000000000000000000000000000000000000000169063c161c93f9060840160206040518083038186803b1580156110c157600080fd5b505afa1580156110d5573d6000803e3d6000fd5b505050506040513d601f19601f820116820180604052508101906110f99190614d5f565b155b15611132576040517f075fd2b100000000000000000000000000000000000000000000000000000000815260040160405180910390fd5b6040517f1837d6e3000000000000000000000000000000000000000000000000000000008152600481018a905260248101899052604481018890527f00000000000000000000000000000000000000000000000000000000000000006064820152600090819073ffffffffffffffffffffffffffffffffffffffff7f00000000000000000000000000000000000000000000000000000000000000001690631837d6e39060840161014060405180830381600087803b1580156111f457600080fd5b505af1158015611208573d6000803e3d6000fd5b505050506040513d601f19601f8201168201806040525081019061122c9190614d99565b915091508781101561126a576040517fb01493c100000000000000000000000000000000000000000000000000000000815260040160405180910390fd5b6040517f6352211e000000000000000000000000000000000000000000000000000000008152600481018c9052600090819073ffffffffffffffffffffffffffffffffffffffff7f00000000000000000000000000000000000000000000000000000000000000001690636352211e9060240160206040518083038186803b1580156112f557600080fd5b505afa158015611309573d6000803e3d6000fd5b505050506040513d601f19601f8201168201806040525081019061132d9190614b75565b9050600061133a8e61306b565b9050600354600014806113505750633b9aca0081145b611366576113618e8686858561325a565b611369565b60005b925050506000818361137b91906159d2565b9050801561138e5761138e308a8361333a565b508b836000015184602001517f8657a0c05a68a912c23c1bd00124afaa8c669063b046bd9bfd22b21d573c5e6d8b8f87878e336040516113d39695949392919061528d565b60405180910390a450506001805550505050505050505050565b60005473ffffffffffffffffffffffffffffffffffffffff16331461146e576040517f08c379a000000000000000000000000000000000000000000000000000000000815260206004820181905260248201527f4f776e61626c653a2063616c6c6572206973206e6f7420746865206f776e65726044820152606401610710565b600480547fffffffffffffffffffffffff00000000000000000000000000000000000000001673ffffffffffffffffffffffffffffffffffffffff8316908117909155604080519182523360208301527f0a9a80fe9716605b3e52abb3d792d6a4e7816d6afc02a5a4ef023081feaf9f60910161079e565b60005473ffffffffffffffffffffffffffffffffffffffff163314611567576040517f08c379a000000000000000000000000000000000000000000000000000000000815260206004820181905260248201527f4f776e61626c653a2063616c6c6572206973206e6f7420746865206f776e65726044820152606401610710565b6302faf0808111156115a5576040517f45fbd9c100000000000000000000000000000000000000000000000000000000815260040160405180910390fd5b6003819055604080518281523360208201527fd7414e590e1cb532989ab2a34c8f4c2c17f7ab6f006efeeaef2e87cd5008c202910161079e565b60005473ffffffffffffffffffffffffffffffffffffffff163314611660576040517f08c379a000000000000000000000000000000000000000000000000000000000815260206004820181905260248201527f4f776e61626c653a2063616c6c6572206973206e6f7420746865206f776e65726044820152606401610710565b61166a6000613349565b565b600260015414156116d9576040517f08c379a000000000000000000000000000000000000000000000000000000000815260206004820152601f60248201527f5265656e7472616e637947756172643a207265656e7472616e742063616c6c006044820152606401610710565b60026001556040517f6e49181f0000000000000000000000000000000000000000000000000000000081526004810183905230602482015282907f000000000000000000000000000000000000000000000000000000000000000073ffffffffffffffffffffffffffffffffffffffff1690636e49181f9060440160206040518083038186803b15801561176c57600080fd5b505afa158015611780573d6000803e3d6000fd5b505050506040513d601f19601f820116820180604052508101906117a49190614d5f565b6117da576040517fd8ead2c800000000000000000000000000000000000000000000000000000000815260040160405180910390fd5b7f000000000000000000000000000000000000000000000000000000000000000073ffffffffffffffffffffffffffffffffffffffff1661eeee14611861573415611851576040517fbcfd35be00000000000000000000000000000000000000000000000000000000815260040160405180910390fd5b61185c33308661333a565b611865565b3493505b6118708484846133be565b5050600180555050565b6040517f6352211e000000000000000000000000000000000000000000000000000000008152600481018290527f000000000000000000000000000000000000000000000000000000000000000073ffffffffffffffffffffffffffffffffffffffff1690636352211e9060240160206040518083038186803b15801561190057600080fd5b505afa158015611914573d6000803e3d6000fd5b505050506040513d601f19601f820116820180604052508101906119389190614b75565b81600561195a60005473ffffffffffffffffffffffffffffffffffffffff1690565b73ffffffffffffffffffffffffffffffffffffffff163373ffffffffffffffffffffffffffffffffffffffff1614801580156119ac57503373ffffffffffffffffffffffffffffffffffffffff851614155b8015611a8857506040517fc161c93f00000000000000000000000000000000000000000000000000000000815233600482015273ffffffffffffffffffffffffffffffffffffffff858116602483015260448201859052606482018490527f0000000000000000000000000000000000000000000000000000000000000000169063c161c93f9060840160206040518083038186803b158015611a4e57600080fd5b505afa158015611a62573d6000803e3d6000fd5b505050506040513d601f19601f82011682018060405250810190611a869190614d5f565b155b8015611b6457506040517fc161c93f00000000000000000000000000000000000000000000000000000000815233600482015273ffffffffffffffffffffffffffffffffffffffff858116602483015260006044830152606482018490527f0000000000000000000000000000000000000000000000000000000000000000169063c161c93f9060840160206040518083038186803b158015611b2a57600080fd5b505afa158015611b3e573d6000803e3d6000fd5b505050506040513d601f19601f82011682018060405250810190611b629190614d5f565b155b15611b9b576040517f075fd2b100000000000000000000000000000000000000000000000000000000815260040160405180910390fd5b60026001541415611c08576040517f08c379a000000000000000000000000000000000000000000000000000000000815260206004820152601f60248201527f5265656e7472616e637947756172643a207265656e7472616e742063616c6c006044820152606401610710565b600260018190556000868152602091825260408082208054825181860281018601909352808352929391929091849084015b82821015611ca557600084815260209081902060408051606081018252600286029092018054835260019081015463ffffffff811684860152640100000000900473ffffffffffffffffffffffffffffffffffffffff16918301919091529083529092019101611c3a565b50505050905060005b8151811015611d7157611d5f611d14838381518110611ccf57611ccf615aac565b602002602001015160000151633b9aca0080868681518110611cf357611cf3615aac565b60200260200101516020015163ffffffff16611d0f919061581b565b6134d2565b838381518110611d2657611d26615aac565b602002602001015160000151611d3c91906159d2565b838381518110611d4e57611d4e615aac565b6020026020010151604001516135dd565b80611d6981615a15565b915050611cae565b506000868152600260205260408120611d8991614982565b857f8d2ea94fb29422091b5a6b535e295fa8674108fb2f7ac5a386627ae17579e0008233604051611dbb92919061550f565b60405180910390a250506001805550505050565b606060026000838152602001908152602001600020805480602002602001604051908101604052809291908181526020016000905b82821015611e6f57600084815260209081902060408051606081018252600286029092018054835260019081015463ffffffff811684860152640100000000900473ffffffffffffffffffffffffffffffffffffffff16918301919091529083529092019101611e04565b505050509050919050565b6040517fd49031c000000000000000000000000000000000000000000000000000000000815230600482015260248101829052600090819073ffffffffffffffffffffffffffffffffffffffff7f0000000000000000000000000000000000000000000000000000000000000000169063d49031c09060440160206040518083038186803b158015611f0b57600080fd5b505afa158015611f1f573d6000803e3d6000fd5b505050506040513d601f19601f82011682018060405250810190611f439190614e51565b905060007f0000000000000000000000000000000000000000000000000000000000000000601214611fa057611f9b827f00000000000000000000000000000000000000000000000000000000000000006012613807565b611fa2565b815b905060017f00000000000000000000000000000000000000000000000000000000000000001461210a5761210581611ffb7f0000000000000000000000000000000000000000000000000000000000000000600a6158cf565b6040517fa4d0caf20000000000000000000000000000000000000000000000000000000081527f00000000000000000000000000000000000000000000000000000000000000006004820152600160248201527f000000000000000000000000000000000000000000000000000000000000000060448201527f000000000000000000000000000000000000000000000000000000000000000073ffffffffffffffffffffffffffffffffffffffff169063a4d0caf29060640160206040518083038186803b1580156120cd57600080fd5b505afa1580156120e1573d6000803e3d6000fd5b505050506040513d601f19601f82011682018060405250810190611d0f9190614e51565b61210c565b805b949350505050565b60026001541415612181576040517f08c379a000000000000000000000000000000000000000000000000000000000815260206004820152601f60248201527f5265656e7472616e637947756172643a207265656e7472616e742063616c6c006044820152606401610710565b60026001556040517f6e49181f0000000000000000000000000000000000000000000000000000000081526004810189905230602482015288907f000000000000000000000000000000000000000000000000000000000000000073ffffffffffffffffffffffffffffffffffffffff1690636e49181f9060440160206040518083038186803b15801561221457600080fd5b505afa158015612228573d6000803e3d6000fd5b505050506040513d601f19601f8201168201806040525081019061224c9190614d5f565b612282576040517fd8ead2c800000000000000000000000000000000000000000000000000000000815260040160405180910390fd5b7f000000000000000000000000000000000000000000000000000000000000000073ffffffffffffffffffffffffffffffffffffffff1661eeee146123095734156122f9576040517fbcfd35be00000000000000000000000000000000000000000000000000000000815260040160405180910390fd5b61230433308c61333a565b61230d565b3499505b6123868a338b8b8b8b8b8b8080601f01602080910402602001604051908101604052809392919081815260200183838082843760009201919091525050604080516020601f8f018190048102820181019092528d815292508d91508c908190840183828082843760009201919091525061386592505050565b5050600180555050505050505050565b600060026001541415612405576040517f08c379a000000000000000000000000000000000000000000000000000000000815260206004820152601f60248201527f5265656e7472616e637947756172643a207265656e7472616e742063616c6c006044820152606401610710565b60026001819055889088903373ffffffffffffffffffffffffffffffffffffffff84161480159061250657506040517fc161c93f00000000000000000000000000000000000000000000000000000000815233600482015273ffffffffffffffffffffffffffffffffffffffff848116602483015260448201849052606482018390527f0000000000000000000000000000000000000000000000000000000000000000169063c161c93f9060840160206040518083038186803b1580156124cc57600080fd5b505afa1580156124e0573d6000803e3d6000fd5b505050506040513d601f19601f820116820180604052508101906125049190614d5f565b155b80156125e257506040517fc161c93f00000000000000000000000000000000000000000000000000000000815233600482015273ffffffffffffffffffffffffffffffffffffffff848116602483015260006044830152606482018390527f0000000000000000000000000000000000000000000000000000000000000000169063c161c93f9060840160206040518083038186803b1580156125a857600080fd5b505afa1580156125bc573d6000803e3d6000fd5b505050506040513d601f19601f820116820180604052508101906125e09190614d5f565b155b15612619576040517f075fd2b100000000000000000000000000000000000000000000000000000000815260040160405180910390fd5b73ffffffffffffffffffffffffffffffffffffffff8716612666576040517ff74a1b6600000000000000000000000000000000000000000000000000000000815260040160405180910390fd5b6126cb60405180610120016040528060008152602001600081526020016000815260200160008152602001600081526020016000815260200160008152602001600073ffffffffffffffffffffffffffffffffffffffff168152602001600081525090565b60007f000000000000000000000000000000000000000000000000000000000000000073ffffffffffffffffffffffffffffffffffffffff16634a35c01c8e8e8e7f00000000000000000000000000000000000000000000000000000000000000007f00000000000000000000000000000000000000000000000000000000000000008f8f8f6040518963ffffffff1660e01b8152600401612774989796959493929190615487565b600060405180830381600087803b15801561278e57600080fd5b505af11580156127a2573d6000803e3d6000fd5b505050506040513d6000823e601f3d9081017fffffffffffffffffffffffffffffffffffffffffffffffffffffffffffffffe01682016040526127e89190810190614dc8565b9a5090975090925090508986101561282c576040517ff896960b00000000000000000000000000000000000000000000000000000000815260040160405180910390fd5b8a15612997576040517f5dd8f6aa000000000000000000000000000000000000000000000000000000008152600481018d90527f000000000000000000000000000000000000000000000000000000000000000073ffffffffffffffffffffffffffffffffffffffff1690635dd8f6aa9060240160206040518083038186803b1580156128b857600080fd5b505afa1580156128cc573d6000803e3d6000fd5b505050506040513d601f19601f820116820180604052508101906128f09190614b75565b6040517f1665bc0f00000000000000000000000000000000000000000000000000000000815273ffffffffffffffffffffffffffffffffffffffff8f81166004830152602482018f9052604482018e905260a06064830152600060a4830181905260848301529190911690631665bc0f9060c401600060405180830381600087803b15801561297e57600080fd5b505af1158015612992573d6000803e3d6000fd5b505050505b73ffffffffffffffffffffffffffffffffffffffff811615612b695760006040518060e001604052808f73ffffffffffffffffffffffffffffffffffffffff1681526020018e81526020018d815260200160405180608001604052807f000000000000000000000000000000000000000000000000000000000000000073ffffffffffffffffffffffffffffffffffffffff1681526020018a81526020017f000000000000000000000000000000000000000000000000000000000000000081526020017f000000000000000000000000000000000000000000000000000000000000000081525081526020018b73ffffffffffffffffffffffffffffffffffffffff1681526020018a81526020018981525090508173ffffffffffffffffffffffffffffffffffffffff166343e1db27826040518263ffffffff1660e01b8152600401612ae5919061556d565b600060405180830381600087803b158015612aff57600080fd5b505af1158015612b13573d6000803e3d6000fd5b505050508173ffffffffffffffffffffffffffffffffffffffff167fae50d9bddbe6ac4bc3773182fa294bce3492ee93a9d32ae21ad4f6ebb618c7f98233604051612b5f929190615580565b60405180910390a2505b508415612b7b57612b7b30898761333a565b8a816000015182602001517fd2b8b011245528ed3c6d92b102e0cd9895bb1910613b04dd42d7c9ac3781612d8f8c8f8b8e33604051612bbf96959493929190615344565b60405180910390a4505060018055509098975050505050505050565b60026001541415612c48576040517f08c379a000000000000000000000000000000000000000000000000000000000815260206004820152601f60248201527f5265656e7472616e637947756172643a207265656e7472616e742063616c6c006044820152606401610710565b60026001556040517f4d9cd5ac0000000000000000000000000000000000000000000000000000000081526004810186905260248101859052604481018490527f0000000000000000000000000000000000000000000000000000000000000000606482015260009081907f000000000000000000000000000000000000000000000000000000000000000073ffffffffffffffffffffffffffffffffffffffff1690634d9cd5ac9060840161014060405180830381600087803b158015612d0f57600080fd5b505af1158015612d23573d6000803e3d6000fd5b505050506040513d601f19601f82011682018060405250810190612d479190614d99565b9150915083811015612d85576040517fb01493c100000000000000000000000000000000000000000000000000000000815260040160405180910390fd5b6040517f6352211e000000000000000000000000000000000000000000000000000000008152600481018890526000907f000000000000000000000000000000000000000000000000000000000000000073ffffffffffffffffffffffffffffffffffffffff1690636352211e9060240160206040518083038186803b158015612e0e57600080fd5b505afa158015612e22573d6000803e3d6000fd5b505050506040513d601f19601f82011682018060405250810190612e469190614b75565b90506000806000600354600014612e6557612e608b61306b565b612e6b565b633b9aca005b90506000612e7b8c888885613e1d565b9093509050612e8a838261581b565b9050633b9aca00821480612e9c575080155b612eb257612ead8c8883888661325a565b612eb5565b60005b93508215612edb57612edb3086612ecc86866144db565b612ed690876159d2565b61333a565b505089856000015186602001517f24352f49df447b14e0e08a323625c663d865ce20c343c4638af12e1dc48aa760868d8988888e33604051612f2397969594939291906152e5565b60405180910390a45050600180555050505050505050565b60005473ffffffffffffffffffffffffffffffffffffffff163314612fbc576040517f08c379a000000000000000000000000000000000000000000000000000000000815260206004820181905260248201527f4f776e61626c653a2063616c6c6572206973206e6f7420746865206f776e65726044820152606401610710565b73ffffffffffffffffffffffffffffffffffffffff811661305f576040517f08c379a000000000000000000000000000000000000000000000000000000000815260206004820152602660248201527f4f776e61626c653a206e6577206f776e657220697320746865207a65726f206160448201527f64647265737300000000000000000000000000000000000000000000000000006064820152608401610710565b61306881613349565b50565b6040517f862026500000000000000000000000000000000000000000000000000000000081526001600482015273ffffffffffffffffffffffffffffffffffffffff7f00000000000000000000000000000000000000000000000000000000000000008116602483015260009182917f0000000000000000000000000000000000000000000000000000000000000000169063862026509060440160206040518083038186803b15801561311e57600080fd5b505afa158015613132573d6000803e3d6000fd5b505050506040513d601f19601f820116820180604052508101906131569190614b75565b73ffffffffffffffffffffffffffffffffffffffff16141561317d5750633b9aca00919050565b60045473ffffffffffffffffffffffffffffffffffffffff161561324057600480546040517f7769589600000000000000000000000000000000000000000000000000000000815291820184905273ffffffffffffffffffffffffffffffffffffffff169063776958969060240160206040518083038186803b15801561320357600080fd5b505afa158015613217573d6000803e3d6000fd5b505050506040513d601f19601f8201168201806040525081019061323b9190614e51565b613243565b60005b9050633b9aca00811115613255575060005b919050565b600061326684836144db565b61010086015190915060401c60019081161461328b5761328681846135dd565b613331565b6000868152600260208181526040808420815160608101835289815260035463ffffffff90811682860190815273ffffffffffffffffffffffffffffffffffffffff808c16958401958652845460018181018755958a52969098209251959096029091019384559351920180549151909416640100000000027fffffffffffffffff00000000000000000000000000000000000000000000000090911691909216171790555b95945050505050565b6133448282614525565b505050565b6000805473ffffffffffffffffffffffffffffffffffffffff8381167fffffffffffffffffffffffff0000000000000000000000000000000000000000831681178455604051919092169283917f8be0079c531659141344cd1fd0a4f28419497f9722a3daafe3b4186f6b6457e09190a35050565b6040517fe7c8e3e300000000000000000000000000000000000000000000000000000000815260048101839052602481018490527f000000000000000000000000000000000000000000000000000000000000000073ffffffffffffffffffffffffffffffffffffffff169063e7c8e3e39060440161012060405180830381600087803b15801561344e57600080fd5b505af1158015613462573d6000803e3d6000fd5b505050506040513d601f19601f820116820180604052508101906134869190614d7c565b50613491828461467f565b817f4ce42b42caaa564737146f357a8fa7fe24940fac843d392a69e23b32a1d766a38483336040516134c59392919061561f565b60405180910390a2505050565b600080807fffffffffffffffffffffffffffffffffffffffffffffffffffffffffffffffff858709858702925082811083820303915050806000141561352b5783828161352157613521615a7d565b04925050506135d6565b83811061356e576040517f773cc18c0000000000000000000000000000000000000000000000000000000081526004810182905260248101859052604401610710565b600084868809851960019081018716968790049682860381900495909211909303600082900391909104909201919091029190911760038402600290811880860282030280860282030280860282030280860282030280860282030280860290910302029150505b9392505050565b6040517f862026500000000000000000000000000000000000000000000000000000000081526001600482015273ffffffffffffffffffffffffffffffffffffffff7f0000000000000000000000000000000000000000000000000000000000000000811660248301526000917f00000000000000000000000000000000000000000000000000000000000000009091169063862026509060440160206040518083038186803b15801561369057600080fd5b505afa1580156136a4573d6000803e3d6000fd5b505050506040513d601f19601f820116820180604052508101906136c89190614b75565b905073ffffffffffffffffffffffffffffffffffffffff81163014156137185761334483306001856000806040518060200160405280600081525060405180602001604052806000815250613865565b60007f000000000000000000000000000000000000000000000000000000000000000073ffffffffffffffffffffffffffffffffffffffff1661eeee14613760576000613762565b835b60408051602081018252600080825291517fabe151b700000000000000000000000000000000000000000000000000000000815292935073ffffffffffffffffffffffffffffffffffffffff85169263abe151b79285926137cf928a926001928b9282919060040161565e565b6000604051808303818588803b1580156137e857600080fd5b505af11580156137fc573d6000803e3d6000fd5b505050505050505050565b6000828214156138185750826135d6565b828211156138465761382a83836159d2565b61383590600a6158cf565b61383f9085615995565b90506135d6565b61385082846159d2565b61385b90600a6158cf565b61383f9085615833565b73ffffffffffffffffffffffffffffffffffffffff85166138b2576040517fa762251300000000000000000000000000000000000000000000000000000000815260040160405180910390fd5b61391760405180610120016040528060008152602001600081526020016000815260200160008152602001600081526020016000815260200160008152602001600073ffffffffffffffffffffffffffffffffffffffff168152602001600081525090565b60008060008060405180608001604052807f000000000000000000000000000000000000000000000000000000000000000073ffffffffffffffffffffffffffffffffffffffff1681526020018e81526020017f000000000000000000000000000000000000000000000000000000000000000081526020017f000000000000000000000000000000000000000000000000000000000000000081525090507f000000000000000000000000000000000000000000000000000000000000000073ffffffffffffffffffffffffffffffffffffffff16638910c7da8d838e8e7f00000000000000000000000000000000000000000000000000000000000000008d8d6040518863ffffffff1660e01b8152600401613a3b9796959493929190615388565b600060405180830381600087803b158015613a5557600080fd5b505af1158015613a69573d6000803e3d6000fd5b505050506040513d6000823e601f3d9081017fffffffffffffffffffffffffffffffffffffffffffffffffffffffffffffffe0168201604052613aaf9190810190614dc8565b995091965090935091508115613c4e576040517f5dd8f6aa000000000000000000000000000000000000000000000000000000008152600481018c90527f000000000000000000000000000000000000000000000000000000000000000073ffffffffffffffffffffffffffffffffffffffff1690635dd8f6aa9060240160206040518083038186803b158015613b4557600080fd5b505afa158015613b59573d6000803e3d6000fd5b505050506040513d601f19601f82011682018060405250810190613b7d9190614b75565b6040517f8ae9c07b000000000000000000000000000000000000000000000000000000008152600481018d90526024810184905273ffffffffffffffffffffffffffffffffffffffff8c8116604483015260c06064830152600060c48301528a15156084830152600160a48301529190911690638ae9c07b9060e401602060405180830381600087803b158015613c1357600080fd5b505af1158015613c27573d6000803e3d6000fd5b505050506040513d601f19601f82011682018060405250810190613c4b9190614e51565b93505b88841015613c88576040517f7b94612600000000000000000000000000000000000000000000000000000000815260040160405180910390fd5b73ffffffffffffffffffffffffffffffffffffffff831615613dc45760006040518060e001604052808e73ffffffffffffffffffffffffffffffffffffffff1681526020018d81526020018381526020018681526020018c73ffffffffffffffffffffffffffffffffffffffff1681526020018981526020018881525090508373ffffffffffffffffffffffffffffffffffffffff1663185856a1826040518263ffffffff1660e01b8152600401613d409190615547565b600060405180830381600087803b158015613d5a57600080fd5b505af1158015613d6e573d6000803e3d6000fd5b505050508373ffffffffffffffffffffffffffffffffffffffff167f7c66059d4a9f68466678168c1c369a1532ce0c8cec8da9b0a40703d29ff1c7b38233604051613dba92919061555a565b60405180910390a2505b50505087826000015183602001517f90a505d9899718702d1f8f9a21ba0bb545df8f5f70efdc5cd51b534191a304af8a8e868a33604051613e09959493929190615436565b60405180910390a450505050505050505050565b60208301516040517f69e11cc50000000000000000000000000000000000000000000000000000000081526004810186905260248101919091527f00000000000000000000000000000000000000000000000000000000000000006044820152829060009081907f000000000000000000000000000000000000000000000000000000000000000073ffffffffffffffffffffffffffffffffffffffff16906369e11cc59060640160006040518083038186803b158015613edd57600080fd5b505afa158015613ef1573d6000803e3d6000fd5b505050506040513d6000823e601f3d9081017fffffffffffffffffffffffffffffffffffffffffffffffffffffffffffffffe0168201604052613f379190810190614c4c565b905060005b81518110156144d0576000828281518110613f5957613f59615aac565b602002602001015190506000613f78888360200151633b9aca006134d2565b9050600081156144745760a083015173ffffffffffffffffffffffffffffffffffffffff16156140be57633b9aca008814613fc657613fb782896144db565b613fc190836159d2565b613fc8565b815b9050613fd4828761581b565b955060007f000000000000000000000000000000000000000000000000000000000000000073ffffffffffffffffffffffffffffffffffffffff1661eeee1461401e576000614020565b815b90508360a0015173ffffffffffffffffffffffffffffffffffffffff1663550b043282848f7f0000000000000000000000000000000000000000000000000000000000000000896040518663ffffffff1660e01b815260040161408694939291906156c3565b6000604051808303818588803b15801561409f57600080fd5b505af11580156140b3573d6000803e3d6000fd5b505050505050614467565b6040830151156143e45760408084015190517f8620265000000000000000000000000000000000000000000000000000000000815260009173ffffffffffffffffffffffffffffffffffffffff7f00000000000000000000000000000000000000000000000000000000000000001691638620265091614181917f00000000000000000000000000000000000000000000000000000000000000009060040191825273ffffffffffffffffffffffffffffffffffffffff16602082015260400190565b60206040518083038186803b15801561419957600080fd5b505afa1580156141ad573d6000803e3d6000fd5b505050506040513d601f19601f820116820180604052508101906141d19190614b75565b905073ffffffffffffffffffffffffffffffffffffffff8116614220576040517f6921234300000000000000000000000000000000000000000000000000000000815260040160405180910390fd5b73ffffffffffffffffffffffffffffffffffffffff81163014156142815782915061427c823086604001518760600151600089600001516040518060200160405280600081525060405180602001604052806000815250613865565b6143de565b73ffffffffffffffffffffffffffffffffffffffff811660009081526005602052604090205460ff16156142b7578291506142ec565b633b9aca0089146142db576142cc838a6144db565b6142d690846159d2565b6142dd565b825b91506142e9838861581b565b96505b60007f000000000000000000000000000000000000000000000000000000000000000073ffffffffffffffffffffffffffffffffffffffff1661eeee14614334576000614336565b825b604080870151606088015188518351602081018552600080825294517fabe151b700000000000000000000000000000000000000000000000000000000815295965073ffffffffffffffffffffffffffffffffffffffff88169563abe151b79588956143aa958c959194909360040161565e565b6000604051808303818588803b1580156143c357600080fd5b505af11580156143d7573d6000803e3d6000fd5b5050505050505b50614467565b633b9aca008814614408576143f982896144db565b61440390836159d2565b61440a565b815b9050614416828761581b565b955061446730600073ffffffffffffffffffffffffffffffffffffffff16856060015173ffffffffffffffffffffffffffffffffffffffff16141561445b5733614461565b84606001515b8361333a565b61447182886159d2565b96505b8a8a600001518b602001517fd5a0ea197eec97b08a67e43169564f3b9b9aaa22f7b3e1652c8e6417b7cf03168685336040516144b293929190615593565b60405180910390a450505080806144c890615a15565b915050613f3c565b505094509492505050565b6000806144ef60035484633b9aca006134d2565b6003546144fc91906159d2565b905061451184633b9aca00611d0f818561581b565b61451b90856159d2565b9150505b92915050565b8047101561458f576040517f08c379a000000000000000000000000000000000000000000000000000000000815260206004820152601d60248201527f416464726573733a20696e73756666696369656e742062616c616e63650000006044820152606401610710565b60008273ffffffffffffffffffffffffffffffffffffffff168260405160006040518083038185875af1925050503d80600081146145e9576040519150601f19603f3d011682016040523d82523d6000602084013e6145ee565b606091505b5050905080613344576040517f08c379a000000000000000000000000000000000000000000000000000000000815260206004820152603a60248201527f416464726573733a20756e61626c6520746f2073656e642076616c75652c207260448201527f6563697069656e74206d617920686176652072657665727465640000000000006064820152608401610710565b600082815260026020908152604080832080548251818502810185019093528083529192909190849084015b8282101561471657600084815260209081902060408051606081018252600286029092018054835260019081015463ffffffff811684860152640100000000900473ffffffffffffffffffffffffffffffffffffffff169183019190915290835290920191016146ab565b5050506000858152600260205260408120929350614735929150614982565b60005b815181101561497c57826147f9576000848152600260205260409020825183908390811061476857614768615aac565b60209081029190910181015182546001818101855560009485529383902082516002909202019081559181015191909201805460409093015173ffffffffffffffffffffffffffffffffffffffff16640100000000027fffffffffffffffff00000000000000000000000000000000000000000000000090931663ffffffff9092169190911791909117905561496a565b81818151811061480b5761480b615aac565b602002602001015160000151831061484d5781818151811061482f5761482f615aac565b6020026020010151600001518361484691906159d2565b925061496a565b6002600085815260200190815260200160002060405180606001604052808585858151811061487e5761487e615aac565b60200260200101516000015161489491906159d2565b81526020018484815181106148ab576148ab615aac565b60200260200101516020015163ffffffff1681526020018484815181106148d4576148d4615aac565b60209081029190910181015160409081015173ffffffffffffffffffffffffffffffffffffffff9081169093528454600181810187556000968752838720865160029093020191825592850151920180549490910151909216640100000000027fffffffffffffffff00000000000000000000000000000000000000000000000090931663ffffffff9091161791909117905592505b8061497481615a15565b915050614738565b50505050565b508054600082556002029060005260206000209081019061306891905b808211156149dd57600081556001810180547fffffffffffffffff00000000000000000000000000000000000000000000000016905560020161499f565b5090565b60006149f46149ef846157d5565b615786565b9050828152838383011115614a0857600080fd5b828260208301376000602084830101529392505050565b60008083601f840112614a3157600080fd5b50813567ffffffffffffffff811115614a4957600080fd5b602083019150836020828501011115614a6157600080fd5b9250929050565b805161325581615b0a565b600082601f830112614a8457600080fd5b6135d6838335602085016149e1565b600082601f830112614aa457600080fd5b8151614ab26149ef826157d5565b818152846020838601011115614ac757600080fd5b61210c8260208301602087016159e9565b60006101208284031215614aeb57600080fd5b614af3615739565b9050815181526020820151602082015260408201516040820152606082015160608201526080820151608082015260a082015160a082015260c082015160c0820152614b4160e08301614a68565b60e082015261010080830151818301525092915050565b600060208284031215614b6a57600080fd5b81356135d681615b0a565b600060208284031215614b8757600080fd5b81516135d681615b0a565b600080600080600080600060e0888a031215614bad57600080fd5b8735614bb881615b0a565b96506020880135955060408801359450606088013593506080880135614bdd81615b0a565b925060a088013567ffffffffffffffff80821115614bfa57600080fd5b614c068b838c01614a73565b935060c08a0135915080821115614c1c57600080fd5b508801601f81018a13614c2e57600080fd5b614c3d8a8235602084016149e1565b91505092959891949750929550565b60006020808385031215614c5f57600080fd5b825167ffffffffffffffff80821115614c7757600080fd5b818501915085601f830112614c8b57600080fd5b815181811115614c9d57614c9d615adb565b614cab848260051b01615786565b818152848101925083850160c0808402860187018a1015614ccb57600080fd5b60009550855b84811015614d505781838c031215614ce7578687fd5b614cef615763565b8351614cfa81615b2c565b8152838901518982015260408085015190820152606080850151614d1d81615b0a565b908201526080848101519082015260a080850151614d3a81615b0a565b9082015286529487019491810191600101614cd1565b50919998505050505050505050565b600060208284031215614d7157600080fd5b81516135d681615b2c565b60006101208284031215614d8f57600080fd5b6135d68383614ad8565b6000806101408385031215614dad57600080fd5b614db78484614ad8565b915061012083015190509250929050565b6000806000806101808587031215614ddf57600080fd5b614de98686614ad8565b93506101208501519250610140850151614e0281615b0a565b61016086015190925067ffffffffffffffff811115614e2057600080fd5b614e2c87828801614a93565b91505092959194509250565b600060208284031215614e4a57600080fd5b5035919050565b600060208284031215614e6357600080fd5b5051919050565b60008060408385031215614e7d57600080fd5b823591506020830135614e8f81615b0a565b809150509250929050565b600080600080600080600080600060e08a8c031215614eb857600080fd5b8935985060208a0135975060408a0135614ed181615b0a565b965060608a0135955060808a0135614ee881615b2c565b945060a08a013567ffffffffffffffff80821115614f0557600080fd5b614f118d838e01614a1f565b909650945060c08c0135915080821115614f2a57600080fd5b50614f378c828d01614a1f565b915080935050809150509295985092959850929598565b600080600060608486031215614f6357600080fd5b8335925060208401359150604084013567ffffffffffffffff811115614f8857600080fd5b614f9486828701614a73565b9150509250925092565b60008060008060008060c08789031215614fb757600080fd5b863595506020870135945060408701359350606087013592506080870135614fde81615b0a565b915060a087013567ffffffffffffffff811115614ffa57600080fd5b61500689828a01614a73565b9150509295509295509295565b600080600080600060a0868803121561502b57600080fd5b85359450602086013593506040860135925060608601359150608086013567ffffffffffffffff81111561505e57600080fd5b61506a88828901614a73565b9150509295509295909350565b600081518084526020808501945080840160005b838110156150d9578151805188528381015163ffffffff168489015260409081015173ffffffffffffffffffffffffffffffffffffffff16908801526060909601959082019060010161508b565b509495945050505050565b600081518084526150fc8160208601602086016159e9565b601f017fffffffffffffffffffffffffffffffffffffffffffffffffffffffffffffffe0169290920160200192915050565b600061014073ffffffffffffffffffffffffffffffffffffffff8084511685526020840151602086015260408401516151a1604087018273ffffffffffffffffffffffffffffffffffffffff81511682526020810151602083015260408101516040830152606081015160608301525050565b50606084015160c086015260808401511660e085015260a083015161010085018290526151d0828601826150e4565b91505060c083015184820361012086015261333182826150e4565b600061014073ffffffffffffffffffffffffffffffffffffffff80845116855260208401516020860152604084015160408601526060840151615268606087018273ffffffffffffffffffffffffffffffffffffffff81511682526020810151602083015260408101516040830152606081015160608301525050565b5060808401511660e085015260a083015161010085018290526151d0828601826150e4565b600073ffffffffffffffffffffffffffffffffffffffff808916835287602084015286604084015285606084015260c060808401526152cf60c08401866150e4565b915080841660a084015250979650505050505050565b600073ffffffffffffffffffffffffffffffffffffffff808a16835288602084015287604084015286606084015285608084015260e060a084015261532d60e08401866150e4565b915080841660c08401525098975050505050505050565b600073ffffffffffffffffffffffffffffffffffffffff8089168352808816602084015286604084015285606084015260c060808401526152cf60c08401866150e4565b600061014073ffffffffffffffffffffffffffffffffffffffff808b1684526153eb602085018b73ffffffffffffffffffffffffffffffffffffffff81511682526020810151602083015260408101516040830152606081015160608301525050565b8860a085015280881660c0850152508560e084015280610100840152615413818401866150e4565b905082810361012084015261542881856150e4565b9a9950505050505050505050565b600073ffffffffffffffffffffffffffffffffffffffff808816835286602084015285604084015260a0606084015261547260a08401866150e4565b91508084166080840152509695505050505050565b600061010073ffffffffffffffffffffffffffffffffffffffff808c1684528a602085015289604085015288606085015287608085015280871660a0850152508060c08401526154d9818401866150e4565b905082810360e08401526154ed81856150e4565b9b9a5050505050505050505050565b6020815260006135d66020830184615077565b6040815260006155226040830185615077565b905073ffffffffffffffffffffffffffffffffffffffff831660208301529392505050565b6020815260006135d6602083018461512e565b604081526000615522604083018561512e565b6020815260006135d660208301846151eb565b60408152600061552260408301856151eb565b61010081016155f582868051151582526020810151602083015260408101516040830152606081015173ffffffffffffffffffffffffffffffffffffffff8082166060850152608083015160808501528060a08401511660a085015250505050565b8360c083015273ffffffffffffffffffffffffffffffffffffffff831660e0830152949350505050565b83815260606020820152600061563860608301856150e4565b905073ffffffffffffffffffffffffffffffffffffffff83166040830152949350505050565b86815285602082015273ffffffffffffffffffffffffffffffffffffffff85166040820152836060820152821515608082015260e060a0820152600060e082015260006101008060c08401526156b6818401856150e4565b9998505050505050505050565b8481526020810184905260408101839052610120810161333160608301848051151582526020810151602083015260408101516040830152606081015173ffffffffffffffffffffffffffffffffffffffff8082166060850152608083015160808501528060a08401511660a085015250505050565b604051610120810167ffffffffffffffff8111828210171561575d5761575d615adb565b60405290565b60405160c0810167ffffffffffffffff8111828210171561575d5761575d615adb565b604051601f82017fffffffffffffffffffffffffffffffffffffffffffffffffffffffffffffffe016810167ffffffffffffffff811182821017156157cd576157cd615adb565b604052919050565b600067ffffffffffffffff8211156157ef576157ef615adb565b50601f017fffffffffffffffffffffffffffffffffffffffffffffffffffffffffffffffe01660200190565b6000821982111561582e5761582e615a4e565b500190565b600082615869577f4e487b7100000000000000000000000000000000000000000000000000000000600052601260045260246000fd5b500490565b600181815b808511156158c757817fffffffffffffffffffffffffffffffffffffffffffffffffffffffffffffffff048211156158ad576158ad615a4e565b808516156158ba57918102915b93841c9390800290615873565b509250929050565b60006135d683836000826158e55750600161451f565b816158f25750600061451f565b816001811461590857600281146159125761592e565b600191505061451f565b60ff84111561592357615923615a4e565b50506001821b61451f565b5060208310610133831016604e8410600b8410161715615951575081810a61451f565b61595b838361586e565b807fffffffffffffffffffffffffffffffffffffffffffffffffffffffffffffffff0482111561598d5761598d615a4e565b029392505050565b6000817fffffffffffffffffffffffffffffffffffffffffffffffffffffffffffffffff04831182151516156159cd576159cd615a4e565b500290565b6000828210156159e4576159e4615a4e565b500390565b60005b83811015615a045781810151838201526020016159ec565b8381111561497c5750506000910152565b60007fffffffffffffffffffffffffffffffffffffffffffffffffffffffffffffffff821415615a4757615a47615a4e565b5060010190565b7f4e487b7100000000000000000000000000000000000000000000000000000000600052601160045260246000fd5b7f4e487b7100000000000000000000000000000000000000000000000000000000600052601260045260246000fd5b7f4e487b7100000000000000000000000000000000000000000000000000000000600052603260045260246000fd5b7f4e487b7100000000000000000000000000000000000000000000000000000000600052604160045260246000fd5b73ffffffffffffffffffffffffffffffffffffffff8116811461306857600080fd5b801515811461306857600080fdfea26469706673582212200d8cfa74ce74f2a466506228a142efed155452eb712d237171312d105ff59b4364736f6c63430008060033",
  "devdoc": {
    "kind": "dev",
    "methods": {
      "addToBalanceOf(uint256,uint256,string)": {
        "params": {
          "_amount": "The amount of tokens to add, as a fixed point number with 18 decimals. If this is an ETH terminal, this is ignored and msg.value is used instead.",
          "_memo": "A memo to pass along to the emitted event.",
          "_projectId": "The ID of the project to which the funds received belong."
        }
      },
      "currentEthOverflowOf(uint256)": {
        "details": "The current overflow is represented as a fixed point number with 18 decimals.",
        "params": {
          "_projectId": "The ID of the project to get overflow for."
        },
        "returns": {
          "_0": "The current amount of ETH overflow that project has in this terminal, as a fixed point number with 18 decimals."
        }
      },
      "distributePayoutsOf(uint256,uint256,uint256,uint256,string)": {
        "details": "Payouts are sent to the preprogrammed splits. Any leftover is sent to the project's owner.Anyone can distribute payouts on a project's behalf. The project can preconfigure a wildcard split that is used to send funds to msg.sender. This can be used to incentivize calling this function.",
        "params": {
          "_amount": "The amount of terminal tokens to distribute, as a fixed point number with 18 decimals.",
          "_currency": "The expected currency of the amount being distributed. Must match the project's current funding cycle's distribution limit currency.",
          "_memo": "A memo to pass along to the emitted event.",
          "_minReturnedTokens": "The minimum number of terminal tokens that the `_amount` should be valued at in terms of this terminal's currency, as a fixed point number with 18 decimals.",
          "_projectId": "The ID of the project having its payouts distributed."
        }
      },
      "heldFeesOf(uint256)": {
        "params": {
          "_projectId": "The ID of the project for which fees are being held."
        },
        "returns": {
          "_0": "An array of fees that are being held."
        }
      },
      "migrate(uint256,address)": {
        "details": "Only a project's owner or a designated operator can migrate it.",
        "params": {
          "_projectId": "The ID of the project being migrated.",
          "_to": "The terminal contract that will gain the project's funds."
        }
      },
      "owner()": {
        "details": "Returns the address of the current owner."
      },
      "pay(uint256,uint256,address,uint256,bool,string,bytes)": {
        "params": {
          "_amount": "The amount of terminal tokens being received, as a fixed point number with 18 decimals. If this terminal's token is ETH, this is ignored and msg.value is used in its place.",
          "_beneficiary": "The address to mint tokens for and pass along to the funding cycle's data source and delegate.",
          "_memo": "A memo to pass along to the emitted event, and passed along the the funding cycle's data source and delegate.",
          "_metadata": "Bytes to send along to the data source and delegate, if provided.",
          "_minReturnedTokens": "The minimum number of project tokens expected in return, as a fixed point",
          "_preferClaimedTokens": "A flag indicating whether the request prefers to issue tokens unstaked rather than staked.",
          "_projectId": "The ID of the project being paid."
        }
      },
      "processFees(uint256)": {
        "details": "Only a project owner, an operator, or the contract's owner can process held fees.",
        "params": {
          "_projectId": "The ID of the project whos held fees should be processed."
        }
      },
      "redeemTokensOf(address,uint256,uint256,uint256,address,string,bytes)": {
        "details": "Only a token's holder or a designated operator can redeem it.",
        "params": {
          "_beneficiary": "The address to send the terminal tokens to.",
          "_holder": "The account to redeem tokens for.",
          "_memo": "A memo to pass along to the emitted event.",
          "_metadata": "Bytes to send along to the data source and delegate, if provided.",
          "_minReturnedTokens": "The minimum amount of terminal tokens expected in return, as a fixed point number with 18 decimals.",
          "_projectId": "The ID of the project to which the tokens being redeemed belong.",
          "_tokenCount": "The number of project tokens to redeem, as a fixed point number with 18 decimals."
        },
        "returns": {
          "reclaimAmount": "The amount of terminal tokens that the project tokens were redeemed for, as a fixed point number with 18 decimals."
        }
      },
      "renounceOwnership()": {
        "details": "Leaves the contract without owner. It will not be possible to call `onlyOwner` functions anymore. Can only be called by the current owner. NOTE: Renouncing ownership will leave the contract without an owner, thereby removing any functionality that is only available to the owner."
      },
      "setFee(uint256)": {
        "details": "Only the owner of this contract can change the fee.",
        "params": {
          "_fee": "The new fee, out of MAX_FEE."
        }
      },
      "setFeeGauge(address)": {
        "details": "Only the owner of this contract can change the fee gauge.",
        "params": {
          "_feeGauge": "The new fee gauge."
        }
      },
      "toggleFeelessTerminal(address)": {
        "details": "Only the owner of this contract can change the fee.",
        "params": {
          "_terminal": "The terminal that can be paid towards while still bypassing fees."
        }
      },
      "transferOwnership(address)": {
        "details": "Transfers ownership of the contract to a new account (`newOwner`). Can only be called by the current owner."
      },
      "useAllowanceOf(uint256,uint256,uint256,uint256,address,string)": {
        "details": "Only a project's owner or a designated operator can use its allowance.",
        "params": {
          "_amount": "The amount of terminal tokens to use from this project's current allowance, as a fixed point number with 18 decimals.",
          "_beneficiary": "The address to send the funds to.",
          "_currency": "The expected currency of the amount being distributed. Must match the project's current funding cycle's overflow allowance currency.",
          "_memo": "A memo to pass along to the emitted event.",
          "_minReturnedTokens": "The minimum number of tokens that the `_amount` should be valued at in terms of this terminal's currency, as a fixed point number with 18 decimals.",
          "_projectId": "The ID of the project to use the allowance of."
        }
      }
    },
    "version": 1
  },
  "userdoc": {
    "errors": {
      "PRBMath__MulDivOverflow(uint256,uint256)": [
        {
          "notice": "Emitted when the result overflows uint256."
        }
      ]
    },
    "kind": "user",
    "methods": {
      "addToBalanceOf(uint256,uint256,string)": {
        "notice": "Receives funds belonging to the specified project."
      },
      "baseWeightCurrency()": {
        "notice": "The currency to base token issuance on."
      },
      "currency()": {
        "notice": "The currency to use when resolving price feeds for this terminal."
      },
      "currentEthOverflowOf(uint256)": {
        "notice": "Gets the current overflowed amount in this for a specified project, in terms of ETH."
      },
      "decimals()": {
        "notice": "The number of decimals the token fixed point amounts are expected to have."
      },
      "directory()": {
        "notice": "The directory of terminals and controllers for projects."
      },
      "distributePayoutsOf(uint256,uint256,uint256,uint256,string)": {
        "notice": "Distributes payouts for a project according to the constraints of its current funding cycle."
      },
      "fee()": {
        "notice": "The platform fee percent."
      },
      "feeGauge()": {
        "notice": "The data source that returns a discount to apply to a project's fee."
      },
      "heldFeesOf(uint256)": {
        "notice": "The fees that are currently being held to be processed later for each project."
      },
      "isFeelessTerminal(address)": {
        "notice": "Terminals that can be paid towards from this terminal without incurring a fee. _terminal The terminal that can be paid toward."
      },
      "migrate(uint256,address)": {
        "notice": "Allows a project owner to migrate its funds and operations to a new terminal of the same token type."
      },
      "operatorStore()": {
        "notice": " A contract storing operator assignments."
      },
      "pay(uint256,uint256,address,uint256,bool,string,bytes)": {
        "notice": "Contribute ETH to a project."
      },
      "payoutSplitsGroup()": {
        "notice": "The group that payout splits coming from this terminal are identified by."
      },
      "prices()": {
        "notice": "The contract that exposes price feeds."
      },
      "processFees(uint256)": {
        "notice": "Process any fees that are being held for the project."
      },
      "projects()": {
        "notice": "The Projects contract which mints ERC-721's that represent project ownership and transfers."
      },
      "redeemTokensOf(address,uint256,uint256,uint256,address,string,bytes)": {
        "notice": "Addresses can redeem their tokens to claim the project's overflowed tokens, or to trigger rules determined by the project's current funding cycle's data source."
      },
      "setFee(uint256)": {
        "notice": "Allows the fee to be updated."
      },
      "setFeeGauge(address)": {
        "notice": "Allows the fee gauge to be updated."
      },
      "splitsStore()": {
        "notice": "The contract that stores splits for each project."
      },
      "store()": {
        "notice": "The contract that stores and manages the terminal's data."
      },
      "toggleFeelessTerminal(address)": {
        "notice": "Toggles whether projects operating on this terminal can pay projects operating on other terminals without incurring a fee."
      },
      "token()": {
        "notice": "The token that this terminal accepts."
      },
      "useAllowanceOf(uint256,uint256,uint256,uint256,address,string)": {
        "notice": "Allows a project to send funds from its overflow up to the preconfigured allowance."
      }
    },
    "version": 1
  },
  "storageLayout": {
    "storage": [
      {
        "astId": 53,
        "contract": "contracts/JBETHPaymentTerminal.sol:JBETHPaymentTerminal",
        "label": "_owner",
        "offset": 0,
        "slot": "0",
        "type": "t_address"
      },
      {
        "astId": 693,
        "contract": "contracts/JBETHPaymentTerminal.sol:JBETHPaymentTerminal",
        "label": "_status",
        "offset": 0,
        "slot": "1",
        "type": "t_uint256"
      },
      {
        "astId": 12293,
        "contract": "contracts/JBETHPaymentTerminal.sol:JBETHPaymentTerminal",
        "label": "_heldFeesOf",
        "offset": 0,
        "slot": "2",
        "type": "t_mapping(t_uint256,t_array(t_struct(JBFee)16219_storage)dyn_storage)"
      },
      {
        "astId": 12341,
        "contract": "contracts/JBETHPaymentTerminal.sol:JBETHPaymentTerminal",
        "label": "fee",
        "offset": 0,
        "slot": "3",
        "type": "t_uint256"
      },
      {
        "astId": 12346,
        "contract": "contracts/JBETHPaymentTerminal.sol:JBETHPaymentTerminal",
        "label": "feeGauge",
        "offset": 0,
        "slot": "4",
        "type": "t_contract(IJBFeeGauge)14384"
      },
      {
        "astId": 12353,
        "contract": "contracts/JBETHPaymentTerminal.sol:JBETHPaymentTerminal",
        "label": "isFeelessTerminal",
        "offset": 0,
        "slot": "5",
        "type": "t_mapping(t_contract(IJBPaymentTerminal)14672,t_bool)"
      }
    ],
    "types": {
      "t_address": {
        "encoding": "inplace",
        "label": "address",
        "numberOfBytes": "20"
      },
      "t_array(t_struct(JBFee)16219_storage)dyn_storage": {
        "base": "t_struct(JBFee)16219_storage",
        "encoding": "dynamic_array",
        "label": "struct JBFee[]",
        "numberOfBytes": "32"
      },
      "t_bool": {
        "encoding": "inplace",
        "label": "bool",
        "numberOfBytes": "1"
      },
      "t_contract(IJBFeeGauge)14384": {
        "encoding": "inplace",
        "label": "contract IJBFeeGauge",
        "numberOfBytes": "20"
      },
      "t_contract(IJBPaymentTerminal)14672": {
        "encoding": "inplace",
        "label": "contract IJBPaymentTerminal",
        "numberOfBytes": "20"
      },
      "t_mapping(t_contract(IJBPaymentTerminal)14672,t_bool)": {
        "encoding": "mapping",
        "key": "t_contract(IJBPaymentTerminal)14672",
        "label": "mapping(contract IJBPaymentTerminal => bool)",
        "numberOfBytes": "32",
        "value": "t_bool"
      },
      "t_mapping(t_uint256,t_array(t_struct(JBFee)16219_storage)dyn_storage)": {
        "encoding": "mapping",
        "key": "t_uint256",
        "label": "mapping(uint256 => struct JBFee[])",
        "numberOfBytes": "32",
        "value": "t_array(t_struct(JBFee)16219_storage)dyn_storage"
      },
      "t_struct(JBFee)16219_storage": {
        "encoding": "inplace",
        "label": "struct JBFee",
        "members": [
          {
            "astId": 16214,
            "contract": "contracts/JBETHPaymentTerminal.sol:JBETHPaymentTerminal",
            "label": "amount",
            "offset": 0,
            "slot": "0",
            "type": "t_uint256"
          },
          {
            "astId": 16216,
            "contract": "contracts/JBETHPaymentTerminal.sol:JBETHPaymentTerminal",
            "label": "fee",
            "offset": 0,
            "slot": "1",
            "type": "t_uint32"
          },
          {
            "astId": 16218,
            "contract": "contracts/JBETHPaymentTerminal.sol:JBETHPaymentTerminal",
            "label": "beneficiary",
            "offset": 4,
            "slot": "1",
            "type": "t_address"
          }
        ],
        "numberOfBytes": "64"
      },
      "t_uint256": {
        "encoding": "inplace",
        "label": "uint256",
        "numberOfBytes": "32"
      },
      "t_uint32": {
        "encoding": "inplace",
        "label": "uint32",
        "numberOfBytes": "4"
      }
    }
  }
}