{
  "address": "0x346ae80CE75BEe1B690F2949D1137F6664D1aCa3",
  "abi": [
    {
      "inputs": [
        {
          "internalType": "contract IJBPrices",
          "name": "_prices",
          "type": "address"
        },
        {
          "internalType": "contract IJBProjects",
          "name": "_projects",
          "type": "address"
        },
        {
          "internalType": "contract IJBDirectory",
          "name": "_directory",
          "type": "address"
        },
        {
          "internalType": "contract IJBFundingCycleStore",
          "name": "_fundingCycleStore",
          "type": "address"
        },
        {
          "internalType": "contract IJBTokenStore",
          "name": "_tokenStore",
          "type": "address"
        }
      ],
      "stateMutability": "nonpayable",
      "type": "constructor"
    },
    {
      "inputs": [],
      "name": "CURRENCY_MISMATCH",
      "type": "error"
    },
    {
      "inputs": [],
      "name": "DISTRIBUTION_AMOUNT_LIMIT_REACHED",
      "type": "error"
    },
    {
      "inputs": [],
      "name": "FUNDING_CYCLE_DISTRIBUTION_PAUSED",
      "type": "error"
    },
    {
      "inputs": [],
      "name": "FUNDING_CYCLE_PAYMENT_PAUSED",
      "type": "error"
    },
    {
      "inputs": [],
      "name": "FUNDING_CYCLE_REDEEM_PAUSED",
      "type": "error"
    },
    {
      "inputs": [],
      "name": "INADEQUATE_CONTROLLER_ALLOWANCE",
      "type": "error"
    },
    {
      "inputs": [],
      "name": "INADEQUATE_PAYMENT_TERMINAL_STORE_BALANCE",
      "type": "error"
    },
    {
      "inputs": [],
      "name": "INSUFFICIENT_TOKENS",
      "type": "error"
    },
    {
      "inputs": [],
      "name": "INVALID_FUNDING_CYCLE",
      "type": "error"
    },
    {
      "inputs": [],
      "name": "PAYMENT_TERMINAL_MIGRATION_NOT_ALLOWED",
      "type": "error"
    },
    {
      "inputs": [
        {
          "internalType": "uint256",
          "name": "prod1",
          "type": "uint256"
        },
        {
          "internalType": "uint256",
          "name": "denominator",
          "type": "uint256"
        }
      ],
      "name": "PRBMath__MulDivOverflow",
      "type": "error"
    },
    {
      "inputs": [
        {
          "internalType": "contract IJBPaymentTerminal",
          "name": "",
          "type": "address"
        },
        {
          "internalType": "uint256",
          "name": "",
          "type": "uint256"
        }
      ],
      "name": "balanceOf",
      "outputs": [
        {
          "internalType": "uint256",
          "name": "",
          "type": "uint256"
        }
      ],
      "stateMutability": "view",
      "type": "function"
    },
    {
      "inputs": [
        {
          "internalType": "contract IJBPaymentTerminal",
          "name": "_terminal",
          "type": "address"
        },
        {
          "internalType": "uint256",
          "name": "_projectId",
          "type": "uint256"
        }
      ],
      "name": "currentOverflowOf",
      "outputs": [
        {
          "internalType": "uint256",
          "name": "",
          "type": "uint256"
        }
      ],
      "stateMutability": "view",
      "type": "function"
    },
    {
      "inputs": [
        {
          "internalType": "uint256",
          "name": "_projectId",
          "type": "uint256"
        },
        {
          "internalType": "uint256",
          "name": "_decimals",
          "type": "uint256"
        },
        {
          "internalType": "uint256",
          "name": "_currency",
          "type": "uint256"
        }
      ],
      "name": "currentTotalOverflowOf",
      "outputs": [
        {
          "internalType": "uint256",
          "name": "",
          "type": "uint256"
        }
      ],
      "stateMutability": "view",
      "type": "function"
    },
    {
      "inputs": [],
      "name": "directory",
      "outputs": [
        {
          "internalType": "contract IJBDirectory",
          "name": "",
          "type": "address"
        }
      ],
      "stateMutability": "view",
      "type": "function"
    },
    {
      "inputs": [],
      "name": "fundingCycleStore",
      "outputs": [
        {
          "internalType": "contract IJBFundingCycleStore",
          "name": "",
          "type": "address"
        }
      ],
      "stateMutability": "view",
      "type": "function"
    },
    {
      "inputs": [],
      "name": "prices",
      "outputs": [
        {
          "internalType": "contract IJBPrices",
          "name": "",
          "type": "address"
        }
      ],
      "stateMutability": "view",
      "type": "function"
    },
    {
      "inputs": [],
      "name": "projects",
      "outputs": [
        {
          "internalType": "contract IJBProjects",
          "name": "",
          "type": "address"
        }
      ],
      "stateMutability": "view",
      "type": "function"
    },
    {
      "inputs": [
        {
          "internalType": "contract IJBPaymentTerminal",
          "name": "_terminal",
          "type": "address"
        },
        {
          "internalType": "uint256",
          "name": "_projectId",
          "type": "uint256"
        },
        {
          "internalType": "uint256",
          "name": "_tokenCount",
          "type": "uint256"
        }
      ],
      "name": "reclaimableOverflowOf",
      "outputs": [
        {
          "internalType": "uint256",
          "name": "",
          "type": "uint256"
        }
      ],
      "stateMutability": "view",
      "type": "function"
    },
    {
      "inputs": [
        {
          "internalType": "uint256",
          "name": "_projectId",
          "type": "uint256"
        },
        {
          "internalType": "uint256",
          "name": "_amount",
          "type": "uint256"
        }
      ],
      "name": "recordAddedBalanceFor",
      "outputs": [
        {
          "components": [
            {
              "internalType": "uint256",
              "name": "number",
              "type": "uint256"
            },
            {
              "internalType": "uint256",
              "name": "configuration",
              "type": "uint256"
            },
            {
              "internalType": "uint256",
              "name": "basedOn",
              "type": "uint256"
            },
            {
              "internalType": "uint256",
              "name": "start",
              "type": "uint256"
            },
            {
              "internalType": "uint256",
              "name": "duration",
              "type": "uint256"
            },
            {
              "internalType": "uint256",
              "name": "weight",
              "type": "uint256"
            },
            {
              "internalType": "uint256",
              "name": "discountRate",
              "type": "uint256"
            },
            {
              "internalType": "contract IJBFundingCycleBallot",
              "name": "ballot",
              "type": "address"
            },
            {
              "internalType": "uint256",
              "name": "metadata",
              "type": "uint256"
            }
          ],
          "internalType": "struct JBFundingCycle",
          "name": "fundingCycle",
          "type": "tuple"
        }
      ],
      "stateMutability": "nonpayable",
      "type": "function"
    },
    {
      "inputs": [
        {
          "internalType": "uint256",
          "name": "_projectId",
          "type": "uint256"
        },
        {
          "internalType": "uint256",
          "name": "_amount",
          "type": "uint256"
        },
        {
          "internalType": "uint256",
          "name": "_currency",
          "type": "uint256"
        },
        {
          "internalType": "uint256",
          "name": "_balanceCurrency",
          "type": "uint256"
        }
      ],
      "name": "recordDistributionFor",
      "outputs": [
        {
          "components": [
            {
              "internalType": "uint256",
              "name": "number",
              "type": "uint256"
            },
            {
              "internalType": "uint256",
              "name": "configuration",
              "type": "uint256"
            },
            {
              "internalType": "uint256",
              "name": "basedOn",
              "type": "uint256"
            },
            {
              "internalType": "uint256",
              "name": "start",
              "type": "uint256"
            },
            {
              "internalType": "uint256",
              "name": "duration",
              "type": "uint256"
            },
            {
              "internalType": "uint256",
              "name": "weight",
              "type": "uint256"
            },
            {
              "internalType": "uint256",
              "name": "discountRate",
              "type": "uint256"
            },
            {
              "internalType": "contract IJBFundingCycleBallot",
              "name": "ballot",
              "type": "address"
            },
            {
              "internalType": "uint256",
              "name": "metadata",
              "type": "uint256"
            }
          ],
          "internalType": "struct JBFundingCycle",
          "name": "fundingCycle",
          "type": "tuple"
        },
        {
          "internalType": "uint256",
          "name": "distributedAmount",
          "type": "uint256"
        }
      ],
      "stateMutability": "nonpayable",
      "type": "function"
    },
    {
      "inputs": [
        {
          "internalType": "uint256",
          "name": "_projectId",
          "type": "uint256"
        }
      ],
      "name": "recordMigration",
      "outputs": [
        {
          "internalType": "uint256",
          "name": "balance",
          "type": "uint256"
        }
      ],
      "stateMutability": "nonpayable",
      "type": "function"
    },
    {
      "inputs": [
        {
          "internalType": "address",
          "name": "_payer",
          "type": "address"
        },
        {
          "components": [
            {
              "internalType": "address",
              "name": "token",
              "type": "address"
            },
            {
              "internalType": "uint256",
              "name": "value",
              "type": "uint256"
            },
            {
              "internalType": "uint256",
              "name": "decimals",
              "type": "uint256"
            },
            {
              "internalType": "uint256",
              "name": "currency",
              "type": "uint256"
            }
          ],
          "internalType": "struct JBTokenAmount",
          "name": "_amount",
          "type": "tuple"
        },
        {
          "internalType": "uint256",
          "name": "_projectId",
          "type": "uint256"
        },
        {
          "internalType": "address",
          "name": "_beneficiary",
          "type": "address"
        },
        {
          "internalType": "uint256",
          "name": "_baseWeightCurrency",
          "type": "uint256"
        },
        {
          "internalType": "string",
          "name": "_memo",
          "type": "string"
        },
        {
          "internalType": "bytes",
          "name": "_metadata",
          "type": "bytes"
        }
      ],
      "name": "recordPaymentFrom",
      "outputs": [
        {
          "components": [
            {
              "internalType": "uint256",
              "name": "number",
              "type": "uint256"
            },
            {
              "internalType": "uint256",
              "name": "configuration",
              "type": "uint256"
            },
            {
              "internalType": "uint256",
              "name": "basedOn",
              "type": "uint256"
            },
            {
              "internalType": "uint256",
              "name": "start",
              "type": "uint256"
            },
            {
              "internalType": "uint256",
              "name": "duration",
              "type": "uint256"
            },
            {
              "internalType": "uint256",
              "name": "weight",
              "type": "uint256"
            },
            {
              "internalType": "uint256",
              "name": "discountRate",
              "type": "uint256"
            },
            {
              "internalType": "contract IJBFundingCycleBallot",
              "name": "ballot",
              "type": "address"
            },
            {
              "internalType": "uint256",
              "name": "metadata",
              "type": "uint256"
            }
          ],
          "internalType": "struct JBFundingCycle",
          "name": "fundingCycle",
          "type": "tuple"
        },
        {
          "internalType": "uint256",
          "name": "tokenCount",
          "type": "uint256"
        },
        {
          "internalType": "contract IJBPayDelegate",
          "name": "delegate",
          "type": "address"
        },
        {
          "internalType": "string",
          "name": "memo",
          "type": "string"
        }
      ],
      "stateMutability": "nonpayable",
      "type": "function"
    },
    {
      "inputs": [
        {
          "internalType": "address",
          "name": "_holder",
          "type": "address"
        },
        {
          "internalType": "uint256",
          "name": "_projectId",
          "type": "uint256"
        },
        {
          "internalType": "uint256",
          "name": "_tokenCount",
          "type": "uint256"
        },
        {
          "internalType": "uint256",
          "name": "_balanceDecimals",
          "type": "uint256"
        },
        {
          "internalType": "uint256",
          "name": "_balanceCurrency",
          "type": "uint256"
        },
        {
          "internalType": "address payable",
          "name": "_beneficiary",
          "type": "address"
        },
        {
          "internalType": "string",
          "name": "_memo",
          "type": "string"
        },
        {
          "internalType": "bytes",
          "name": "_metadata",
          "type": "bytes"
        }
      ],
      "name": "recordRedemptionFor",
      "outputs": [
        {
          "components": [
            {
              "internalType": "uint256",
              "name": "number",
              "type": "uint256"
            },
            {
              "internalType": "uint256",
              "name": "configuration",
              "type": "uint256"
            },
            {
              "internalType": "uint256",
              "name": "basedOn",
              "type": "uint256"
            },
            {
              "internalType": "uint256",
              "name": "start",
              "type": "uint256"
            },
            {
              "internalType": "uint256",
              "name": "duration",
              "type": "uint256"
            },
            {
              "internalType": "uint256",
              "name": "weight",
              "type": "uint256"
            },
            {
              "internalType": "uint256",
              "name": "discountRate",
              "type": "uint256"
            },
            {
              "internalType": "contract IJBFundingCycleBallot",
              "name": "ballot",
              "type": "address"
            },
            {
              "internalType": "uint256",
              "name": "metadata",
              "type": "uint256"
            }
          ],
          "internalType": "struct JBFundingCycle",
          "name": "fundingCycle",
          "type": "tuple"
        },
        {
          "internalType": "uint256",
          "name": "reclaimAmount",
          "type": "uint256"
        },
        {
          "internalType": "contract IJBRedemptionDelegate",
          "name": "delegate",
          "type": "address"
        },
        {
          "internalType": "string",
          "name": "memo",
          "type": "string"
        }
      ],
      "stateMutability": "nonpayable",
      "type": "function"
    },
    {
      "inputs": [
        {
          "internalType": "uint256",
          "name": "_projectId",
          "type": "uint256"
        },
        {
          "internalType": "uint256",
          "name": "_amount",
          "type": "uint256"
        },
        {
          "internalType": "uint256",
          "name": "_currency",
          "type": "uint256"
        },
        {
          "internalType": "uint256",
          "name": "_balanceCurrency",
          "type": "uint256"
        }
      ],
      "name": "recordUsedAllowanceOf",
      "outputs": [
        {
          "components": [
            {
              "internalType": "uint256",
              "name": "number",
              "type": "uint256"
            },
            {
              "internalType": "uint256",
              "name": "configuration",
              "type": "uint256"
            },
            {
              "internalType": "uint256",
              "name": "basedOn",
              "type": "uint256"
            },
            {
              "internalType": "uint256",
              "name": "start",
              "type": "uint256"
            },
            {
              "internalType": "uint256",
              "name": "duration",
              "type": "uint256"
            },
            {
              "internalType": "uint256",
              "name": "weight",
              "type": "uint256"
            },
            {
              "internalType": "uint256",
              "name": "discountRate",
              "type": "uint256"
            },
            {
              "internalType": "contract IJBFundingCycleBallot",
              "name": "ballot",
              "type": "address"
            },
            {
              "internalType": "uint256",
              "name": "metadata",
              "type": "uint256"
            }
          ],
          "internalType": "struct JBFundingCycle",
          "name": "fundingCycle",
          "type": "tuple"
        },
        {
          "internalType": "uint256",
          "name": "withdrawnAmount",
          "type": "uint256"
        }
      ],
      "stateMutability": "nonpayable",
      "type": "function"
    },
    {
      "inputs": [],
      "name": "tokenStore",
      "outputs": [
        {
          "internalType": "contract IJBTokenStore",
          "name": "",
          "type": "address"
        }
      ],
      "stateMutability": "view",
      "type": "function"
    },
    {
      "inputs": [
        {
          "internalType": "contract IJBPaymentTerminal",
          "name": "",
          "type": "address"
        },
        {
          "internalType": "uint256",
          "name": "",
          "type": "uint256"
        },
        {
          "internalType": "uint256",
          "name": "",
          "type": "uint256"
        }
      ],
      "name": "usedDistributionLimitOf",
      "outputs": [
        {
          "internalType": "uint256",
          "name": "",
          "type": "uint256"
        }
      ],
      "stateMutability": "view",
      "type": "function"
    },
    {
      "inputs": [
        {
          "internalType": "contract IJBPaymentTerminal",
          "name": "",
          "type": "address"
        },
        {
          "internalType": "uint256",
          "name": "",
          "type": "uint256"
        },
        {
          "internalType": "uint256",
          "name": "",
          "type": "uint256"
        }
      ],
      "name": "usedOverflowAllowanceOf",
      "outputs": [
        {
          "internalType": "uint256",
          "name": "",
          "type": "uint256"
        }
      ],
      "stateMutability": "view",
      "type": "function"
    }
  ],
  "transactionHash": "0xbdfccbd8dde71e55daab44711891fb80d73fef4a35e6f13d4589d825c236b0c9",
  "args": [
    "0x2d45E2691dD969C2C84E91D8F163a001CC9624E4",
    "0x9f6B993D2b05088317d123E6B56Dd4444E7F016A",
    "0xf8beb62B8ae1cE8053D5A3B6d66C4f1a8ef36F4a",
    "0xBe1828896f862113DA7A699473967aa72a177F0F",
    "0x77a6a0E3bDD9B34A13d4827d7CCA9F304b7B0819"
  ],
  "numDeployments": 1,
  "solcInputHash": "0136ddce72e9b07c45f37ebabcbc8b52",
  "bytecode": "0x6101206040523480156200001257600080fd5b5060405162003aff38038062003aff83398101604081905262000035916200006d565b6001600160601b0319606095861b81166101005293851b841660805291841b831660a052831b821660c05290911b1660e05262000106565b600080600080600060a086880312156200008657600080fd5b85516200009381620000ed565b6020870151909550620000a681620000ed565b6040870151909450620000b981620000ed565b6060870151909350620000cc81620000ed565b6080870151909250620000df81620000ed565b809150509295509295909350565b6001600160a01b03811681146200010357600080fd5b50565b60805160601c60a05160601c60c05160601c60e05160601c6101005160601c613904620001fb600039600081816102c30152818161088f01528181611aec015281816123530152612a3301526000818161021501528181610a9901526124710152600081816101b60152818161041101528181610b7901528181610f13015281816114400152818161163f0152818161179101528181611c0a01528181611dae01526126dd01526000818161029c01528181610520015281816106c101528181611065015281816112060152818161203c015281816121c10152818161254a01526128590152600061026201526139046000f3fe608060405234801561001057600080fd5b506004361061011a5760003560e01c80638910c7da116100b2578063d3419bf311610081578063d4c3a8d211610066578063d4c3a8d2146102f8578063e7c8e3e314610329578063e8ba563a1461034957600080fd5b8063d3419bf3146102be578063d49031c0146102e557600080fd5b80638910c7da1461024a5780638b79543c1461025d578063b753d7e914610284578063c41c2f241461029757600080fd5b8063557e7155116100ee578063557e7155146101b157806359087958146101fd57806361930630146102105780636bb6a5ad1461023757600080fd5b8062fdd58e1461011f5780631837d6e31461015a5780634a35c01c1461017b5780634d9cd5ac1461019e575b600080fd5b61014761012d366004612e39565b600060208181529281526040808220909352908152205481565b6040519081526020015b60405180910390f35b61016d610168366004613016565b61037a565b60405161015192919061310c565b61018e610189366004612cb3565b6109df565b6040516101519493929190613194565b61016d6101ac366004613016565b610e7c565b6101d87f000000000000000000000000000000000000000000000000000000000000000081565b60405173ffffffffffffffffffffffffffffffffffffffff9091168152602001610151565b61014761020b366004612e65565b611437565b6101d87f000000000000000000000000000000000000000000000000000000000000000081565b610147610245366004612f3b565b6115f6565b61018e610258366004612ba5565b611725565b6101d87f000000000000000000000000000000000000000000000000000000000000000081565b610147610292366004612fea565b611bb4565b6101d87f000000000000000000000000000000000000000000000000000000000000000081565b6101d87f000000000000000000000000000000000000000000000000000000000000000081565b6101476102f3366004612e39565b611bc1565b610147610306366004612e65565b600160209081526000938452604080852082529284528284209052825290205481565b61033c610337366004612fc8565b611d1a565b6040516101519190613092565b610147610357366004612e65565b600260209081526000938452604080852082529284528284209052825290205481565b6103df60405180610120016040528060008152602001600081526020016000815260200160008152602001600081526020016000815260200160008152602001600073ffffffffffffffffffffffffffffffffffffffff168152602001600081525090565b6040517f43a266c2000000000000000000000000000000000000000000000000000000008152600481018690526000907f000000000000000000000000000000000000000000000000000000000000000073ffffffffffffffffffffffffffffffffffffffff16906343a266c2906024016101206040518083038186803b15801561046957600080fd5b505afa15801561047d573d6000803e3d6000fd5b505050506040513d601f19601f820116820180604052508101906104a19190612ebb565b3360009081526001602090815260408083208a84528252808320828501518452909152812054919350906104d6908790613587565b6040517f5dd8f6aa0000000000000000000000000000000000000000000000000000000081526004810189905290915060009073ffffffffffffffffffffffffffffffffffffffff7f00000000000000000000000000000000000000000000000000000000000000001690635dd8f6aa9060240160206040518083038186803b15801561056257600080fd5b505afa158015610576573d6000803e3d6000fd5b505050506040513d601f19601f8201168201806040525081019061059a9190612e1c565b60208501516040517f5172a2bf000000000000000000000000000000000000000000000000000000008152600481018b9052602481019190915233604482015273ffffffffffffffffffffffffffffffffffffffff9190911690635172a2bf9060640160206040518083038186803b15801561061557600080fd5b505afa158015610629573d6000803e3d6000fd5b505050506040513d601f19601f8201168201806040525081019061064d9190612f54565b90508082118061065b575080155b15610692576040517fb6ecab1200000000000000000000000000000000000000000000000000000000815260040160405180910390fd5b6040517f5dd8f6aa000000000000000000000000000000000000000000000000000000008152600481018990527f000000000000000000000000000000000000000000000000000000000000000073ffffffffffffffffffffffffffffffffffffffff1690635dd8f6aa9060240160206040518083038186803b15801561071857600080fd5b505afa15801561072c573d6000803e3d6000fd5b505050506040513d601f19601f820116820180604052508101906107509190612e1c565b60208501516040517f073d499c000000000000000000000000000000000000000000000000000000008152600481018b9052602481019190915233604482015273ffffffffffffffffffffffffffffffffffffffff919091169063073d499c9060640160206040518083038186803b1580156107cb57600080fd5b505afa1580156107df573d6000803e3d6000fd5b505050506040513d601f19601f820116820180604052508101906108039190612f54565b861461083b576040517fe56ea4e700000000000000000000000000000000000000000000000000000000815260040160405180910390fd5b84861461092957610924876108526012600a61363b565b6040517fa4d0caf2000000000000000000000000000000000000000000000000000000008152600481018a905260248101899052601260448201527f000000000000000000000000000000000000000000000000000000000000000073ffffffffffffffffffffffffffffffffffffffff169063a4d0caf2906064015b60206040518083038186803b1580156108e757600080fd5b505afa1580156108fb573d6000803e3d6000fd5b505050506040513d601f19601f8201168201806040525081019061091f9190612f54565b611e87565b61092b565b865b925061093933898688611f90565b831115610972576040517f2fca7ece00000000000000000000000000000000000000000000000000000000815260040160405180910390fd5b3360008181526001602090815260408083208c8452825280832088830151845282528083208690559282528181528282208b8352905220546109b590849061373e565b336000908152602081815260408083209b83529a9052989098209790975550909590945092505050565b610a4460405180610120016040528060008152602001600081526020016000815260200160008152602001600081526020016000815260200160008152602001600073ffffffffffffffffffffffffffffffffffffffff168152602001600081525090565b6040517efdd58e00000000000000000000000000000000000000000000000000000000815273ffffffffffffffffffffffffffffffffffffffff8a81166004830152602482018a905260009182916060918b917f0000000000000000000000000000000000000000000000000000000000000000169062fdd58e9060440160206040518083038186803b158015610ada57600080fd5b505afa158015610aee573d6000803e3d6000fd5b505050506040513d601f19601f82011682018060405250810190610b129190612f54565b1015610b4a576040517fb8af220000000000000000000000000000000000000000000000000000000000815260040160405180910390fd5b6040517f43a266c2000000000000000000000000000000000000000000000000000000008152600481018c90527f000000000000000000000000000000000000000000000000000000000000000073ffffffffffffffffffffffffffffffffffffffff16906343a266c2906024016101206040518083038186803b158015610bd157600080fd5b505afa158015610be5573d6000803e3d6000fd5b505050506040513d601f19601f82011682018060405250810190610c099190612ebb565b610100810151909450603a1c60019081161415610c52576040517fa97cf58f00000000000000000000000000000000000000000000000000000000815260040160405180910390fd5b61010084015160431c60019081161415610dc35761010084015160441c73ffffffffffffffffffffffffffffffffffffffff1663690bb9d36040518061016001604052803373ffffffffffffffffffffffffffffffffffffffff1681526020018f73ffffffffffffffffffffffffffffffffffffffff1681526020018d81526020018c81526020018e8152602001610ce9886123c0565b8152602001610cf7886123dd565b81526020018b81526020018a73ffffffffffffffffffffffffffffffffffffffff168152602001898152602001888152506040518263ffffffff1660e01b8152600401610d449190613390565b60006040518083038186803b158015610d5c57600080fd5b505afa158015610d70573d6000803e3d6000fd5b505050506040513d6000823e601f3d9081017fffffffffffffffffffffffffffffffffffffffffffffffffffffffffffffffe0168201604052610db69190810190612f6d565b9194509092509050610dd7565b610dd1338c868d8d8d6123fa565b92508590505b336000908152602081815260408083208e8452909152902054831115610e29576040517f2fca7ece00000000000000000000000000000000000000000000000000000000815260040160405180910390fd5b8215610e6d57336000908152602081815260408083208e8452909152902054610e5390849061373e565b336000908152602081815260408083208f84529091529020555b98509850985098945050505050565b610ee160405180610120016040528060008152602001600081526020016000815260200160008152602001600081526020016000815260200160008152602001600073ffffffffffffffffffffffffffffffffffffffff168152602001600081525090565b6040517f43a266c2000000000000000000000000000000000000000000000000000000008152600481018690526000907f000000000000000000000000000000000000000000000000000000000000000073ffffffffffffffffffffffffffffffffffffffff16906343a266c2906024016101206040518083038186803b158015610f6b57600080fd5b505afa158015610f7f573d6000803e3d6000fd5b505050506040513d601f19601f82011682018060405250810190610fa39190612ebb565b61010081015190925060391c60019081161415610fec576040517f861e9dcd00000000000000000000000000000000000000000000000000000000815260040160405180910390fd5b33600090815260026020908152604080832089845282528083208551845290915281205461101b908790613587565b6040517f5dd8f6aa0000000000000000000000000000000000000000000000000000000081526004810189905290915060009073ffffffffffffffffffffffffffffffffffffffff7f00000000000000000000000000000000000000000000000000000000000000001690635dd8f6aa9060240160206040518083038186803b1580156110a757600080fd5b505afa1580156110bb573d6000803e3d6000fd5b505050506040513d601f19601f820116820180604052508101906110df9190612e1c565b60208501516040517f5578dfd7000000000000000000000000000000000000000000000000000000008152600481018b9052602481019190915233604482015273ffffffffffffffffffffffffffffffffffffffff9190911690635578dfd79060640160206040518083038186803b15801561115a57600080fd5b505afa15801561116e573d6000803e3d6000fd5b505050506040513d601f19601f820116820180604052508101906111929190612f54565b9050808211806111a0575080155b156111d7576040517f08dae4ac00000000000000000000000000000000000000000000000000000000815260040160405180910390fd5b6040517f5dd8f6aa000000000000000000000000000000000000000000000000000000008152600481018990527f000000000000000000000000000000000000000000000000000000000000000073ffffffffffffffffffffffffffffffffffffffff1690635dd8f6aa9060240160206040518083038186803b15801561125d57600080fd5b505afa158015611271573d6000803e3d6000fd5b505050506040513d601f19601f820116820180604052508101906112959190612e1c565b60208501516040517f4e9d00d2000000000000000000000000000000000000000000000000000000008152600481018b9052602481019190915233604482015273ffffffffffffffffffffffffffffffffffffffff9190911690634e9d00d29060640160206040518083038186803b15801561131057600080fd5b505afa158015611324573d6000803e3d6000fd5b505050506040513d601f19601f820116820180604052508101906113489190612f54565b8614611380576040517fe56ea4e700000000000000000000000000000000000000000000000000000000815260040160405180910390fd5b84861461139f57611397876108526012600a61363b565b9250826113a1565b865b336000908152602081815260408083208c84529091529020549093508311156113f6576040517f2fca7ece00000000000000000000000000000000000000000000000000000000815260040160405180910390fd5b3360008181526002602090815260408083208c845282528083208851845282528083208690559282528181528282208b8352905220546109b590849061373e565b60006115ec84847f000000000000000000000000000000000000000000000000000000000000000073ffffffffffffffffffffffffffffffffffffffff166343a266c2876040518263ffffffff1660e01b815260040161149991815260200190565b6101206040518083038186803b1580156114b257600080fd5b505afa1580156114c6573d6000803e3d6000fd5b505050506040513d601f19601f820116820180604052508101906114ea9190612ebb565b858873ffffffffffffffffffffffffffffffffffffffff1663313ce5676040518163ffffffff1660e01b815260040160206040518083038186803b15801561153157600080fd5b505afa158015611545573d6000803e3d6000fd5b505050506040513d601f19601f820116820180604052508101906115699190612f54565b8973ffffffffffffffffffffffffffffffffffffffff1663e5a6b10f6040518163ffffffff1660e01b815260040160206040518083038186803b1580156115af57600080fd5b505afa1580156115c3573d6000803e3d6000fd5b505050506040513d601f19601f820116820180604052508101906115e79190612f54565b6123fa565b90505b9392505050565b6040517f43a266c200000000000000000000000000000000000000000000000000000000815260048101829052600090819073ffffffffffffffffffffffffffffffffffffffff7f000000000000000000000000000000000000000000000000000000000000000016906343a266c2906024016101206040518083038186803b15801561168257600080fd5b505afa158015611696573d6000803e3d6000fd5b505050506040513d601f19601f820116820180604052508101906116ba9190612ebb565b610100810151909150603e1c600190811614611702576040517fe7c9e0be00000000000000000000000000000000000000000000000000000000815260040160405180910390fd5b505033600090815260208181526040808320938352929052908120805491905590565b61178a60405180610120016040528060008152602001600081526020016000815260200160008152602001600081526020016000815260200160008152602001600073ffffffffffffffffffffffffffffffffffffffff168152602001600081525090565b60008060607f000000000000000000000000000000000000000000000000000000000000000073ffffffffffffffffffffffffffffffffffffffff166343a266c28a6040518263ffffffff1660e01b81526004016117ea91815260200190565b6101206040518083038186803b15801561180357600080fd5b505afa158015611817573d6000803e3d6000fd5b505050506040513d601f19601f8201168201806040525081019061183b9190612ebb565b8051909450611876576040517f2e96671a00000000000000000000000000000000000000000000000000000000815260040160405180910390fd5b61010084015160381c600190811614156118bc576040517fa3bb913300000000000000000000000000000000000000000000000000000000815260040160405180910390fd5b61010084015160009060421c60019081161415611a2b5761010085015160441c73ffffffffffffffffffffffffffffffffffffffff1663c474e40e6040518061012001604052803373ffffffffffffffffffffffffffffffffffffffff1681526020018f73ffffffffffffffffffffffffffffffffffffffff1681526020018e81526020018d81526020018860a00151815260200161196789610100015161ffff60089190911c1690565b81526020018c73ffffffffffffffffffffffffffffffffffffffff1681526020018a8152602001898152506040518263ffffffff1660e01b81526004016119ae9190613245565b60006040518083038186803b1580156119c657600080fd5b505afa1580156119da573d6000803e3d6000fd5b505050506040513d6000823e601f3d9081017fffffffffffffffffffffffffffffffffffffffffffffffffffffffffffffffe0168201604052611a209190810190612f6d565b945092509050611a35565b505060a083015185905b60208b0151611a48575060009250611ba6565b6020808c015133600090815280835260408082208e83529093529190912054611a719190613587565b336000908152602081815260408083208e845290915290205580611a99575060009250611ba6565b6000888c6060015114611b805760608c01516040808e015190517fa4d0caf20000000000000000000000000000000000000000000000000000000081526004810192909252602482018b905260448201527f000000000000000000000000000000000000000000000000000000000000000073ffffffffffffffffffffffffffffffffffffffff169063a4d0caf29060640160206040518083038186803b158015611b4357600080fd5b505afa158015611b57573d6000803e3d6000fd5b505050506040513d601f19601f82011682018060405250810190611b7b9190612f54565b611b90565b60408c0151611b9090600a61363b565b9050611ba18c602001518383611e87565b945050505b975097509750979350505050565b60006115ec848484612810565b6040517f43a266c200000000000000000000000000000000000000000000000000000000815260048101829052600090819073ffffffffffffffffffffffffffffffffffffffff7f000000000000000000000000000000000000000000000000000000000000000016906343a266c2906024016101206040518083038186803b158015611c4d57600080fd5b505afa158015611c61573d6000803e3d6000fd5b505050506040513d601f19601f82011682018060405250810190611c859190612ebb565b9050611d108484838773ffffffffffffffffffffffffffffffffffffffff1663e5a6b10f6040518163ffffffff1660e01b815260040160206040518083038186803b158015611cd357600080fd5b505afa158015611ce7573d6000803e3d6000fd5b505050506040513d601f19601f82011682018060405250810190611d0b9190612f54565b611f90565b9150505b92915050565b611d7f60405180610120016040528060008152602001600081526020016000815260200160008152602001600081526020016000815260200160008152602001600073ffffffffffffffffffffffffffffffffffffffff168152602001600081525090565b6040517f43a266c2000000000000000000000000000000000000000000000000000000008152600481018490527f000000000000000000000000000000000000000000000000000000000000000073ffffffffffffffffffffffffffffffffffffffff16906343a266c2906024016101206040518083038186803b158015611e0657600080fd5b505afa158015611e1a573d6000803e3d6000fd5b505050506040513d601f19601f82011682018060405250810190611e3e9190612ebb565b33600090815260208181526040808320878452909152902054909150611e65908390613587565b3360009081526020818152604080832096835295905293909320929092555090565b600080807fffffffffffffffffffffffffffffffffffffffffffffffffffffffffffffffff8587098587029250828110838203039150508060001415611ee057838281611ed657611ed66137ed565b04925050506115ef565b838110611f27576040517f773cc18c000000000000000000000000000000000000000000000000000000008152600481018290526024810185905260440160405180910390fd5b60008486880960026001871981018816978890046003810283188082028403028082028403028082028403028082028403028082028403029081029092039091026000889003889004909101858311909403939093029303949094049190911702949350505050565b73ffffffffffffffffffffffffffffffffffffffff841660009081526020818152604080832086845290915281205480611fce5760009150506123b8565b73ffffffffffffffffffffffffffffffffffffffff86811660009081526002602090815260408083208984528252808320885184529091528082205490517f5dd8f6aa00000000000000000000000000000000000000000000000000000000815260048101899052919290917f000000000000000000000000000000000000000000000000000000000000000090911690635dd8f6aa9060240160206040518083038186803b15801561208057600080fd5b505afa158015612094573d6000803e3d6000fd5b505050506040513d601f19601f820116820180604052508101906120b89190612e1c565b60208701516040517f5578dfd7000000000000000000000000000000000000000000000000000000008152600481018a9052602481019190915273ffffffffffffffffffffffffffffffffffffffff8a811660448301529190911690635578dfd79060640160206040518083038186803b15801561213557600080fd5b505afa158015612149573d6000803e3d6000fd5b505050506040513d601f19601f8201168201806040525081019061216d9190612f54565b612177919061373e565b6040517f5dd8f6aa0000000000000000000000000000000000000000000000000000000081526004810188905290915060009073ffffffffffffffffffffffffffffffffffffffff7f00000000000000000000000000000000000000000000000000000000000000001690635dd8f6aa9060240160206040518083038186803b15801561220357600080fd5b505afa158015612217573d6000803e3d6000fd5b505050506040513d601f19601f8201168201806040525081019061223b9190612e1c565b60208701516040517f4e9d00d2000000000000000000000000000000000000000000000000000000008152600481018a9052602481019190915273ffffffffffffffffffffffffffffffffffffffff8a811660448301529190911690634e9d00d29060640160206040518083038186803b1580156122b857600080fd5b505afa1580156122cc573d6000803e3d6000fd5b505050506040513d601f19601f820116820180604052508101906122f09190612f54565b905081158015906123015750848114155b1561239a57612397826123166012600a61363b565b6040517fa4d0caf20000000000000000000000000000000000000000000000000000000081526004810185905260248101899052601260448201527f000000000000000000000000000000000000000000000000000000000000000073ffffffffffffffffffffffffffffffffffffffff169063a4d0caf2906064016108cf565b91505b8183116123a85760006123b2565b6123b2828461373e565b93505050505b949350505050565b60006018826101000151901c61ffff16612710611d14919061373e565b60006028826101000151901c61ffff16612710611d14919061373e565b610100840151600090819060411c6001908116146124225761241d878585612810565b61242e565b61242e88888886611f90565b90508061243f576000915050612806565b6040517f75b0d9cd000000000000000000000000000000000000000000000000000000008152600481018890526000907f000000000000000000000000000000000000000000000000000000000000000073ffffffffffffffffffffffffffffffffffffffff16906375b0d9cd9060240160206040518083038186803b1580156124c857600080fd5b505afa1580156124dc573d6000803e3d6000fd5b505050506040513d601f19601f820116820180604052508101906125009190612f54565b6040517f5dd8f6aa000000000000000000000000000000000000000000000000000000008152600481018a905290915060009073ffffffffffffffffffffffffffffffffffffffff7f00000000000000000000000000000000000000000000000000000000000000001690635dd8f6aa9060240160206040518083038186803b15801561258c57600080fd5b505afa1580156125a0573d6000803e3d6000fd5b505050506040513d601f19601f820116820180604052508101906125c49190612e1c565b73ffffffffffffffffffffffffffffffffffffffff1663f033b3b48a6125f68b610100015161ffff60089190911c1690565b6040517fffffffff0000000000000000000000000000000000000000000000000000000060e085901b1681526004810192909252602482015260440160206040518083038186803b15801561264a57600080fd5b505afa15801561265e573d6000803e3d6000fd5b505050506040513d601f19601f820116820180604052508101906126829190612f54565b90508015612697576126948183613587565b91505b818714156126aa57829350505050612806565b600060016040517fc55f571c000000000000000000000000000000000000000000000000000000008152600481018c90527f000000000000000000000000000000000000000000000000000000000000000073ffffffffffffffffffffffffffffffffffffffff169063c55f571c9060240160206040518083038186803b15801561273457600080fd5b505afa158015612748573d6000803e3d6000fd5b505050506040513d601f19601f8201168201806040525081019061276c9190612e9a565b600281111561277d5761277d61381c565b146127905761278b896123c0565b612799565b612799896123dd565b9050806127ad576000945050505050612806565b60006127ba858a86611e87565b90506127108214156127d25794506128069350505050565b6127fe816127ec8b6127e68661271061373e565b88611e87565b6127f69085613587565b612710611e87565b955050505050505b9695505050505050565b6040517fd175415300000000000000000000000000000000000000000000000000000000815260048101849052600090819073ffffffffffffffffffffffffffffffffffffffff7f0000000000000000000000000000000000000000000000000000000000000000169063d17541539060240160006040518083038186803b15801561289b57600080fd5b505afa1580156128af573d6000803e3d6000fd5b505050506040513d6000823e601f3d9081017fffffffffffffffffffffffffffffffffffffffffffffffffffffffffffffffe01682016040526128f59190810190612d63565b90506000805b82518110156129c6578281815181106129165761291661384b565b602002602001015173ffffffffffffffffffffffffffffffffffffffff1663a32e1e96886040518263ffffffff1660e01b815260040161295891815260200190565b60206040518083038186803b15801561297057600080fd5b505afa158015612984573d6000803e3d6000fd5b505050506040513d601f19601f820116820180604052508101906129a89190612f54565b6129b29083613587565b9150806129be81613785565b9150506128fb565b50600060018514612a67576040517fa4d0caf2000000000000000000000000000000000000000000000000000000008152600160048201526024810186905260126044820152612a62908390670de0b6b3a76400009073ffffffffffffffffffffffffffffffffffffffff7f0000000000000000000000000000000000000000000000000000000000000000169063a4d0caf2906064016108cf565b612a69565b815b905085601214612a8457612a7f81601288612a91565b612a86565b805b979650505050505050565b600082821415612aa25750826115ef565b82821115612ad057612ab4838361373e565b612abf90600a61363b565b612ac99085613701565b90506115ef565b612ada828461373e565b612ae590600a61363b565b612ac9908561359f565b8035612afa816138a9565b919050565b600082601f830112612b1057600080fd5b8135612b23612b1e82613541565b6134f2565b818152846020838601011115612b3857600080fd5b816020850160208301376000918101602001919091529392505050565b8051612afa816138a9565b600082601f830112612b7157600080fd5b8151612b7f612b1e82613541565b818152846020838601011115612b9457600080fd5b6123b8826020830160208701613755565b6000806000806000806000878903610140811215612bc257600080fd5b8835612bcd816138a9565b975060807fffffffffffffffffffffffffffffffffffffffffffffffffffffffffffffffe082011215612bff57600080fd5b50612c086134a5565b6020890135612c16816138a9565b808252506040890135602082015260608901356040820152608089013560608201528096505060a08801359450612c4f60c08901612aef565b935060e0880135925061010088013567ffffffffffffffff80821115612c7457600080fd5b612c808b838c01612aff565b93506101208a0135915080821115612c9757600080fd5b50612ca48a828b01612aff565b91505092959891949750929550565b600080600080600080600080610100898b031215612cd057600080fd5b8835612cdb816138a9565b97506020890135965060408901359550606089013594506080890135935060a0890135612d07816138a9565b925060c089013567ffffffffffffffff80821115612d2457600080fd5b612d308c838d01612aff565b935060e08b0135915080821115612d4657600080fd5b50612d538b828c01612aff565b9150509295985092959890939650565b60006020808385031215612d7657600080fd5b825167ffffffffffffffff80821115612d8e57600080fd5b818501915085601f830112612da257600080fd5b815181811115612db457612db461387a565b8060051b9150612dc58483016134f2565b8181528481019084860184860187018a1015612de057600080fd5b600095505b83861015612e0f5780519450612dfa856138a9565b84835260019590950194918601918601612de5565b5098975050505050505050565b600060208284031215612e2e57600080fd5b81516115ef816138a9565b60008060408385031215612e4c57600080fd5b8235612e57816138a9565b946020939093013593505050565b600080600060608486031215612e7a57600080fd5b8335612e85816138a9565b95602085013595506040909401359392505050565b600060208284031215612eac57600080fd5b8151600381106115ef57600080fd5b60006101208284031215612ece57600080fd5b612ed66134ce565b825181526020830151602082015260408301516040820152606083015160608201526080830151608082015260a083015160a082015260c083015160c0820152612f2260e08401612b55565b60e0820152610100928301519281019290925250919050565b600060208284031215612f4d57600080fd5b5035919050565b600060208284031215612f6657600080fd5b5051919050565b600080600060608486031215612f8257600080fd5b83519250602084015167ffffffffffffffff811115612fa057600080fd5b612fac86828701612b60565b9250506040840151612fbd816138a9565b809150509250925092565b60008060408385031215612fdb57600080fd5b50508035926020909101359150565b600080600060608486031215612fff57600080fd5b505081359360208301359350604090920135919050565b6000806000806080858703121561302c57600080fd5b5050823594602084013594506040840135936060013592509050565b60008151808452613060816020860160208601613755565b601f017fffffffffffffffffffffffffffffffffffffffffffffffffffffffffffffffe0169290920160200192915050565b6101208101611d148284805182526020810151602083015260408101516040830152606081015160608301526080810151608083015260a081015160a083015260c081015160c083015273ffffffffffffffffffffffffffffffffffffffff60e08201511660e08301526101008082015181840152505050565b61014081016131868285805182526020810151602083015260408101516040830152606081015160608301526080810151608083015260a081015160a083015260c081015160c083015273ffffffffffffffffffffffffffffffffffffffff60e08201511660e08301526101008082015181840152505050565b826101208301529392505050565b600061018061320e8388805182526020810151602083015260408101516040830152606081015160608301526080810151608083015260a081015160a083015260c081015160c083015273ffffffffffffffffffffffffffffffffffffffff60e08201511660e08301526101008082015181840152505050565b8561012084015273ffffffffffffffffffffffffffffffffffffffff851661014084015280610160840152612a8681840185613048565b6020815261326c60208201835173ffffffffffffffffffffffffffffffffffffffff169052565b60006020830151613295604084018273ffffffffffffffffffffffffffffffffffffffff169052565b5060408301516132df606084018273ffffffffffffffffffffffffffffffffffffffff81511682526020810151602083015260408101516040830152606081015160608301525050565b50606083015160e08301526080830151610100818185015260a085015161012085015260c0850151915061332c61014085018373ffffffffffffffffffffffffffffffffffffffff169052565b60e085015191506101808061016086015261334b6101a0860184613048565b92508186015191507fffffffffffffffffffffffffffffffffffffffffffffffffffffffffffffffe08584030181860152506133878282613048565b95945050505050565b602081526133b760208201835173ffffffffffffffffffffffffffffffffffffffff169052565b600060208301516133e0604084018273ffffffffffffffffffffffffffffffffffffffff169052565b506040830151606083015260608301516080830152608083015160a083015260a083015160c083015260c083015160e083015260e083015161010081818501528085015191505061012061344b8185018373ffffffffffffffffffffffffffffffffffffffff169052565b80850151915050610160610140818186015261346b610180860184613048565b908601518582037fffffffffffffffffffffffffffffffffffffffffffffffffffffffffffffffe001838701529092506128068382613048565b6040516080810167ffffffffffffffff811182821017156134c8576134c861387a565b60405290565b604051610120810167ffffffffffffffff811182821017156134c8576134c861387a565b604051601f82017fffffffffffffffffffffffffffffffffffffffffffffffffffffffffffffffe016810167ffffffffffffffff811182821017156135395761353961387a565b604052919050565b600067ffffffffffffffff82111561355b5761355b61387a565b50601f017fffffffffffffffffffffffffffffffffffffffffffffffffffffffffffffffe01660200190565b6000821982111561359a5761359a6137be565b500190565b6000826135d5577f4e487b7100000000000000000000000000000000000000000000000000000000600052601260045260246000fd5b500490565b600181815b8085111561363357817fffffffffffffffffffffffffffffffffffffffffffffffffffffffffffffffff04821115613619576136196137be565b8085161561362657918102915b93841c93908002906135df565b509250929050565b60006115ef838360008261365157506001611d14565b8161365e57506000611d14565b8160018114613674576002811461367e5761369a565b6001915050611d14565b60ff84111561368f5761368f6137be565b50506001821b611d14565b5060208310610133831016604e8410600b84101617156136bd575081810a611d14565b6136c783836135da565b807fffffffffffffffffffffffffffffffffffffffffffffffffffffffffffffffff048211156136f9576136f96137be565b029392505050565b6000817fffffffffffffffffffffffffffffffffffffffffffffffffffffffffffffffff0483118215151615613739576137396137be565b500290565b600082821015613750576137506137be565b500390565b60005b83811015613770578181015183820152602001613758565b8381111561377f576000848401525b50505050565b60007fffffffffffffffffffffffffffffffffffffffffffffffffffffffffffffffff8214156137b7576137b76137be565b5060010190565b7f4e487b7100000000000000000000000000000000000000000000000000000000600052601160045260246000fd5b7f4e487b7100000000000000000000000000000000000000000000000000000000600052601260045260246000fd5b7f4e487b7100000000000000000000000000000000000000000000000000000000600052602160045260246000fd5b7f4e487b7100000000000000000000000000000000000000000000000000000000600052603260045260246000fd5b7f4e487b7100000000000000000000000000000000000000000000000000000000600052604160045260246000fd5b73ffffffffffffffffffffffffffffffffffffffff811681146138cb57600080fd5b5056fea264697066735822122099d9435fe69a6753ab83a57565f17ab8f160f492cd29a3cf380c80142011cf8364736f6c63430008060033",
  "devdoc": {
    "kind": "dev",
    "methods": {
      "constructor": {
        "params": {
          "_directory": "A contract storing directories of terminals and controllers for each project.",
          "_fundingCycleStore": "A contract storing all funding cycle configurations.",
          "_prices": "A contract that exposes price feeds.",
          "_projects": "A contract which mints ERC-721's that represent project ownership and transfers.",
          "_tokenStore": "A contract that manages token minting and burning."
        }
      },
      "currentOverflowOf(address,uint256)": {
        "details": "The current overflow is represented as a fixed point number with 18 decimals.",
        "params": {
          "_projectId": "The ID of the project to get overflow for.",
          "_terminal": "The terminal for which the overflow is being calculated."
        },
        "returns": {
          "_0": "The current amount of overflow that project has in this terminal."
        }
      },
      "currentTotalOverflowOf(uint256,uint256,uint256)": {
        "details": "The current total overflow is represented as a fixed point number with 18 decimals.",
        "params": {
          "_currency": "The currency that the total overflow should be in terms of.",
          "_decimals": "The number of decimals that the fixed point overflow should include.",
          "_projectId": "The ID of the project to get total overflow for."
        },
        "returns": {
          "_0": "The current total amount of overflow that project has across all terminals."
        }
      },
      "reclaimableOverflowOf(address,uint256,uint256)": {
        "details": " If the project has an active funding cycle reconfiguration ballot, the project's ballot redemption rate is used.The reclaimable overflow is represented as a fixed point number with 18 decimals.",
        "params": {
          "_projectId": "The ID of the project to get a reclaimable amount for.",
          "_terminal": "The terminal from which the overflow is being calculated.",
          "_tokenCount": "The number of tokens to make the calculation with, as a fixed point number with 18 decimals."
        },
        "returns": {
          "_0": "The amount of overflowed tokens that can be reclaimed."
        }
      },
      "recordAddedBalanceFor(uint256,uint256)": {
        "details": "The msg.sender must be an IJBPaymentTerminal. The amount specified in the params is in terms of the msg.senders tokens.",
        "params": {
          "_amount": "The amount of temrinal tokens added, as a fixed point number with 18 decimals.",
          "_projectId": "The ID of the project to which the funds being added belong."
        },
        "returns": {
          "fundingCycle": "The current funding cycle for the project."
        }
      },
      "recordDistributionFor(uint256,uint256,uint256,uint256)": {
        "details": "The msg.sender must be an IJBPaymentTerminal. The amount specified in the params is in terms of the msg.senders tokens.",
        "params": {
          "_amount": "The amount to use from the distribution limit, as a fixed point number. i",
          "_balanceCurrency": "The currency that the balance is expected to be in terms of.",
          "_currency": "The currency of the `_amount`.",
          "_projectId": "The ID of the project that is having funds distributed."
        },
        "returns": {
          "distributedAmount": "The amount of terminal tokens distributed.",
          "fundingCycle": "The funding cycle during which the distribution was made."
        }
      },
      "recordMigration(uint256)": {
        "details": "The msg.sender must be an IJBPaymentTerminal. The amount returned is in terms of the msg.senders tokens.",
        "params": {
          "_projectId": "The ID of the project being migrated."
        },
        "returns": {
          "balance": "The project's current terminal token balance, as a fixed point number with 18 decimals."
        }
      },
      "recordPaymentFrom(address,(address,uint256,uint256,uint256),uint256,address,uint256,string,bytes)": {
        "details": "Mint's the project's tokens according to values provided by a configured data source. If no data source is configured, mints tokens proportional to the amount of the contribution.The msg.sender must be an IJBPaymentTerminal. The amount specified in the params is in terms of the msg.senders tokens.",
        "params": {
          "_amount": "The amount of tokens being paid, as a fixed point number. Includes the token being paid, the value, the number of decimals included, and the currency of the amount.",
          "_baseWeightCurrency": "The currency to base token issuance on.",
          "_beneficiary": "The address that should receive benefits from the payment.",
          "_memo": "A memo to pass along to the emitted event, and passed along the the funding cycle's data source and delegate.",
          "_metadata": "Bytes to send along to the data source, if one is provided.",
          "_payer": "The original address that sent the payment to the terminal.",
          "_projectId": "The ID of the project being paid."
        },
        "returns": {
          "delegate": "A delegate contract to use for subsequent calls.",
          "fundingCycle": "The project's funding cycle during which payment was made.",
          "memo": "A memo that should be passed along to the emitted event.",
          "tokenCount": "The number of project tokens that were minted, as a fixed point number with 18 decimals."
        }
      },
      "recordRedemptionFor(address,uint256,uint256,uint256,uint256,address,string,bytes)": {
        "details": "The msg.sender must be an IJBPaymentTerminal. The amount specified in the params is in terms of the msg.senders tokens.",
        "params": {
          "_balanceCurrency": "The currency that the stored balance is expected to be in terms of.",
          "_balanceDecimals": "The amount of decimals expected in the returned `reclaimAmount`.",
          "_beneficiary": "The address that will benefit from the claimed amount.",
          "_holder": "The account that is having its tokens redeemed.",
          "_memo": "A memo to pass along to the emitted event.",
          "_metadata": "Bytes to send along to the data source, if one is provided.",
          "_projectId": "The ID of the project to which the tokens being redeemed belong.",
          "_tokenCount": "The number of project tokens to redeem, as a fixed point number with 18 decimals."
        },
        "returns": {
          "delegate": "A delegate contract to use for subsequent calls.",
          "fundingCycle": "The funding cycle during which the redemption was made.",
          "memo": "A memo that should be passed along to the emitted event.",
          "reclaimAmount": "The amount of terminal tokens reclaimed, as a fixed point number with 18 decimals."
        }
      },
      "recordUsedAllowanceOf(uint256,uint256,uint256,uint256)": {
        "details": "The msg.sender must be an IJBPaymentTerminal. The amount specified in the params is in terms of the msg.senders tokens.",
        "params": {
          "_amount": "The amount to use from the allowance, as a fixed point number. ",
          "_balanceCurrency": "The currency that the balance is expected to be in terms of.",
          "_currency": "The currency of the `_amount`.",
          "_projectId": "The ID of the project to use the allowance of."
        },
        "returns": {
          "fundingCycle": "The funding cycle during which the withdrawal is being made.",
          "withdrawnAmount": "The amount terminal tokens used, as a fixed point number with 18 decimals."
        }
      }
    },
    "stateVariables": {
      "balanceOf": {
        "details": "The balance is represented as a fixed point number with 18 decimals. _terminalOf The terminal to which the balance applies. _projectId The ID of the project to get the balance of."
      },
      "usedDistributionLimitOf": {
        "details": "Increases as projects use their distribution limit.The used distribution limit is represented as a fixed point number with 18 decimals. _terminalOf The terminal to which the used distribution limit applies. _projectId The ID of the project to get the used distribution limit of. _fundingCycleNumber The number representing the funding cycle."
      },
      "usedOverflowAllowanceOf": {
        "details": "Increases as projects use their allowance.The used allowance is represented as a fixed point number with 18 decimals. _terminalOf The terminal to which the overflow allowance applies. _projectId The ID of the project to get the used overflow allowance of. _configuration The configuration of the during which the allowance applies."
      }
    },
    "version": 1
  },
  "userdoc": {
    "errors": {
      "PRBMath__MulDivOverflow(uint256,uint256)": [
        {
          "notice": "Emitted when the result overflows uint256."
        }
      ]
    },
    "kind": "user",
    "methods": {
      "balanceOf(address,uint256)": {
        "notice": "The amount of tokens that each project has for each terminal, in terms of the terminal's token."
      },
      "currentOverflowOf(address,uint256)": {
        "notice": "Gets the current overflowed amount in a terminal for a specified project."
      },
      "currentTotalOverflowOf(uint256,uint256,uint256)": {
        "notice": "Gets the current overflowed amount for a specified project across all terminals."
      },
      "directory()": {
        "notice": "The directory of terminals and controllers for projects."
      },
      "fundingCycleStore()": {
        "notice": "The contract storing all funding cycle configurations."
      },
      "prices()": {
        "notice": "The contract that exposes price feeds."
      },
      "projects()": {
        "notice": "The Projects contract which mints ERC-721's that represent project ownership and transfers."
      },
      "reclaimableOverflowOf(address,uint256,uint256)": {
        "notice": "The amount of overflowed tokens that can be reclaimed by the specified number of tokens."
      },
      "recordAddedBalanceFor(uint256,uint256)": {
        "notice": "Records newly added funds for the project."
      },
      "recordDistributionFor(uint256,uint256,uint256,uint256)": {
        "notice": "Records newly distributed funds for a project."
      },
      "recordMigration(uint256)": {
        "notice": "Records the migration of funds from this store."
      },
      "recordPaymentFrom(address,(address,uint256,uint256,uint256),uint256,address,uint256,string,bytes)": {
        "notice": "Records newly contributed tokens to a project."
      },
      "recordRedemptionFor(address,uint256,uint256,uint256,uint256,address,string,bytes)": {
        "notice": "Records newly redeemed tokens of a project."
      },
      "recordUsedAllowanceOf(uint256,uint256,uint256,uint256)": {
        "notice": "Records newly used allowance funds of a project."
      },
      "tokenStore()": {
        "notice": "The contract that manages token minting and burning."
      },
      "usedDistributionLimitOf(address,uint256,uint256)": {
        "notice": "The amount of tokens that a project has distributed from its limit during the current funding cycle for each terminal, in terms of the terminal's token."
      },
      "usedOverflowAllowanceOf(address,uint256,uint256)": {
        "notice": "The amount of overflow (in the terminal's currency) that a project has used from its allowance during the current funding cycle configuration for each terminal, in terms of the terminal's token."
      }
    },
    "notice": "This contract manages all bookkeeping for inflows and outflows of a particular token for any IJBPaymentTerminal msg.sender.",
    "version": 1
  },
  "storageLayout": {
    "storage": [
      {
        "astId": 8579,
        "contract": "contracts/JBPaymentTerminalStore.sol:JBPaymentTerminalStore",
        "label": "balanceOf",
        "offset": 0,
        "slot": "0",
        "type": "t_mapping(t_contract(IJBPaymentTerminal)14672,t_mapping(t_uint256,t_uint256))"
      },
      {
        "astId": 8589,
        "contract": "contracts/JBPaymentTerminalStore.sol:JBPaymentTerminalStore",
        "label": "usedOverflowAllowanceOf",
        "offset": 0,
        "slot": "1",
        "type": "t_mapping(t_contract(IJBPaymentTerminal)14672,t_mapping(t_uint256,t_mapping(t_uint256,t_uint256)))"
      },
      {
        "astId": 8599,
        "contract": "contracts/JBPaymentTerminalStore.sol:JBPaymentTerminalStore",
        "label": "usedDistributionLimitOf",
        "offset": 0,
        "slot": "2",
        "type": "t_mapping(t_contract(IJBPaymentTerminal)14672,t_mapping(t_uint256,t_mapping(t_uint256,t_uint256)))"
      }
    ],
    "types": {
      "t_contract(IJBPaymentTerminal)14672": {
        "encoding": "inplace",
        "label": "contract IJBPaymentTerminal",
        "numberOfBytes": "20"
      },
      "t_mapping(t_contract(IJBPaymentTerminal)14672,t_mapping(t_uint256,t_mapping(t_uint256,t_uint256)))": {
        "encoding": "mapping",
        "key": "t_contract(IJBPaymentTerminal)14672",
        "label": "mapping(contract IJBPaymentTerminal => mapping(uint256 => mapping(uint256 => uint256)))",
        "numberOfBytes": "32",
        "value": "t_mapping(t_uint256,t_mapping(t_uint256,t_uint256))"
      },
      "t_mapping(t_contract(IJBPaymentTerminal)14672,t_mapping(t_uint256,t_uint256))": {
        "encoding": "mapping",
        "key": "t_contract(IJBPaymentTerminal)14672",
        "label": "mapping(contract IJBPaymentTerminal => mapping(uint256 => uint256))",
        "numberOfBytes": "32",
        "value": "t_mapping(t_uint256,t_uint256)"
      },
      "t_mapping(t_uint256,t_mapping(t_uint256,t_uint256))": {
        "encoding": "mapping",
        "key": "t_uint256",
        "label": "mapping(uint256 => mapping(uint256 => uint256))",
        "numberOfBytes": "32",
        "value": "t_mapping(t_uint256,t_uint256)"
      },
      "t_mapping(t_uint256,t_uint256)": {
        "encoding": "mapping",
        "key": "t_uint256",
        "label": "mapping(uint256 => uint256)",
        "numberOfBytes": "32",
        "value": "t_uint256"
      },
      "t_uint256": {
        "encoding": "inplace",
        "label": "uint256",
        "numberOfBytes": "32"
      }
    }
  }
}